:1000000000000220750300005D0300005F03000094
:1000100061030000630300006503000000000000AE
:100020000000000000000000000000006703000066
:1000300069030000000000006B0300006D03000076
:1000400001330000DD5102005D3300006F0300004A
:100050006F0300006F030000994600006F0300006B
:100060006F0300006F0300006F0300006F030000C8
:100070006F030000713400006F0300006F03000085
:100080006F030000391F00006F0300006F030000C2
:100090006F0300006F0300006F0300006F03000098
:1000A0006F0300006F030000753600006F0300004F
:1000B0006F0300006F03000000000000000000005C
:1000C0006F0300006F0300006F0300006F03000068
:1000D000717A02006F0300006F0300006F030000DD
:1000E0006F0300000000000000000000000000009E
:1000F000000000006F030000000000006F0300001C
:1001000000000000000000000000000000000000EF
:1001100000000000000000000000000000000000DF
:1001200000000000000000000000000000000000CF
:1001300000000000000000000000000000000000BF
:1001400000000000000000000000000000000000AF
:10015000000000000000000000000000000000009F
:10016000000000000000000000000000000000008F
:10017000000000000000000000000000000000007F
:10018000000000000000000000000000000000006F
:10019000000000000000000000000000000000005F
:1001A000000000000000000000000000000000004F
:1001B000000000000000000000000000000000003F
:1001C000000000000000000000000000000000002F
:1001D000000000000000000000000000000000001F
:1001E000000000000000000000000000000000000F
:1001F00000000000000000000000000000000000FF
:10020000354936480A1A02D0072291438D463449AF
:1002100034480A1A06D00722914381F30988022242
:1002200082F3148830483149314A00F044F83148AB
:100230003149324A00F03FF831483249324A00F041
:100240003AF832483249334A00F035F832483349F7
:10025000334A00F030F833483349344A00F02BF881
:1002600033483449344A00F026F8344834490022EF
:1002700000F02CF833483449002200F027F83348C6
:100280003349091A082902DB002202604160314A21
:1002900090471F481F49884205D00268043003B4C4
:1002A000904703BCF7E700208646EC46002000217B
:1002B000294A9047FEE7884207D0521A05D00378B2
:1002C00001300B700131013AF9D17047884202D0F8
:1002D00002700130FAE770470000022000E00120C0
:1002E000000002200000022010A90200A40000204B
:1002F0003C030020D0030000D00300001680020061
:1003000010A90200A4000020A40000208C8102009B
:100310008C8102008C8102008C8102008C810200A1
:100320008C8102008C8102008C8102000FA90200E6
:10033000A8AB02003C0300203C0300203C0300204B
:10034000A6480020A8480020A8480020A84800206F
:10035000A86800209D0300000D400000FEE7FEE7B6
:10036000FEE7FEE7FEE7FEE7FEE7FEE7FEE7FEE765
:1003700000F002B8FFF7FCBF0F484FF007018843B9
:1003800085460E4880470E48016841F470010160BF
:10039000BFF34F8FBFF36F8FFFF732BF09480A4992
:1003A0000A4A884207D0521A05D0037801300B70F0
:1003B0000131013AF9D1704700000220E547000001
:1003C00088ED00E0E880020000000020A40000208A
:1003D000FEE7F0B595B01D46164608460C4602F0FD
:1003E00049FB1A9B0D93CDE9086500252B46082291
:1003F00005A920460A958DF82C500C9502F057FB64
:10040000079B0293069B03939DF814308DF81150BF
:1004100003F00302012A1DD1BDF81420059DC3F38A
:10042000C203C2F383168DF81030B20008230EA960
:10043000204602F03CFBC5F3952508AB00933246FD
:1004400002AB0EA9284600F01FFD204602F016FB65
:1004500015B0F0BD022AF8D1BDF81650C3F3C2039F
:10046000C5F389158DF810300827082D2E4628BFB2
:1004700008263B4632460EA9204602F018FBAD1B6B
:1004800008AB02AA31460EA8374400F061FD002DEA
:10049000EBD1DAE7014B01221A7070477D0300208F
:1004A0007047000070B5124D06460FCD88B06C46FF
:1004B0000FC495E80F00002E84E80F004FF0FF33C3
:1004C0004FF00602CDE90023CDE90233094A0A487C
:1004D0004FF0805308BF00226946069302F0F2FDF8
:1004E00008B101F019FA054B1E7008B070BD00BFCD
:1004F0008C81020095040000A40000203C03002031
:1005000007B5044B0093044A4023FFF762FF03B092
:100510005DF804FB1D0500003D03002038B50D4BC0
:100520000D4D002018700D4804782D5DD2B21C4688
:1005300065B1043003F022FD08B101F0EDF9084B7C
:100540001A7812B12378002BFBD038BD0C3003F0A1
:10055000D1FAF1E77D030020980B0020A4000020D1
:100560003C03002008B50848084A0378D35C3BB137
:10057000043003F09DFCBDE808400020FFF792BF67
:100580000C3003F063FAF6E7A4000020980B00207B
:100590000120FFF787BF000008B5FFF7F9FF044807
:1005A000042100F0D1FB034B01225A7108BD00BFAA
:1005B000C0800200B8000020037813F0040216D0B7
:1005C00003F00303012B03D0022B09D00120704755
:1005D0000A6800880232C0F3831002440A60F5E71B
:1005E0000B684288023303EB92130B60EEE7104670
:1005F000704700002DE9F04F044685B0861C0020AE
:100600000F46154601F050FB454801683960D0E9B6
:100610000132134401335B1A824600F21C4700F595
:10062000836900F21448B3421BD30020002D72D01E
:1006300004F00F039B0143F0050363F30F00DAF8A6
:100640000020DAF808301340033316444AF8230038
:100650000020CAF8006001F029FB012005B0BDE8C8
:10066000F08F0121384601F034FD484601F04CFD81
:10067000404601F049FDDAF80400DAF808B00090CD
:1006800000EA0B0003300AEB80006946FFF794FF95
:10069000009B50BB0BEA03020AEB820203F1020C3F
:1006A000D2680192013303EA0B0B0AEB8B0B02F0C9
:1006B0000302012ADBF80C10CDF800C023D0022A77
:1006C00016D08346404601F022FD10B1009BCAF8C7
:1006D00004305946384601F0FCFCDAE901231344A2
:1006E000DAF8002001339B1A9DE70BEA0300C9E703
:1006F000BDF80630C3F3891303334FEA114B0CEBFB
:1007000093030093DEE7BDF80430C3F383134FEA8D
:10071000114B6344F5E7A40544F006008FE700BFE2
:100720005004002030B50A4B0A4A0B49D21AD208AD
:1007300000239A4201D1052006E031F823500468D5
:10074000A54202D10360002030BD0133F1E700BFB4
:1007500030800200C0800200000000202DE9F84F28
:10076000224B2348FF229A600022C3F81824C3E9D1
:100770000022C3F8142483F8202402F034F98146BF
:1007800088B91C481C4E1D4CDFF87CA002F09CFA76
:10079000A41BE4084D46A54208D10023184A194875
:1007A0001946A3421BD14846BDE8F88F4FF0000818
:1007B000474606EBC50BBD420AD056F83710DBF8AA
:1007C0000000142204F0C4FE0028C8BF08F101088C
:1007D0000137BC42EFD12AF825800135DBE720F84C
:1007E000231042F8041B0133DBE700BF5004002054
:1007F000D0800200F481020030800200C08002003C
:1008000048000020020000200000002007B50190F1
:1008100031B9019A064B53F8320003B05DF804FB7E
:1008200001A8FFF77FFF0028F3D00020F5E700BF05
:1008300030800200094B013903EBC000032909D8BD
:10084000DFE801F00A0204060420704700797047CF
:1008500040797047002070470220704730800200C6
:1008600030B5124C00EB400054F8215002FA00F36E
:10087000072202FA00F06B400D4A03406B40C3F3BD
:10088000821044F8213002EB8101C3F3C20282429C
:1008900038BF0246C3F34220824203F0070338BF49
:1008A0000246934238BF13464B8030BD48000020BB
:1008B00000000020154B93F8203437B504460BB9DF
:1008C00018B90024204603B030BD04F0EDFE01301D
:1008D000009001230E486A4601A902F0FEF9054680
:1008E0000028EED12146009A019804F05FFEDDE970
:1008F00000231344064803F8015C009902F025FA2E
:100900000099034802F038FA019CDBE7500400200C
:10091000F4810200034BD3E90030C31A5842584116
:10092000704700BF500400202DE9FF47FFF7F2FF9A
:100930000646002840F01A818D4DC5F81804BFF313
:100940004F8F6B68AC6800932340033305EB830043
:100950006946FFF731FE009B18B1D5F81824002A2C
:1009600069D004EA0302991C013305EB820223409B
:1009700005EB8303D268DB68029302F00303022BCA
:10098000019200916AD1BDF806307A489DF8046062
:10099000C3F38918B8F1500FC14628BF4FF0500972
:1009A00069F38F1309F10801ADF8063002F033F84E
:1009B000C6F3C2060746002800F0BF8002F05AF8CE
:1009C0000023082201A9384602F067F8009924EABA
:1009D00001020132B9EB820F4FEA820337D95FFA85
:1009E00089F983B32140DCB2A9EB040903315FFA32
:1009F00089FAA146604C05EB810108234A46384636
:100A000002F04BF834B109F108035246214638464A
:100A100002F043F8009B08F1030803EB98030093EE
:100A2000D5F81834002B52D1D5F81044DFF85C917A
:100A30004FF0070870E02A689A4285D86A6030460D
:100A400004B0BDE8F0874C491C469A46D5E70C40F7
:100A5000E11C08234A4605EB8101D8E7012B6CD144
:100A6000BDF804604348C6F38311062928BF062158
:100A700061F3891602318900ADF8046001F0CBFF03
:100A8000C6F3C2060746002857D001F0F3FF002343
:100A9000082201A9384602F000F84FF00008BDF81E
:100AA0000420C2F383124FEA8803904503F1080340
:100AB000B6D200994A1C21400331009205EB810116
:100AC0000422384601F0E9FF08F10108E7E738465B
:100AD00001F0D4FFFFF71EFF80F00100C6B2AEE7C1
:100AE000E3685A79B2B11B79BDF8081003EB4302F1
:100AF00059F8211008FA02F3052E03EA010323FA3C
:100B000002F308BF0326B34204D3236839461B68A7
:100B100020469847E3681C68002CE1D1384601F074
:100B2000ADFF204601F0C0F8D5F818340BB9009B92
:100B30006B60002001F0BAF8CCE7D5F8104474B926
:100B40000E4B5B88012BC5D90D4B0E480E49C01AC0
:100B5000C008000440F0020000F066F8BAE723681D
:100B600020469B689847E3681C68E8E7002666E72C
:100B700050040020D08002005C04002018000020F7
:100B80003080020060800200C9810200480000201D
:100B90002DE9F74F224D04460F46924601A9012246
:100BA0001846D5F808909B46FFF724FD20B3019E18
:100BB0004FF00008B21CD84508EB020126D11948B5
:100BC000002101F04BFA80F31000000440EA1440C9
:100BD000E400731C04F0380403EA090306EA09067A
:100BE00044F0010405EB8303033644EA881444EA25
:100BF0008724D86045F8264095F820341BB1FFF7CC
:100C000093FE0028FBD103B0BDE8F08F09EA010193
:100C100005EB81015AF82830CB6008F10108CAE7DA
:100C2000500400206C08002000231A46FFF7B0BFD4
:100C300007B50123019201AAFFF7AAFF03B05DF8EF
:100C400004FB07B5CDE9002302236A46FFF7A0FFA6
:100C500003B05DF804FB1FB5CDE90123069B0393A8
:100C600001AA0323FFF794FF05B05DF804FB1FB54D
:100C7000CDE90023069B0293079B03936A46042356
:100C8000FFF786FF05B05DF804FB00002DE9F34790
:100C90002B4D0446D01C8946164601A90022800827
:100CA000AF68FFF7A7FCA8B3DDF80480AB6808F1D4
:100CB00002000190013338401B1AB6EB830F00F19C
:100CC00003004FEA830A05EB80002DD832464946DF
:100CD00004F06CFC1B48002101F0C0F980F3100007
:100CE00008F101033B4007EA0807220C05EB8303E8
:100CF000033742EA0040E400D86004F0380455F8B5
:100D0000273044F0020444EA865203F47C131A4369
:100D100045F8272095F820341BB1FFF705FE002881
:100D2000FBD102B0BDE8F0875246494604F03EFCD4
:100D3000A6EB0A0209EB0A0105F10C00C8E700BFA7
:100D4000500400206C0800201C4A2DE9F843D2F81A
:100D50001034054688460024194689B9E9680C71A3
:100D6000A3B9C2F810540B60154B164EF61AF608CC
:100D7000002703F10709B7420DD12046BDE8F883EB
:100D8000C9680879A04212D00968E6E7DB681A68EA
:100D90000A601D60E8E719F83720EB6842453946DC
:100DA000187928BF4246FFF75BFD0137E3E70134BE
:100DB0000A2CD1D14FF0FF34DFE700BF50040020F0
:100DC00030800200C080020007B503460846197A49
:100DD000052911D05B7A2BB1094A0A49019001F02B
:100DE000F3F901980849019001F0EEF9019803B078
:100DF0005DF804EB01F0DDB9002AF8D0F2E700BF9E
:100E000000820200428F02002282020030B5C388B5
:100E100085B004460D4633B1144A00921449154A70
:100E2000284601F0D1F9217A05291DD0637A4BB10A
:100E3000A088FFF7FFFC104B104953F820202846EC
:100E400001F0C2F9227A0E4BA08853F822200392B7
:100E50000021FFF7DBFC039A0A490346284605B048
:100E6000BDE8304001F0B0B905B030BD00820200ED
:100E70000D8202000582020090820200428F020071
:100E8000B4820200258202002DE9F04385B01F469E
:100E90000C9D002395F80C902B7306460C4690464B
:100EA00029463846FFF7B2FFB8F1060F09D8DFE848
:100EB00008F00412181F283340003146284601F07C
:100EC00083F9002229463846FFF77EFF85F80C900B
:100ED00005B0BDE8F08322683146284601F074F978
:100EE000EFE7D4E900233146284601F06DF9E8E741
:100EF000A36800933146D4E90023284601F064F941
:100F0000DFE7E3680193A36800933146D4E9002347
:100F1000284601F059F9D4E723690293E368019365
:100F2000A36800933146D4E90023284601F04CF928
:100F3000C7E76369039323690293E3680193A36896
:100F400000933146D4E90023284601F03DF9B8E783
:100F500008292DE9F74F80460E4617461C463CD817
:100F6000002593F80C901D7319461046FFF74EFFAD
:100F7000DFF888A0DFF888B0AE4231D918F8052034
:100F80005946204601F020F90135082DF4D11949C0
:100F9000194DDFF870A0204601F016F94FF0000B54
:100FA0005E4522D918F80B207E2A05D810460192FA
:100FB00004F04EFA019A00B92E225146204601F063
:100FC00003F90BF1010BBBF1080FE9D10122214616
:100FD0003846FFF7F9FE84F80C9003B0BDE8F08FB7
:100FE0005146204601F0F0F8CEE72946204601F0B0
:100FF000EBF8E6E739820200378202003582020010
:101000002F8202003B82020010B50D49A1F5BC728F
:10101000914201D800200FE08C1AE30F03EBE403A8
:101020005B1002EBC30452F83330834205DC02DA72
:1010300004F10802ECE7606810BD2146E8E700BF54
:101040005C87020008B5FFF7DFFF024B002808BFEE
:10105000184608BDCE85020007B5002301938DF820
:1010600003300DF1030001F0DFFF9DF80330032B87
:10107000F7D904210DEB010001F0E0FF18B9019848
:1010800003B05DF804FB0020FAE708B500F0A0FA11
:1010900000F08AF8002001F097FF20B1852802D0E7
:1010A00000F0D8F8FCE7FFF7D7FF04F04BFA02F0A6
:1010B00047F810B900F0CEF8FCE708BD01F002BD1A
:1010C00008B500F0C7F8FCE762B6704772B6704723
:1010D000FFF7C2BF00F0C2BA38B50D4614465AB188
:1010E00051B148B102F072F82946204602F042F8A8
:1010F00010B900F0AFF8FCE738BDEFF30580003819
:1011000018BF0120704700004FF0805307B51A6EDA
:10111000596E064B02F0FF021343CDE9001308227B
:10112000694604F043FA03B05DF804FB0036CEF4E0
:10113000004870470C090020704701F0D9BC704787
:1011400008B501F061FF0748074A0378D35C23B173
:10115000BDE80840043002F0ABBEBDE808400C30EA
:1011600002F074BCA4000020980B002008B50020F9
:1011700001F02AFF10B100F06DF8FCE7BDE808406F
:10118000FFF706BA10B5044658B1FFF7D9FF20465D
:1011900000F080FA01F0ACFC00F09AFA0446FFF788
:1011A000E5FF204610BD000008B509F057FF48B91B
:1011B000054B1A78054B1B78134303D0BDE8084054
:1011C00009F052BF08BD00BFCD020020D0020020B0
:1011D0002DE9F84307460D4609F040FF58B1184C79
:1011E000184BDFF86890DFF86880E41AE4082404FC
:1011F00044F003040DB9BDE8F883D9F80000C0F14C
:101200000806AE42A8BF2E4632463946404404F096
:10121000CDF9D9F800203244082AC9F80020374413
:10122000A5EB0605E6D1084B5B88022B03D94146A6
:101230002046FFF72BFD0023C9F80030DAE700BF96
:10124000B8800200308002004400002058090020CD
:101250005009002010B50C4C226882B10B4B5B8802
:10126000022B0AD90A480B4B0B49C01AC0080004CC
:1012700092B240F00300FFF709FD00232360BDE8B0
:101280001040FFF751BB00BF580900204400002068
:10129000B880020030800200500900200378022B41
:1012A00001D809F0EFBE70474FF0102358694FF096
:1012B0008053411C1A695B6908BF03FB02F0A0F56B
:1012C000A04070474FF010234FF080525B691169C6
:1012D0005269581C10B50B4C08BF02FB01F3236187
:1012E000FFF7E2FF084BE06000220849C3F808213D
:1012F000204601F037F918B1BDE81040FFF7E0BE15
:1013000010BD00BF900000205C090020E0890200B1
:101310004FF4005070470220704708B513460A4644
:1013200031B143B10146184604F040F9002008BD30
:101330006FF00A00FBE76FF00B00F8E70128F8B543
:1013400007460C4616461D4610D80B44B3F5005F01
:101350000FD28AB19DB1FFF7A7FF04EB47342118E4
:101360002A46304604F022F90020F8BD6FF038001C
:10137000FBE76FF01600F8E76FF00B00F5E76FF092
:101380000C00F2E70128F7B507460C4616461D4645
:1013900024D80B44B3F5005F23D22AB3AB0826D080
:1013A000FFF782FF04EB47310C1809F073FE074684
:1013B0000028FAD109F05EFE21460E4800972B4620
:1013C000324601F00BF9044609F064FE0028FBD117
:1013D000201E18BF0120404203B0F0BD6FF038005E
:1013E000FAE76FF01600F7E76FF00B00F4E76FF025
:1013F0000C00F1E79000002001282DE9F04106469D
:1014000024D8FFF751FFDFF8508000EB463505F593
:10141000005709F03FFE04460028FAD109F02AFEE1
:10142000234601222946404601F098F988B909F07F
:1014300031FE04460028FAD105F58055AF42E8D1C7
:10144000304609F02FFE2046BDE8F0816FF03800ED
:10145000FAE74FF0FF30F7E79000002010B5084C96
:10146000D4F8083153B19BB2D4F8041194F80001B8
:101470002246FFF787FF0023C4F8083110BD00BFE4
:101480005C0900202DE9F8431C4C1D46D4F80831B6
:1014900081460F4690466BB194F80021824207D1F5
:1014A000D4F804211A44914202D1B3F5807F01D1CE
:1014B000FFF7D4FFD4F8080118B984F80091C4F8F4
:1014C0000471C0F58076AE4234BFB6B22E464EB13E
:1014D00032464146204404F069F8D4F808313344D8
:1014E000C4F80831AD1BADB215B92846BDE8F88384
:1014F000FFF7B4FF3744B044DCE700BF5C090020CD
:1015000007B50B4B0093FFF7CFFE042200F5804197
:101510000DEB020004F04AF8042269460DEB0200CC
:1015200003F09BFFB0FA80F0400903B05DF804FBC4
:10153000E737DDF607B5CDE90010FFF7B5FEDDE9C9
:10154000001200F58040043003B05DF804EBFFF7B3
:10155000E4BE37B5054601911446FFF7A5FE04F534
:101560008044043401992A46204403B0BDE8304049
:10157000FFF7D3BE0048704764870200024900228B
:10158000C0E90012704700BF040003067047B0F5C1
:10159000A27F01D109F088BD7047000010B5084C4A
:1015A000FFF794FD2378012B05D1FFF7E3FF01F04E
:1015B000F7FF00232370BDE81040FFF785BD00BF93
:1015C000800A0020014B1878704700BF800A002075
:1015D0001FB502A8FFF7D2FFFFF7CCFF104A02A900
:1015E00001F05CFF08B1FFF76BFDFFF7C3FF036875
:1015F000D3F81045FFF7BEFFE2B24FF4703101247B
:1016000021FA02F202232146009402F01DF8FFF7AE
:10161000B1FF01F0ABFF034B1C7004B010BD00BF65
:101620008F150000800A002008B5FFF74FFD0A4B18
:101630001B782BB9FFF7CCFFBDE80840FFF744BD8E
:10164000FFF798FF01F0D0FF0028F5D1FFF792FFD8
:1016500001F08CFFF0E700BF800A002038B5FFF7EB
:1016600035FD0B4B1B78012B0FD1FFF783FF0221B8
:1016700001F0C6FF04460DF0B3FA0546FFF724FD5E
:101680004FF4705000FB054038BD0024F3E700BF65
:10169000800A002010B5044626F092FB094B186022
:1016A00074B1094B094A18604FF47A704443002121
:1016B0005C601846BDE810409A60D96026F08CBB8B
:1016C00010BD00BF680A00206C0A00208D150000C4
:1016D00008B526F075FB054B1B68C3F5797303331A
:1016E00018444FF47A73B0FBF3F008BD680A002089
:1016F00030B50F4D8BB022F099FA0FCD01AC0FC46D
:101700000FCD0FC42B68236001A824F0F1FFFFF771
:1017100013FD012022F0FCFA22F0AEFA032801D1D9
:1017200022F0B6FA012022F0F5FA0BB030BD00BF6E
:101730006C87020022F076BA07B5ADF806000DF10D
:10174000060022F06DFA03B05DF804FB07B5ADF8B2
:1017500006000DF1060022F067FA03B05DF804FB05
:101760004FF4705310B503FB00F4204622F0ADFA9D
:101770000028FAD010BD22F03DBA22F04ABA10B5C6
:10178000044622F048FA207010BD003818BF01202E
:1017900022F0BEBA003818BF012022F0B7BA08B94B
:1017A00022F079BA22F07FBA08B522F065FAC31E9A
:1017B0005842584108BD08B522F05EFA023818BFF9
:1017C000012008BD10B50446012C104604D0042C9D
:1017D00005D00024204610BD22F09EFAFAE7BDE8AD
:1017E0001040002122F065BA10B50C46FFF7A0FCAE
:1017F000036A013303622046BDE8104004F06ABD6D
:1018000022F068BA08B507290AD8DFE801F0040A0F
:10181000141B21272D33FFF78BFC436A01334362EE
:1018200008BDFFF785FC836A013383620120BDE8B0
:10183000084004F089BDFFF77BFCC36A0133C36233
:101840000420F4E7FFF774FC036B01330363EDE757
:10185000FFF76EFC436B01334363E7E7FFF768FC78
:10186000836B01338363EBE7FFF762FCC36B0133E8
:10187000C363DBE7FFF75CFC036C01330364D5E76C
:1018800030B585B0CDE9022104460193FFF750FC45
:1018900005680399DDE9013201350560204605B090
:1018A000BDE8304004F074BD08B506280AD8DFE86A
:1018B00000F0040D13191F252B00FFF739FC4368B6
:1018C00001334360134B00221A6008BDFFF730FC60
:1018D000836801338360F5E7FFF72AFCC3680133AF
:1018E000C360EFE7FFF724FC036901330361E9E715
:1018F000FFF71EFC436901334361E3E7FFF718FC80
:10190000836901338361DDE7FFF712FCC3690133AB
:10191000C361D7E7F83C00201FB50021039001AA5E
:1019200044F20100CDE90111FFF709FC05B05DF8B3
:1019300004FBD0E90223D1E90201994208BF904299
:101940002CBF01200020704708B50B4800F0DFFADB
:101950000A4B0B49D3E900231218D1E9000143F1E6
:1019600000038B4208BF824203D212F1807243F11E
:1019700000031046194608BDD4000020880A002044
:10198000F00A002037B505460C460A4801A900F0C8
:10199000F0FA60B10570446001A9064800F013FB3D
:1019A00018B1054800F0B8FA002003B030BD04209B
:1019B000FBE700BFC0000020D400002038B5194B61
:1019C0001B78044613B90025284638BD0028FAD0F4
:1019D00090F8203003F0FF05002BF4D0FFF7B4FFA0
:1019E000D4E90223994208BF904216D323690BB968
:1019F00084F82030D4E90530984721690029E2D0E5
:101A000094F8203003F0FF05002BDCD0D4E902234A
:101A1000521843F10003C4E902230348214601F0B0
:101A2000C6F9D1E7900A0020A887020013B5114B30
:101A300011491868019008231048582200F086FACE
:101A4000044698B90E4A0F4801A900F03FF9044630
:101A500060B90C48012100F03DFA01230A4A094807
:101A6000194600F09FF9094B01221A70204602B076
:101A700010BD00BFA2870200940A0020C000002011
:101A8000E51A0000D4000020FFFF7F00900A00202C
:101A90003AB103685A614A1E51425141196100200E
:101AA00070470720704738B590F8203004460D463F
:101AB00083B98261FFF748FF2369401941F10001B2
:101AC000C4E9020103B1256121460020BDE8384088
:101AD000FFF758BF002038BD014800F018BA00BF1A
:101AE000D40000202DE9F04F85B0804600F0FAF9CF
:101AF00040B15C4AD2E9003113F1807341F1000139
:101B0000C2E900310021404600F0FBF938B1564EE1
:101B1000336823B13068FFF751FF002333600121A0
:101B2000404600F0EEF920B1FFF70EFF4F4BC3E93E
:101B300000014F484C4F4F4EDFF8409103A900F091
:101B400052FA002846D1DFF82C91474EDFF830A139
:101B5000484601F042F93368002878D083B13368F1
:101B6000D0E90201D3E90223994208BF90422ED264
:101B7000336893F820301BB13168484601F017F9FB
:101B8000484601F024F9D0E902B307460193FFF774
:101B9000DBFE019BBBEB000463EB0105012C75F13F
:101BA000000347DBB4F5350F42D3FFF795FF324A08
:101BB00002444FF496030021504600F013F9002828
:101BC00040D1336813B9404600F0E4F8376005B0FF
:101BD000BDE8F08F0378012B1FD0022B09D14FF005
:101BE000000A304601F0F3F8002836D080F820A033
:101BF000F7E74BB9416891F820302BB9012381F800
:101C00002030304601F0D3F803A9194800F016FA45
:101C100003A9174800F0E7F993E741683B68994248
:101C200002D100233B60EFE7304601F0D9F8EBE743
:101C3000BA68BEE70021504600F059F93846FFF770
:101C4000BDFE01E00D28F9D00023336080E7002BB2
:101C5000BDD1404600F0A2F8B9E7012389F8003071
:101C6000D2E700BF880A0020F80A0020F00A00200E
:101C7000C0000020A8870200FFFFB400900A0020E7
:101C8000D400002072B6024A136801331360704713
:101C9000FC0A0020034A1368013B136003B962B6D3
:101CA000704700BFFC0A0020FFF7ECBFFFF7F2BF50
:101CB000435882B03BB10023435043580193019BEA
:101CC000012002B070471846FBE70000F8B5284B2A
:101CD0004679284C43F82620274B5F8804EBC6033F
:101CE0004FEAC60C1B796BB1012F09D92348244B4D
:101CF0002449C01AC008000440F00200FEF794FF17
:101D00000820F8BD03680A88C3F8082590F9045034
:101D10008A780379002DADBF05F160411A4903F0BF
:101D20000F0E01F561414FEA4212D2B2B4BF01F881
:101D30000E2081F800236D090122144903F01F03CE
:101D400002FA03F341F8253004EB0C03022F44F8A8
:101D500036001A7109D90948094B0D49C01AC00843
:101D6000000440F00300FEF75FFF0020C9E700BF5A
:101D7000080B0020000B00201C00002068800200DF
:101D800030800200B487020014ED00E000E100E0C2
:101D9000D6870200036801221A6070470368012297
:101DA0005A60704773B501F15005AD000068ADB2DF
:101DB0004FF480348C400026C0F80843C0F84843F4
:101DC000465101F5A8714559019522F07F42019DC8
:101DD00040F82120C0F844430BB1C0F8044302B0DE
:101DE00070BD00002DE9F74F0D4622F07F440268D8
:101DF0004FF4803705F150068F408046B60002EB65
:101E00008500C2F84873B6B2C2F80873D2F8041558
:101E100099464FF0000BD0F84035C0F8401542F815
:101E200006B05B1A9259009223F07F43012B009A6F
:101E30004FEA850A0CD1264B4FF4806043F0010332
:101E40009847D8F8003043F806B09B590193019B9E
:101E5000D8F80010D1F80465C1F84473A31B23F02F
:101E60007F43012B1CD11A4B05F5A875013443F0B3
:101E7000010341F825404FF480609847D8F80030BE
:101E8000D3F804359E4209D1D8F800300020C3F8B9
:101E90004473C3F8047303B0BDE8F08F0D20FAE774
:101EA0008A44C9F1FF13CAF84045D1F80405221A43
:101EB000013A22F07F4203F57F439342EED3002A9A
:101EC000E2D10134CAF84045D1F804359842DAE746
:101ED000F087020003680222C3F8442309B1C3F863
:101EE0000423704700684FF48271FFF7E1BE4FF49E
:101EF000803303FA01F10368C3F84813C3F80813E9
:101F0000704750318900006889B2FFF7D1BE03687D
:101F1000D3F804057047000090F9043001215A09F4
:101F200003F01F0301FA03F34032024941F8223063
:101F3000704700BF00E100E0024B034A1B681068D5
:101F4000184700BF080B0020000B002010B561B13E
:101F5000B2FBF3F403FB1424A4B244B9C0E90014A7
:101F600084608281C381204610BD0E20FCE70920D9
:101F7000FAE737B550E8013F9DB2C489254484890A
:101F8000A54228BF2D1B0489A54202BFBFF32F8F96
:101F9000002207E0C5EA030540E80154002CE9D11E
:101FA0004FF001028DF803200193019B9DF803205F
:101FB0000B6002F0FF0322B10B880068184403B0E5
:101FC00030BD1846FBE70A884B889A4209D150E891
:101FD000012FC2EA024240E80123002BF7D1012081
:101FE00070470020704737B550E8023F1FFAA3F54D
:101FF000C488A54202BFBFF32F8F00220DE0C48921
:1020000025448489A54228BF2D1BC3EA054540E825
:102010000254002CE8D14FF001028DF80320019307
:10202000019B9DF803200B6002F0FF0322B14B8857
:102030000068184403B030BD1846FBE70A884B8897
:102040009A4209D150E8022FC2EA224240E8022314
:10205000002BF7D1012070470020704710B50346D0
:1020600053E8000F0A4643E8002494F0000FF7D12C
:1020700010BD10B5034653E8000F40EA010243E8E3
:10208000002494F0000FF6D110BD10B5034653E8BC
:10209000002F42EA010043E8000494F0000FF6D15B
:1020A00010BD10B5034653E8000F00EA010243E8F3
:1020B000002494F0000FF6D110BD10B5034653E88C
:1020C000002F02EA010043E8000494F0000FF6D16B
:1020D00010BD10B5034653E8002F02EB010043E8A2
:1020E000000494F0000FF6D110BD10B5034653E87C
:1020F000002FA2EB010043E8000494F0000FF6D19A
:1021000010BD0121FFF7B5BF0121FFF7BEBF0021C0
:10211000FFF7C7BF0021FFF7D0BF10B590B1D0E9DE
:10212000012301689B1ADBB20A60013BDBB2FF2B83
:10213000026802D10020107110BD11684C1C14609F
:102140000B70F2E70E20F7E738B504460020FFF7E2
:10215000ABFD226863681168994213D9481E10606C
:1021600011F8015CE368A18A01FB0535A3681179C8
:102170001B1ADBB2994200D213710020FFF796FDC3
:10218000284638BD0025F8E738B5054600200C463E
:10219000FFF78AFD2A681368591C1160E968641A00
:1021A000A98AB4FBF1F41C70BDE838400020FFF7A9
:1021B0007DBD826810B504462AB143690168006993
:1021C00098470023A36010BD0EB403B5039921B155
:1021D00004AB01AA019300F077F802B05DF804EBBC
:1021E00003B070470A2938B504460D4602D10D21C7
:1021F000FFF7F8FFA3682268591CA160D554D4E901
:1022000001329A4204D32046BDE83840FFF7D1BFDF
:1022100038BD00002DE9F84F9846DDE90A43154620
:1022200082460F460A464FF00109AA420FD2C14525
:1022300038BFC14613F0010B01D16CB9002401264F
:10224000B8F1010F1BD908F1FF386E43F8E709F127
:102250000109B2FBF5F2E8E79B070ED5B8F1000FD4
:102260000CBF30262026A145E9D2013C314650461C
:10227000FFF7B8FF002CF6D1E0E72026F3E7B7FB25
:10228000F6F39D42E1D9DFF83C80B7FBF6F3504608
:1022900018F8031006FB1377FFF7A4FF3346AB4291
:1022A000B6FBF5F6F1D2BBF1000F02D00CB1A1459F
:1022B00001D3BDE8F88F20215046013CFFF792FF83
:1022C000F4E700BFF68702002DE9F74F05461746F1
:1022D0008846002900F0428118F8011B49B92B7B80
:1022E000002B00F03B81284603B0BDE8F04FFFF71C
:1022F00060BF252940F0B780002698F800302D2BCC
:10230000424608F1010823D0302B24D02B2B25D0B6
:1023100000242A2B02F1010123D13B681A1D1B68FE
:102320003A601C440A4613782E2B26D101324FF016
:10233000000A104610F8011BA1F1300CBCF1090F86
:102340001DD80A2303FB0A13A3F1300A0246F0E763
:1023500046F00106D1E746F00206CEE746F0040655
:10236000CBE711F8013CA3F130000928DBD80A22A1
:1023700002FB0434303C0A46CBE74FF0000A12F867
:10238000011B01F0FB0068289046F8D0782909D895
:102390006F290CD8632962D022D8252963D0582907
:1023A00000F0888098F80030002B95D197E77039BD
:1023B0000829F7D801A353F821F000BF3725000002
:1023C000A5230000A5230000C5240000A5230000CC
:1023D000A3240000A5230000A5230000B5240000CD
:1023E000642901D06929DDD13A68D2F80090111D25
:1023F00089EAE9723960A2EBE9724FF0010B092A10
:1024000035DCD34538BFD3462CB1B9F1000F01DB21
:10241000720700D5013CB30702D5BAF1000F03D013
:10242000F00701D44CBB0024B9F1000F2DDAC9F13B
:1024300000092D212846FFF7D5FE06F00302022AE7
:1024400004D1BAF1000F01D11CBB0024CDE9004634
:1024500053460A2249462846FFF7DCFEA2E73B68BE
:102460001A1D19783A602846FFF7BCFE9AE70A233E
:102470000BF1010BB2FBF3F2C1E7A345D4D220214B
:102480002846013CFFF7AEFECCE77107D5D52B21DE
:10249000D0E7A345DAD230212846013CFFF7A2FE5F
:1024A000D2E73968CDE900460A1D3A6053460A2250
:1024B0000968D0E739680A1D3A60CDE900465346FD
:1024C0001022F5E73B681A1D3A6016F00106D3F8B2
:1024D000009028D1B9F1000F03D0484603F0E4F88A
:1024E0000646B44200D904BB09F1FF3919F8011FAF
:1024F00000293FF457AF2846FFF774FEF6E7284659
:102500000136FFF76FFE19F806100029F7D1A64231
:10251000BFF448AF002C3FF445AF20212846013CD2
:10252000FFF760FEF3E70026EDE720212846013C97
:10253000FFF758FED5E73B681A1D3A603021284660
:102540001C68FFF74FFE78212846FFF74BFE00225C
:102550000823CDE90032214610227CE703B0BDE814
:10256000F08F00BF13B50B46114698B9144B5B882A
:102570006BB1144B1448154AC01A0E23C0080093BF
:10258000134B0004134940F00100FEF764FB0E20DA
:1025900002B010BD6BB90A4B5B88002BF7D0094B1A
:1025A00009480D4AC01AC0080E2300930004084BC6
:1025B000E8E703601B6802B0BDE81040184700BFA1
:1025C0003000002030800200908002000688020067
:1025D0009C8902000B8802003A8802002DE9F34131
:1025E000B0B9514B5B88002B00F095804F4B5048A1
:1025F000504AC01AC0080E244F4B009400044F49A3
:1026000040F00100FEF727FB204602B0BDE8F08154
:102610006AB9454B5B88002B7DD0444B4448484AFF
:10262000C01AC0080E24444B00940004E7E7D0F819
:1026300000E0BEF1000F0DD13B4B5B88002B6CD04E
:102640003A4B3B483F4AC01AC00808243A4B009412
:102650000004D4E76BB9344B5B88002B5FD0334B5D
:102660003348394AC01AC0080924334B0094000487
:10267000C5E74568D5F80480B3FBF8F508FB1535C8
:102680006DB1294B5B88002B49D0284B28482F4A35
:10269000C01AC0080924284B00940004AFE78D0736
:1026A0000DD0214B5B88002B3BD0204B2048284A83
:1026B000C01AC0081024204B009400049FE712F0B9
:1026C000030F0CD0184B5B885BB3184B1848214A9A
:1026D000C01AC0081024184B009400048FE7C56886
:1026E000A9420BD34D1EEC180569AC4206D8DEF8A2
:1026F0000C40A44602B0BDE8F04160470A4B5B883D
:102700007BB10A4B0A48144AC01AC00810240A4B6D
:102710000094000473E70E2476E7082474E7092484
:1027200072E7102470E700BF300000203080020004
:102730009080020006880200AE8902000B88020029
:102740008888020034880200478802008E880200D0
:10275000B8880200D0880200F3880200F7B5A0B95B
:10276000374B5B88002B63D0364B3748374AC01A4B
:10277000C0080E24364B00940004364940F0010096
:10278000FEF769FA204603B0F0BDD0F800C0BCF1F6
:10279000000F0DD12A4B5B88002B4BD0294B2A48C8
:1027A0002D4AC01AC0080824294B00940004E4E70D
:1027B0006AB9234B5B88002B3ED0224B2248274A24
:1027C000C01AC0080924224B00940004D5E74768CA
:1027D000D7F800E00EF1FF370F420CD0184B5B88A2
:1027E00063B3184B18481E4AC01AC0081024184B6F
:1027F00000940004C1E7C768B9420CD304694D1EB8
:102800000EFB0255A54206D8DCF81040A44603B0E2
:10281000BDE8F04060470A4B5B887BB1094B0A4832
:10282000104AC01AC0081024094B00940004A4E701
:102830000E24A7E70824A5E70924A3E71024A1E7AD
:1028400030000020308002009080020006880200E4
:10285000C18902000B880200348802004788020008
:102860001A89020040890200014B43600020704732
:10287000D48902000846704700207047024B186850
:10288000003818BF012070470C0B002008B5024823
:10289000FFF740FC002008BD0C0B002008B51046D7
:1028A0001A4602F083FE002008BD00002DE9F04327
:1028B000814687B014480E4615469846FFF721FC1E
:1028C0000446F0B90746BD4215D10F48FFF722FC78
:1028D000D9F808305BB102228DF800200022CDE942
:1028E0000126CDE90325CDF8148068469847204697
:1028F00007B0BDE8F08306EB073000F077FC013746
:10290000E1E71124F3E700BF0C0B00202DE9F041B3
:10291000804686B011480F4616461D46FFF7F1FB6C
:102920000446C8B9AA083146384600F077FC0B487F
:10293000FFF7F0FBD8F8083053B101228DF80020E2
:102940000C9A0592CDE90147CDE9036568469847A1
:10295000204606B0BDE8F0811124F9E70C0B0020F9
:102960002DE9F84FB0F806A04579D2F800B09DF8EF
:1029700028900AFB05F5043D88460BEB0301A942AC
:1029800003F1040488BFA5EB030BB4FBFAF607467A
:102990000AFB1644C2F800B04EB9AAEB04055D4527
:1029A00028BF5D46BBF1000F04D1BDE8F88F3F683A
:1029B000013EF1E7043408EB06003C442A46B9F135
:1029C000000F0DD02146ABEB050B02F0EFFDDA4511
:1029D0002E443F6855464FF0000428BF5D46E1E7AE
:1029E00001462046EFE7FFF798BBF8B54679014668
:1029F000721E0546002393422D6803D30024A6428D
:102A000002D8F8BD0133F6E70F682846FFF7BCFB94
:102A100001343946F3E72DE9F843868ACD1C074691
:102A2000FFF792FB043E35440446B5FBF6F5F0B1E2
:102A30004FF48073EDB28380C680013D076081460C
:102A40004FF00008A84512D23846FFF77DFB064636
:102A500048B163790133637108F10108C9F80000D6
:102A600007608146EEE72046FFF7BFFF3446204669
:102A7000BDE8F88301210430FFF72BBB10B501211D
:102A800004460430FFF731FB10F0FF0F04D120465D
:102A9000BDE81040FFF7A9BF10BD1FB5039200228B
:102AA000009203AAFFF75CFF05B05DF804FB1FB5B9
:102AB00003920122009203AAFFF752FF05B05DF8CE
:102AC00004FB0000064B10B500241C70054B1C6075
:102AD000BFF35F8F0449054800F05FF9204610BD41
:102AE000180B00201C0B00200C8A0200100B002089
:102AF00008B50020FFF7D8F8F1EE103A23F09F0355
:102B0000E1EE103ABFF35F8F054B4022C3F88421FA
:102B10000020FFF7CBF820BF40BF20BF08BD00BF9B
:102B200000E100E0026813685268934291BFD01A36
:102B300080680130801888BFC01A704703682DE98B
:102B4000F0411F681E6815465A68964286BF836822
:102B50000133961B8846C268416888BF9E1BB542F8
:102B6000044607FB02110CD86A43404602F01EFDE2
:102B7000A3683D449D4288BF002523681D60BDE8D1
:102B8000F08106FB02F73A46404602F00FFDE2688C
:102B90006168AD1B6A4308EB070002F007FDECE734
:102BA000036881681A685B688B4234BF0133002375
:102BB000D31A584258417047F8B5044600200D46D4
:102BC000FFF772F82046FFF7EBFF10B1237C002BD4
:102BD0003CD12268A66853685168B14234BF0131C4
:102BE0000021516030B11168A068814234BF0131C9
:102BF00000211160E2686068511E072920D8DFE8D3
:102C000001F004101F141F1F1F182A78C2542046F9
:102C1000FFF788FF23689A68824200D298600024F8
:102C200015E02A8820F81320F1E72A6840F82320CD
:102C3000EDE7D5E9006700EBC300C0E90067E6E710
:102C4000294602FB030002F0B1FCE0E70424002067
:102C5000FFF72CF82046F8BD37B50546019114461C
:102C600082B10020FFF720F82846FFF75BFFA04263
:102C700001990AD322462846FFF760FF002400206E
:102C8000FFF714F8204603B030BD0524F7E710B570
:102C900004460020FFF708F820680C22002102F00B
:102CA000AEFCBDE810400020FFF700B810B50446A8
:102CB0000020FEF7F9FF2046FFF734FF044600200E
:102CC000FEF7F4FF204610BD836800225A60C3E976
:102CD00004229A60DA601A6070472DE9F0410646D6
:102CE000884617461D4683B9B0687368D0E9031457
:102CF00003F1010C0A1B62450ED100243C6015B3A0
:102D0000FFF708FA0020BDE8F0818068FFF7F9F9C5
:102D10000028E9D01120F6E701EA030223409A4295
:102D200038BF64443B682CBFACEB0204641A9C427D
:102D300028BF1C4633683C601344C8F80030C368A1
:102D40001C44C460DEE72846DDE7034680685B6814
:102D5000826810B50469013323449B1A8B4209D35E
:102D60001144C0E90211FFF7D2F9002814BF002076
:102D7000082010BD0420FCE7806808B5826803695C
:102D8000D21A8A4207D31944C0E904110430FFF76C
:102D9000C1F9002008BD0420FCE70B684A684360C5
:102DA000934208BF0023016008BF4360704770B5BD
:102DB000446806460D46206818B1B368294698470E
:102DC00018B923682B60256070BD2468F3E7436859
:102DD000186808B102681A6070474368186870473D
:102DE0004368186800B97047884203D102681A60C6
:102DF0000120704703460068F4E70B7B23B14B6862
:102E000003600023037170470B6803600123F9E737
:102E100003684A68896810B5D41A8C428BBF5B1866
:102E200000230360026098BF037110BD03680A6845
:102E3000896810B59C1A8C428BBF5B1A0123036012
:102E4000026098BF037110BD037910B504461BB131
:102E5000FFF7DEFF206810BDFFF7E8FFFAE700008C
:102E600038B5074C051E04F1080318BF1C4623683B
:102E70002BB11A6822605B6828469847F7E738BD8F
:102E8000280B002020B9054B01225A70FFF7E8BF3C
:102E9000012802D1014A9070F8E77047200B00200A
:102EA00038B5094C23786BB908486360A360236187
:102EB000E36000F0D3F9054600F0DCF9012323704C
:102EC000284638BD8525FBE7200B0020852E000015
:102ED00038B5134CA378054603F0FF0073B115B164
:102EE0006B68012098470020FEF7DEFEE36801339F
:102EF000E3600020BDE83840FEF7D8BEFEF7D4FE00
:102F000025B1226913463BB92A602561E368002B8D
:102F1000ECD100F0C1F9E9E79D42F7D01B68F2E778
:102F2000200B002038B5134C6378054603F0FF00F2
:102F300073B115B16B68002098470020FEF7B4FE0E
:102F40006368013363600020BDE83840FEF7AEBE21
:102F5000FEF7AAFE25B1A26813463BB92A60A56018
:102F60006368002BECD100F0A9F9E9E79D42F7D0A6
:102F70001B68F2E7200B002038B5084C0020FEF754
:102F800093FE6368013B6360656815B900F0A8F9BA
:102F90006570BDE838400020FEF788BE200B002099
:102FA00007B58DF807000DF107010648FFF704FE8D
:102FB0000448FFF7F5FD08B100F03EFA03B05DF8F4
:102FC00004FB00BF1880020038B50C4D2B7893B974
:102FD0000B4B0C49002808BF18460388284620F8E8
:102FE000013F00F0E9F9044618B900F013FA012393
:102FF0002B70204638BD8524FBE700BF840B0020E2
:103000003D8A0200A12F000008B500F015FA00F07B
:103010001BFA0348FFF73BFE024B00221A7008BD63
:1030200018800200840B002010B504460248FFF708
:103030003DFE207010BD00BF1880020007B50A4693
:1030400001460548FFF708FE019000F0E3F90198FA
:1030500003B05DF804FB00BF188002001FB50378C1
:103060008DF800304368019383688DF80830C36899
:10307000054A0393054B684653F8213052F8211056
:10308000984705B05DF804FB880B0020900B0020EA
:103090001FB503788DF800304368019383688DF87D
:1030A0000830C368054A0393054B684653F821303E
:1030B00052F82110984705B05DF804FB880B0020FA
:1030C000900B0020F0B5194B90F800C0DFF86CE0D1
:1030D00043F82C20164B16460A6943F82C204B7FE8
:1030E0000EF80C300C4607460FCC89B06D460FC564
:1030F00094E80F0085E80F001EF80C30CDF810C0E2
:103100004BB1002E0B4A694608BF3246381D00F00D
:10311000EBFD09B0F0BD002E074A694608BF3246F4
:1031200007F10C0000F0BCFBF3E700BF900B0020A0
:10313000880B00205D30000091300000980B0020CB
:10314000074A084B1360084A03F110011160074A4F
:1031500003F120011160064A0120C2F804357047CE
:10316000D40B0020A40B0020A00B00209C0B0020FF
:1031700000E00040124B10B504461868884202D0A7
:10318000102202F013FA0F4A0023C2F80031012383
:1031900013604FF08073D2F8001161B10023C2F8C0
:1031A0000031094B1968A14203D01022204602F0D9
:1031B000FDF9012002E0013BEDD1184610BD00BF32
:1031C000A00B002000E000409C0B0020024B0146B9
:1031D0001022186802F0EAB9D40B0020024AD2F893
:1031E0000034002BFBD0704700E001400A4908B5CD
:1031F0000223C1F80435BFF36F8FBFF34F8FC1F8BF
:103200000805FFF7EBFF0023C1F80435BFF36F8F0C
:10321000BFF34F8F08BD00BF00E001400E4B10B55B
:103220000124C3F80445BFF36F8FBFF34F8F01EB49
:103230008204401AA14208D1074B0022C3F804259A
:10324000BFF36F8FBFF34F8F10BD431851F8042B9E
:103250001A60FFF7C3FFEDE700E00140044A13796D
:1032600023B90121106011711846704785207047FD
:10327000D80B0020074B1A68D2075FBFC02283F823
:10328000002301221A604FF080430122C3F8182561
:10329000704700BF00E100E0074B00221A6082B0D7
:1032A0001B680193019B4FF080430222C3F8042363
:1032B00001229A6002B0704704010040074B0022CF
:1032C0001A6082B01B680193019B4FF0804301227A
:1032D000C3F804231A6002B0704700BF0001004029
:1032E000064B01221A604FF08042D2F80C3403F0F2
:1032F0000113B3F1011FF8D0704700BF0400004074
:10330000134B07B51A6862B1002018601B68009360
:10331000009B4FF080430122C3F808230D4B1B682C
:1033200098470D4B1A6882B100221A601B680193FE
:10333000019B4FF080430222C3F80823054B1B6812
:10334000012003B05DF804EB184703B05DF804FBFF
:1033500000010040D80B002004010040014B1B6815
:10336000184700BFE00B002038B50B4B98420C46C5
:1033700001D0002038BD0020FEF796FC074B1D79D8
:1033800015B901221C601A710020FEF78FFC002D78
:10339000EFD01120EEE700BF00200040E00B00203E
:1033A000034B984201BF034B00221A601A71704709
:1033B00000200040E00B002010B5124C2278FAB932
:1033C000114B1960037813F0010F104B1EBFD3F897
:1033D000042542F00102C3F80425D3F8002222F0AC
:1033E0000102C3F800224378094A5B01DBB282F88C
:1033F0000D334FF40053136001232370002010BDE0
:103400008520FCE7EC0B0020E80B002000D00040FA
:1034100000E100E0064B00221A6082B01B680193B5
:10342000019B044B0122C3F804231A6002B07047C9
:1034300000D1004000D00040024A0123C2F8083306
:103440005360704700D00040064A0123C2F8083399
:103450005360054B4FF40052C3F88020034B002209
:103460001A70704700D0004000E100E0EC0B002033
:10347000074B00221A6082B01B680193019B054B29
:10348000D3F80805044B1B68C0B202B0184700BF50
:1034900000D1004000D00040E80B0020F7B50679CD
:1034A0002F4D0C237343EF183C7A002C56D1EA5071
:1034B0004B687B60477903682246D0B2874244D884
:1034C00043F30734C878002CA8BF04F16047C3F366
:1034D0000732BABF234F02F00F0C07F561474FEADE
:1034E0004010C0B2B4BF07F80C0087F800036409AD
:1034F00001201D4F02F01F0200FA02F247F82420BB
:10350000D3F804454A7824F0030402F0030222436E
:10351000C3F80425D3F808458A7824F0030402F0A0
:1035200003022243C3F808250A78D3F8104502F0B5
:103530000F0224F00F010A43C3F810250C2303FBEC
:1035400006552872002003B0F0BD900000F5A07071
:1035500001321C50185801900198AEE70820F2E79C
:10356000F00B002014ED00E000E100E00368012210
:103570001A600379034A0C2101FB032302221A7209
:10358000704700BFF00B00200368044901221A6154
:1035900003790C2000FB03131A727047F00B002014
:1035A00038B5036843F30732C3F3043552090121E8
:1035B000A94020320A4D45F822100446D3F80022D3
:1035C00000254FF0FF32C3F80052C3F80823FFF77D
:1035D000DBFF2379034A0C2101FB03231D7238BD55
:1035E00000E100E0F00B00200379044A0C2101FB0C
:1035F0000323187A831E584258417047F00B00206D
:103600008B0040330268DBB20120D05001F5A87175
:1036100052F82100704737B54FF4803400688C4071
:103620007BB18B0003F5A0730025C550C3580193EF
:10363000019BC0F8044301F5A87140F8212003B0B4
:1036400030BDC0F80843F6E770B4046840F20116D4
:10365000D4F800528E4025EA0605C4F80052D4F88A
:1036600000522B43C4F800329DF80C3070BCFFF7B9
:10367000D2BF00002DE9F341104C114F114E00252F
:103680004FF48038236883B1D7F8043308FA05F281
:103690001A420AD0002323602368019304F5C04036
:1036A000019B80B2D6E9003198470135062D04F11F
:1036B0000404E7D102B0BDE8F08100BF40A10140A1
:1036C00000A00140F00B00200023435082B043587B
:1036D0000193019B02B070470A4610B54FF48E71FA
:1036E000FFF7F2FF136A9168C95C136A0133136232
:1036F000C0F81C1510BD8B690A4610B54FF48471D3
:1037000023B9FFF7E1FFD0F8183510BDFFF7DCFF54
:10371000536AD168D0F81805C854536A013353620C
:10372000F3E700001FB501238DF80030044BCDE90D
:103730000110D3E900126846904705B05DF804FB1C
:10374000FC0B002030B54C48D0F8043313F4007F54
:1037500085B005464DD0D0F82431002B49D04FF428
:103760009271FFF7B1FF4FF40173C0F80833434B78
:1037700093F829200AB9012242603F4902228DF8BC
:103780000020D1F88024C1F8802403929A69029223
:10379000DA6801920022C3E906226846D3E90012E2
:1037A00090473548D0F81C315BB134494A690B6AFF
:1037B0009A420A464AD991F82830002B46D1FFF7A1
:1037C0008BFF2D48D0F844318BB14FF4A271FFF735
:1037D0007BFF2A4B93F829200AB1012202609A69E3
:1037E0002AB10022586AD9689A61FFF79BFF05B099
:1037F00030BDD5F804335B07D3D5D5F80831002B9D
:10380000CFD01E4C1C482146FFF775FF636AA269A2
:103810009A422346C5D1E269E1684AB12369E3606F
:103820000023606AA261E3616362FFF77BFFB8E790
:1038300094F829200AB901226A600F4A4FF40170F6
:10384000C2F808030022586A9A61EEE70A484FF46A
:103850008E71FFF739FF5369002BB2D05169029185
:10386000002391688DF80030019153616846D2E9D8
:1038700000139847A5E700BF00200040FC0B002084
:103880001F2886BF00F01F00044B4FF0A04300F537
:10389000E070022243F82020704700BF0003005070
:1038A0002DE9F843634B057991462C2202FB053242
:1038B000064692F82A200C469846002A40F0B68028
:1038C0005D490068FFF750FD0746002840F0B080D2
:1038D00021684A1C10D01F2987BF584A01F01F03D6
:1038E0000B464FF0A0420120984003F5E073C2F868
:1038F0000805032042F823006068431C0DD01F28F0
:103900008BBF00F01F0303464C4A4FF0A04203F563
:10391000E0734FF0000C42F823C03368A269C3F88B
:10392000242594F814C0627DBCF1010F4CEA020218
:10393000C3F86C25C3F81405C3F80C152BD1A16886
:10394000481C0DD01F298BBF01F01F020A463B48BF
:103950004FF0A04002F5E0724FF0000C40F822C09A
:10396000E068421C13D01F2887BF344A00F01F0CA8
:1039700084464FF0A0424FF0010E0EFA0CFE0CF5FB
:10398000E07CC2F808E54FF0030E42F82CE0C3F8E3
:103990000805C3F810152C236B4308EB0302C2F88B
:1039A0000490226948F80320B9F1000F2BD0306849
:1039B000247F4FF48E71FFF787FE30684FF4A271B9
:1039C000FFF782FE32681E4BC2F80433110B42F33C
:1039D0000732002AA8BF02F160404FEA4413BABF81
:1039E000184801F00F0400F56140DBB2B4BF035585
:1039F00080F8003301F01F01012303FA01F152099D
:103A0000114B43F8221033680422C3F800252C23FD
:103A100003FB05830022C3E9062283F829205A61AB
:103A2000012283F82A203846BDE8F8830827FAE700
:103A30001127F8E7FC0B0020453700000003005079
:103A40008000020014ED00E000E100E02DE9F0410B
:103A500003680479244D0022C3F800252C2202FBC0
:103A60000452014652686AB1204AC3F8082343F35E
:103A70000732C3F3043652090120B04020321C4EF5
:103A800046F82200D3F80C05D3F81485D3F808655E
:103A9000D3F810754FF0FF329042C3F81425C3F8E5
:103AA0000C25C3F80825C3F8102501D0FFF7E8FE60
:103AB000B8F1FF3F02D04046FFF7E2FE7A1C02D089
:103AC0003846FFF7DDFE731C02D03046FFF7D8FE04
:103AD0000868FFF765FC2C2303FB0454002384F8DB
:103AE0002A306360BDE8F081FC0B002084020200F4
:103AF00000E100E02DE9F047204F90F804904FF0EE
:103B00002C0808FB097405466669002E34D16261F1
:103B10000068A16026624FF48E7184F82860FFF778
:103B2000D3FD2868012383602146FFF7D5FD636834
:103B3000A0468BB92868D4F814A0236A9A4511D8F6
:103B40002A68D2F81C31002BFBD00123D3602C2330
:103B500003FB097300225A613046BDE8F08794F8F0
:103B600028303BB9D0F81C31002BF8D04146FFF784
:103B7000B3FDE2E70F26EAE71126EDE7FC0B002094
:103B80000023435082B043580193019B02B0704719
:103B90001FB501238DF80030044BCDE90110D3E9A6
:103BA00000126846904705B05DF804FB280C002021
:103BB0001F2886BF00F01F00044B4FF0A04300F504
:103BC000E070022243F82020704700BF000300503D
:103BD0007FB5434AD2F82461002E60D010464FF4DE
:103BE0009271FFF7CDFF02238DF80030D2F88034B8
:103BF000C2F880340393D2F83C350293394BDA682B
:103C000001920022C3E906226846D3E900129047D8
:103C10003348D0F8443173B14FF4A271FFF7B0FFCD
:103C2000304B9A693AB10022C3E90622D968D0F82C
:103C30003C05FFF7ADFF2A48D0F82031ABB14FF477
:103C40009071FFF79DFF0123C360264B5A6962B153
:103C5000D0F84C150291002299688DF8002001914E
:103C60005A616846D3E9001290471D48D0F8583190
:103C70009BB14FF4AC71FFF783FF1A4B5A6962B1E5
:103C8000D0F84C150291002299688DF8002001911E
:103C90005A616846D3E90012904704B070BDD2F86B
:103CA0001031002BB4D04FF488711046FFF768FF35
:103CB0000C4BD2F83C0599698842A9D1DC69D968D6
:103CC00064B1D2F8005225F02005C2F800521A69FA
:103CD0009C61DA60DE61FFF75BFF99E79C61FAE7C0
:103CE00000200040280C00202DE9F8436A4B06799B
:103CF0009146242202FB0632044692F820200D460B
:103D00009846002A40F0C38064490068FFF72CFB06
:103D10000746002840F0BD802868421C10D01F28AC
:103D200087BF5F4A00F01F0303464FF0A042012106
:103D3000994003F5E073C2F80815032142F82310F7
:103D400069684B1C0DD01F298BBF01F01F030B4668
:103D5000534A4FF0A04203F5E0734FF0000C42F8D5
:103D600023C02368AA69C3F8242595F814C06A7D86
:103D7000BCF1010F4CEA0202C3F86C25C3F80C0534
:103D8000C3F814152BD1A968481C0DD01F298BBF6F
:103D900001F01F020A4642484FF0A04002F5E072CF
:103DA0004FF0000C40F822C0E868421C13D01F28D6
:103DB00087BF3B4A00F01F0C84464FF0A0424FF0F3
:103DC000010E0EFA0CFE0CF5E07CC2F808E54FF08F
:103DD000030E42F82CE0C3F80805C3F8101524239D
:103DE000734308EB0302C2F804902A6948F80320E1
:103DF000B9F1000F3AD020682A7F4FF48871FFF79D
:103E0000BFFE20684FF49071FFF7BAFE20684FF4B0
:103E10009271FFF7B5FE20684FF4A271FFF7B0FE74
:103E200020684FF4AC71FFF7ABFE23681D49C3F85F
:103E30000413190B43F30733002BAEBF03F16040AB
:103E400001F00F0518484FEA4212A8BF00F5614083
:103E5000D2B2B4BF425580F8002301F01F01012205
:103E600002FA01F15B09114A42F823102368082283
:103E7000C3F80025242303FB06830022C3E906229E
:103E80005A61012283F820203846BDE8F8830827CC
:103E9000FAE71127F8E700BF280C0020D13B00000B
:103EA000000300501003420014ED00E000E100E0C8
:103EB0002DE9F0412E4E0579242303FB05630446CA
:103EC0005B6800686BB12B4BC0F8083340F30733D5
:103ED000C0F304315B0901228A402033264941F8AE
:103EE0002320D0F80032012223F02003C0F8003252
:103EF0004FF4AC714260FFF743FE2368DA60D3F8F9
:103F00005821002AFBD00022C3F80025D3F80C0565
:103F1000D3F81485D3F80815D3F810754FF0FF3295
:103F20009042C3F80C25C3F81425C3F80825C3F83C
:103F3000102501D0FFF73CFEB8F1FF3F02D040460C
:103F4000FFF736FE7A1C02D03846FFF731FE4B1CD5
:103F500002D00846FFF72CFE2068FFF721FA242341
:103F600003FB0565002385F820306B60BDE8F08118
:103F7000280C00201003420000E100E001F0604343
:103F8000B3F1005F2DE9F041064638D11E4B0779A9
:103F9000242505FB073598466C69002C31D16A61F0
:103FA0000068A9604FF49071FFF7EAFD4FF4AC711F
:103FB0003068FFF7E5FD33686A69A968C3F84415FE
:103FC000C3F8482501229A606A68AAB9D3F820216B
:103FD000D3F858411AB9002CF8D00F2407E0002C70
:103FE000FBD10122DA60D3F85821002AFBD0242328
:103FF00003FB078700237B612046BDE8F081102486
:10400000FAE71124F8E700BF280C002008B500F0FB
:10401000FEF84FF480410020FCF7A0FB08B1FDF74B
:104020007BFC4FF0A044FCF7B7FA00F03DF8032307
:10403000C4F83C37C4F834374FF40043C4F80835AB
:104040004FF40053C4F80C3500F014FB0C23C4F8F3
:10405000303700F09BFA0D4B0022C3F87C210C4B4B
:1040600040221A600B4B5B88022B0AD90A480B4B83
:104070000B4A0C49C01AC008000440F00300FCF7CA
:10408000D7FD0AF0D3FEFCF74FFCFAE700600040D2
:1040900000E100E018000020608002003080020093
:1040A0005E8A0200738A020010B50D490D48002493
:1040B0004FF47A63C1E9004332238B600C73FEF73F
:1040C0009CFE094909480C7340F24C434FF42F728F
:1040D000C1E90023BDE8104005238B60FEF78DBECB
:1040E000640C0020740C00204C0C00205C0C0020A0
:1040F00008B503490348FEF7A7FE00B208BD00BF9C
:10410000640C0020740C002008B503490348FEF736
:104110009BFE00B208BD00BF4C0C00205C0C0020D0
:1041200073B52E4D2E4EFFF7E3FF6B8802B2022BC4
:10413000328019D92B4B2C4C2C49E41AE408240466
:1041400044F003042046FCF773FD6B88022B0BD967
:10415000012240F2024100230A200EF023FC2449F0
:1041600002462046FCF764FD0023CDE900630122EE
:1041700040F202410A200BF05BFA68B16B88022B17
:104180000AD9184A184B1B499B1ADB081B04024624
:1041900043F00300FCF74CFDFFF7B6FF164A00237F
:1041A000108040F20341CDE900230A2001220BF0E8
:1041B0003FFA80B16B88022B0DD90A4A0A4B0F498E
:1041C0009B1ADB081B04024643F0030002B0BDE863
:1041D0007040FCF72DBD02B070BD00BF180000207C
:1041E000B22C00203080020060800200888A020029
:1041F000A78A0200BC8A0200B02C0020E78A0200D5
:104200004FF0A0434FF40042C3F80825704708B5AB
:10421000FDF70CFC18B1BDE80840FDF77DBB08BDFB
:104220002DE9F0418CB0002304A90546049310F059
:10423000E1FA0446284606F077F90246601E062891
:1042400000F20381DFE810F0F3000101E200010158
:1042500001010700DB00904C002A6ED1039210F0A0
:10426000B7F801286388039A5CD1022B09D98B48DF
:104270008B4B8C49C01AC008000440F00300FCF7C7
:10428000D7FC4FF0A0434FF40042C3F80C256388DD
:10429000022B0CD90AF0B8FD804B834902468048B6
:1042A0001B1ADB081B0443F00300FCF7C1FC4FF0B2
:1042B000A0434FF40042C3F80C2500210D2208A8AA
:1042C000079101F09CF905A80AF082FD05AA1121C9
:1042D00007A800F06BFD002803DA744907A801F075
:1042E000C1F96D4B5B88022B11D907A8FCF7E2FAE4
:1042F0006A4C039002F04EFA694B039A6C49E41A37
:10430000E4082404438844F00300FCF79AFC69485D
:1043100000224FF48041FDF7C6FB002868D0FDF76E
:10432000FBFA65E0022BC2D95C485D4B6249C01ABA
:10433000C008000440F00300B7E76388022B0BD9E4
:10434000574B56485D490392C01AC008000440F01C
:104350000300FCF769FC039A039201200AF012FDA6
:10436000FFF74EFF039A4C4E0392FFF749FF738805
:10437000039A4BB14A48494B51491B1ADB081B04AD
:1043800043F00100FCF754FC4E4B1A78022A1F46FA
:1043900039D8022012F064F8012826D07388E3B1DE
:1043A0003F4B3E4CDFF830814749E41AE4082404CF
:1043B00044F00104E82342462046FCF742FC73889F
:1043C0005BB10120FCF73EFEE822CDE90082034606
:1043D0003E4901222046FCF74AFCFCF7A5FA0028DA
:1043E000FBD144F62160FDF797FA3B7801333B702F
:1043F00015B1284605F038FE0CB0BDE8F081002A62
:104400003FF455AFAFE700221A70F1E7224B5B880B
:10441000022B09D92148224B2D49C01AC00800049B
:1044200040F00300FCF700FCFFF7EAFEE0E71A4B60
:104430005B88022B09D91948194B2649C01AC008B4
:10444000000440F00300FCF7EFFB284600F0B8FC46
:10445000064642420028CBD00F4B5B88A3B11046E2
:104460000392FCF7EFFD0D4C039A03460C48241A07
:1044700040F20111E408240401911749009144F02D
:1044800001001249FCF7F3FBFCF74EFA0028FBD1C0
:10449000C6F59C40203042E71800002060800200F2
:1044A000308002000F8B0200398B02009C8B0200CF
:1044B000A48B0200880200204A8B02008A8B020033
:1044C000E78B02007C0C0020778C0200A28C02009B
:1044D000B98C0200CA8C02000B8C020010B5264C6D
:1044E00026494FF481732380062240F60A33601D6B
:1044F000638001F05BF8062321492371142204F143
:10450000250001F053F814231E4984F824300822B2
:1045100004F1450001F04AF808231B4984F84430AF
:104520000B22042304F1560084F8543001F03EF8C5
:104530000B2384F8553000234FF4004184F8643095
:10454000A4F8763049F24D5347F6FF72A4F878107C
:10455000A4F87A30A4F880104FF4006348F2010107
:10456000A4F87C20A4F87E30A4F88210A4F884205B
:10457000A4F8863010BD00BF282C0020F58C020066
:104580005E8A0200FC8C0200058D020030B52D4AC7
:104590002D4887B00121FDF77BFA08B1FDF7BCF982
:1045A0002A4B00241C702A4B1C802A4B1C7006F0DE
:1045B00057FC06F057FC04A8FCF7A6FD04A80AF077
:1045C000FFFB4FF400600AF01BFC204600F092FB5A
:1045D000062009F04BFBC32009F04EFB20460AF0F1
:1045E000E7FB882221461C4801F009F81B4801F02E
:1045F00033FDFFF773FF0AF017FC05464242F8B19E
:10460000174B5B889BB110460392FCF71BFD154CC2
:10461000039A03461448241A7821E40824040191DB
:104620001249009144F001001149FCF720FBFCF70E
:104630007BF90028FBD1C5F59C402030FDF76CF9D3
:1046400007B030BD21410000288D0200CD020020BE
:10465000CE020020D0020020282C0020E9010020FA
:104660001800002060800200308002000B8C0200E5
:10467000A28C0200064B07494FF00042C3F8042306
:104680004FF0A042C2F82C170022C3F87C217047DB
:10469000006000400C000200404AD2F87C3103F078
:1046A000010373B5C2F87C31002B75D00023C2F82A
:1046B0007C314FF0A0423A4DD2F80435D94301F491
:1046C000005103F40053C2F80815C2F80C356B888A
:1046D000022B09D93348344B3449C01AC0080004AE
:1046E00040F00300FCF7A0FA4FF0A043D3F81035D8
:1046F000DB0412D46B88022B09D92A482A4B2C4997
:10470000C01AC008000440F00300FCF78DFA002036
:1047100002B0BDE870400AF0EFBA0AF07BFB002857
:10472000E8D06B88022B09D91E481F4B2149C01ABB
:10473000C008000440F00300FCF776FA022011F0F4
:104740008FFE012828D06B88DBB1174B154C1A4E11
:104750001A49E41AE408240444F0010432233246DE
:104760002046FCF76EFA6B885BB10120FCF76AFC0F
:104770003222CDE900620346114901222046FCF7AE
:1047800076FAFCF7D1F80028FBD144F6216002B09C
:10479000BDE87040FDF7C0B802B070BD00600040D9
:1047A0001800002060800200308002002C8D020082
:1047B0003C8D02004E8D02007A8D0200778C020043
:1047C000A28C0200054B1B680D2B01BF044B18681F
:1047D000B0FA80F0400918BF002070473001001087
:1047E0003401001008B5FFF7EDFF40B14FF08043F2
:1047F0000022C3F80C21C3F81021C3F83825FFF7B5
:10480000E1FF002846D04FF080524D4BD2F80414FF
:10481000C3F82015D2F80814C3F82415D2F80C14E4
:10482000C3F82815D2F81014C3F82C15D2F81414B4
:10483000C3F83015D2F81814C3F83415D2F81C1484
:10484000C3F84015D2F82014C3F84415D2F8241444
:10485000C3F84815D2F82814C3F84C15D2F82C1414
:10486000C3F85015D2F83014C3F85415D2F83414E4
:10487000C3F86015D2F83814C3F86415D2F83C14A4
:10488000C3F86815D2F84014C3F86C15D2F8442464
:10489000C3F87025FFF796FF48B14FF08043D3F877
:1048A0000024D20744BF6FF00102C3F80024254A58
:1048B000D2F8883043F47003C2F88830BFF34F8FCA
:1048C000BFF36F8F4FF01023D3F80022002A03DBD1
:1048D000D3F80432002B2FDA1B4B0122C3F8042536
:1048E000D3F80024002AFBD04FF010221221C2F886
:1048F0000012D3F80024002AFBD04FF0102312221C
:10490000C3F80422104B1A46D3F800140029FBD038
:104910000021C3F80415D2F80034002BFBD0BFF3FC
:104920004F8F0849094BCA6802F4E0621343CB6019
:10493000BFF34F8F00BFFDE7054B064A1A6008BD65
:1049400000C0004000ED00E000E001400400FA0576
:10495000B00200200090D0037047000070B50446FC
:1049600010460E460BF079F8012C054628D0022C93
:104970002CD074BB10F5004F01D1012070BD012374
:104980001A4640F2034130460BF058FC4368B3F935
:10499000003013F5004F01D09D421CDB02230122A1
:1049A00040F2034130460BF049FC4368B3F9003054
:1049B00013F5004FE1D09D42CCBF00200120DDE780
:1049C00047F6FF73C01A18BF0120D7E70348281A1B
:1049D000F9E70020D2E72046D0E700BF0180FFFFC3
:1049E00007B500230093054A054B012140F203401F
:1049F0000CF018FE03B05DF804FB00BF5D49000039
:104A000059490000022011F02BBD000030B52C4D9B
:104A10002C4C2B78207085B0EBB12B480022FF2165
:104A200009F07AFE294B002844D11870284B2870D1
:104A30005B88022B0FD9274B27482178274AC01AB9
:104A4000C008274B0004002918BF1A4640F0030095
:104A50002449FCF7EDF824480022FF2109F05CFE10
:104A600010F11C0F054628D0424230B3184B5B882A
:104A7000A3B110460392FCF7E5FA174C039A0346DC
:104A80001448241A4FF45371E4082404019117497F
:104A9000009144F001001649FCF7E9F8FBF744FFE8
:104AA0000028FBD1C5F59C40203005B0BDE8304062
:104AB000FCF732BF01221A70CDE705B030BD00BF50
:104AC000152D00201A2D0020054A0000172D00206A
:104AD000180000203080020060800200EE8D02008D
:104AE00024820200F38D02000D4A0000248E020091
:104AF000A28C02007FB5344B1B78002B61D0334968
:104B00000B78002B5DD0324B1A78D2B100221A708C
:104B1000304B0A705B88022B53D92F4B2F48304AF9
:104B2000C01A304B1978304BC008002918BF1A46FC
:104B300000042E4940F0030004B0BDE87040FCF7CB
:104B400077B82B4D2B78002B3BD12A492A480B787C
:104B500001229A40B2F5617FDCBF01330B70274B15
:104B6000C8BF4FF461725A4300214FF47053B2FB37
:104B7000F3F209F0B1FD0646424200B3154B5B88E3
:104B8000A3B110460392FCF75DFA144C039A034656
:104B90001148241A4FF43B71E40824040191184988
:104BA000009144F001001749FCF761F8FBF7BCFEE7
:104BB0000028FBD1C6F59C402030FCF7ADFE012358
:104BC0002B7004B070BD00BF192D0020152D0020E2
:104BD000172D0020180000203080020060800200A5
:104BE0007F8E02001A2D002024820200F38D020025
:104BF000142D0020182D0020054A000040420F000F
:104C0000248E0200A28C02007FB50FF0E1FB002889
:104C100051D12A4B1B78002B4DD0294A137803F031
:104C2000FF01002B47D1274B274819700378002B31
:104C300041D101210170254813700370244A254891
:104C40001370037043F2DC222348244E09F044FD24
:104C500005464242F8B17388A3B110460392FCF7AF
:104C6000F1F91F4C039A03461E48241A40F21231F0
:104C7000E408240401911C49009144F001001B49FF
:104C8000FBF7F5FFFBF750FE0028FBD1C5F59C4074
:104C90002030FCF741FE7388022B0CD9114B1048D1
:104CA0001349C01AC008000440F0030004B0BDE876
:104CB0007040FBF7B9BF04B070BD00BF192D0020D4
:104CC0001A2D0020142D0020152D0020172D002056
:104CD000162D0020182D00200D4A0000180000207D
:104CE0006080020030800200248E0200A28C02004C
:104CF000848E020007B500BB124B0C22C3F81827A4
:104D00000A22D3F81015013AC1F380110191F8D1AC
:104D1000019B73B90C4B5B88022B09D90B480C4BD8
:104D20000C49C01AC008000440F00300FBF77CFFE8
:104D30000120044B0222C3F8182703B05DF804EBEE
:104D40000AF04CB8000300501800002060800200F8
:104D500030800200A68E02002DE9F84F1C469DF817
:104D600028300746884691466BB1661E002BDFF857
:104D700038B014BF4FF0FF3A4FF0010A002524B9B4
:104D80002846BDE8F88F1E46F0E719F806305A4667
:104D9000A8EB0501781900F0C1FB0028F1DB013C0C
:104DA00005445644E4B2EAE73082020007B5012325
:104DB00000930823FFF7D0FF03B05DF804FB000069
:104DC0002DE9F0418CB004A94FF000080446CDF85D
:104DD00010800FF00FFD0746204605F0A5FB0446A6
:104DE00005460AF011F80646132F00F27782DFE835
:104DF00017F01B0076004A02D90175028D00D80019
:104E00001E019701680275021B00F301750275020D
:104E10001B021400580275021E02AC4EB6F8028046
:104E200074B1B8F1020F01D801246DE0A848A94B74
:104E3000A949C01AC0080004224640F00300ADE0B2
:104E40000D22214608A8049F079400F0D8FBB8F172
:104E5000020F09D99E489F4BA049C01AC008000400
:104E600040F00300FBF7E0FE07F11002112107A854
:104E7000FFF79CFF002803DA994907A800F0F2FB2E
:104E80007388022B0DD907A8FBF714FD904B9549A9
:104E9000024690481B1ADB081B0443F00300FBF793
:104EA000C7FEF86809F05CFFF86809F065FF7388D1
:104EB000022B12D9874B8648FA688B49C01AC00862
:104EC000000440F003000390FBF7B2FE7388022B4E
:104ED00003D986490398FBF7A7FE012446E0844BDB
:104EE00001221A70794B5B88022B09D97848794BDB
:104EF0008049C01AC008000440F00300FBF794FE8C
:104F0000002011F0ADFA044600252FE06F4F7A889B
:104F1000022A09D96E486F4B7749C01AC0080004AD
:104F200040F00300FBF780FE7B885CBB76B1022B70
:104F300009D96748674B7149C01AC008000440F09E
:104F40000300FBF771FEFFF75FFE6DE7022B09D947
:104F50005F48604B6A49C01AC008000440F0030073
:104F6000FBF762FE042011F07BFA04460020FFF7F5
:104F7000C1FD1DB9651E18BF4FF0FF3528460CB0A6
:104F8000BDE8F081002B3FF44FAF5148514B5D49D4
:104F9000C01AC0080004224640F00100FBF748FE9A
:104FA00042E74A4F6CBB0D22214608A8079400F047
:104FB00026FB05A809F00CFF05AA112107A8FFF799
:104FC000F5FE002803DA464907A800F04BFB002055
:104FD000FFF71CFD7B88022B7FF67FAF07A8FBF74E
:104FE00069FC3B4C039001F0D5FB3A4B039A4649D0
:104FF000E41AE4082404438844F00300FBF721FE8C
:105000006BE77B8840B1022B9DD93148314B3F493A
:10501000C01AC008000492E7002B3FF405AF2C48EB
:105020002C4B3B49C01AC00800042246B4E7274F66
:105030007CBB0D22214608A8079400F0E0FA05A8E1
:1050400009F0C6FE05AA112107A8FFF7AFFE002848
:1050500003DA234907A800F005FB7B88022B11D94E
:1050600007A8FBF727FC1A4C039001F093FB194BA0
:10507000039A2849E41AE4082404438844F003000E
:10508000FBF7DFFD002E3FF428AF0020FFF7BEFC4A
:1050900023E77B8870B1022B7FF655AF0C480D4B90
:1050A0001D49C01AC0080004224640F00300FBF767
:1050B000BFFD48E7022B7FF6B7AE0548054B174901
:1050C000C01AC00800042246B7E600BF180000203E
:1050D0006080020030800200CD8E02000D8F020041
:1050E0009C8B0200338F0200458F0200598F020013
:1050F000192D0020868F02009F8F0200C18F0200B1
:10510000D88F0200F08F02001F90020073900200FF
:10511000A6900200A48B0200E69002001791020004
:10512000764E54BB0D22214608A8079400F067FA7A
:1051300005A809F04DFE05AA112107A8FFF736FEC4
:10514000002803DA6E4907A800F08CFA7388022B56
:1051500011D907A8FBF7AEFB6A4C039001F01AFBCC
:10516000694B039A6949E41AE4082404438844F02B
:105170000300FBF766FD0220F5E67388022B0AD9CF
:105180006048614B6249C01AC0080004224640F0E2
:105190000300FBF74DFD5F484122042109F09CFA12
:1051A00005469AE6554B5B885CB9022B7FF6CBAE81
:1051B000554B54485849C01A049BC0081A7900043A
:1051C00073E7002B3FF430AE4E484F4B5349C01AA3
:1051D000C00800042246DFE6049DCDF81C800D22A5
:1051E000002108A800F00BFA2A1D112107A8FFF7DB
:1051F000DDFD002803DA424907A800F033FA3F4BEF
:105200005B88022B7FF610AE07A8FBF753FB3D4CE3
:105210002B7B434902463C48241AE408240444F00A
:105220000300FBF70EFDFFE509F06EFCFCE5049DB5
:10523000CDF81C800D22002108A800F0E0F92A1DFD
:10524000112107A8FFF7B2FD002803DA2C4907A8AF
:1052500000F008FA294B5B88022B7FF6E5ADAA899E
:10526000039207A8FBF726FB264CA97B0091034677
:105270002548039A2B49241AE408240444F0030027
:10528000FBF7E9FCD0E51D4B5B88022B7FF6CCAD2C
:105290001D4B1C482449C01A049BC0089A8800046E
:1052A000CBE5164B5B88012B7FF6BEAD164B154840
:1052B0001E49C01AC008000440F00200FBF7B4FC0D
:1052C000B2E50E4B5B88022B7FF6AEAD0D480E4B60
:1052D0001749C01AC00800042246AEE5074B5B8898
:1052E000022B7FF6A1AD0848064D12492D1AED0894
:1052F0002D0423463A4645F0030092E718000020AB
:105300009C8B0200608002003080020052910200FB
:10531000AD91020061640100D4910200F29102009B
:10532000179202004A92020088920200BD92020087
:10533000D3920200FE9202007F2805D8034B185C2E
:10534000034B5B5C184070470020704738930200A5
:10535000B8930200A0F16103192B98BF2038704761
:10536000A0F14103192B98BF203070477F2805D842
:10537000034B185C034B5B5C184070470020704780
:1053800038930200B8930200A0F16103192B98BF73
:1053900020387047A0F14103192B98BF2030704787
:1053A0007F299ABF017001206FF02E0070475AB11B
:1053B0000A787F2A0AD800B102600021196059607A
:1053C000501A18BF01207047002070476FF02E0060
:1053D000704738B504460846A26842B12368616840
:1053E0005D1C8D4208BF00208B4208D2D054E36878
:1053F0002BB121686268914201D221469847236807
:105400000133236038BD70B54C1E09D41646C5B2B1
:1054100029463046FFF7DDFF013CB4F1FF3FF7D1ED
:1054200070BD10F0100F08D108B510F4007F14BF44
:1054300030202020FFF7E7FF08BD704708B5034B79
:105440005B689B681B68984708BD00BFB4020020DA
:1054500008B50921FFF7F2FF08BD7AB370B414460E
:105460000F2A15D902460B4640EA010515F0030F35
:1054700001D0013C0EE019461046043204330668A0
:105480000D68AE4204D110461946043C042CF2D8F3
:10549000013C0ED00A460346044411461846013327
:1054A000013206780D78AE4203D118461146A34268
:1054B000F3D100780B78C01A70BC70470020704799
:1054C00010B4144688420BD98B1882182CB113F8EB
:1054D000014D02F8014D9942F9D15DF8044B704736
:1054E0008842FAD0002AF8D0431E0C4411F8012B50
:1054F00003F8012FA142F9D1EFE70000054B18682E
:10550000054943F2390201FB00201860C0F30E4048
:10551000704700BFC80200206D4EC6410CB400B5F4
:1055200087B008AA52F8043B05920390002004902B
:105530000291194601A800F0E7F807B05DF804EB06
:1055400002B07047014B1860704700BFC8020020CE
:10555000CAB170B41446012A10D00A46034620444A
:10556000461E1146184613F8014B3CB101320D7826
:10557000A54203D1184611469E42F2D100780B781D
:10558000C01A70BC704700207047037853B159B1FE
:105590000144034613F8012F12B18B42FAD10B4696
:1055A000181A70470346FBE70346F9E7844640EACA
:1055B000010313F0030F18D18446202A0BD32DE9E1
:1055C000F007B1E8F807A0E8F807A2F12002202AC6
:1055D000F7D2BDE8F007042A07D351F8043B40F89E
:1055E000043BA2F10402042AF7D2002A05D011F8E4
:1055F000013B00F8013B013AF9D16046704784460F
:10560000002A2DD010F0030F04D000F8011B013A3E
:1056100026D0F7E7C9B241EA012141EA0141202A37
:1056200012D3A2F120022DE9F0030B460C460D46E1
:105630000E460F4688468946A0E8FA03203AFBD278
:10564000BDE8F00320320BD0042A05D340F8041B38
:10565000043A05D0042AF9D200F8011B013AFBD123
:1056600060467047024610F0030F16D111F0030F89
:1056700013D12DE9F0004FF001374FF0803351F88E
:10568000044BA4EB070525EA04051D4002D142F8AE
:10569000044BF4E7A1F10401F0BC11F8013B02F85E
:1056A000013B002BF9D1704700F1010110F0030F0D
:1056B00011D010F8012B002A23D010F0030F0AD0CC
:1056C00010F8012B002A1CD010F0030F03D010F8A3
:1056D000012B002A15D02DE970004FF001324FF058
:1056E000803350F8044BA4EB020525EA04051D4065
:1056F00000D1F6E7A0F1040070BC10F8012B002ADD
:10570000FBD1A0EB010070472DE9F04F89B00746AF
:105710000392002303600C4614F8011B002900F0DB
:10572000FA82DFF814B5E9E2002507E05E2868D1C7
:1057300045F4805501E045F040051C46234613F82A
:10574000010B3028F2D81F2837D9A0F12002102AE7
:1057500033D801A151F822F037570000BB570000A1
:10576000BB5700009D570000BB570000BB5700000F
:10577000BB570000A3570000BB570000BB570000F9
:10578000BB570000A9570000BB570000AF570000EF
:10579000BB570000BB570000B557000045F080051F
:1057A000CBE745F40045C8E745F02005C5E745F0DF
:1057B0001005C2E745F40075BFE72A2821D1039AF6
:1057C000111D0391D2F800A0BAF1000FBCBFCAF1BD
:1057D000000A45F010051878A31C2AEAEA7A2E2858
:1057E00026D00021742847D07A2845D06C2800F0B4
:1057F000A8804C2800F0AB80682800F0B8801C46D8
:105800003DE0A0F13002D2B2092A88BF4FF0000A71
:10581000E3D84FF0000A0AEB8A0A303800EB4A0A54
:1058200013F8010BA0F13002D2B2092AF3D9D4E760
:1058300018782A280AD1039A111D03911168587803
:1058400002330029CEDB45F48075CBE70133A0F1AC
:105850003002D2B2092A88BF0021F4D8002101EB1E
:105860008101303800EB410113F8010BA0F1300247
:10587000D2B2092AF3D9E4E71C4614F8010B002838
:1058800000F05582A0F12503DBB2532B62D8A0F1C2
:105890002503532B5ED8DFE813F076005D005D0032
:1058A0005D005D005D005D005D005D005D005D0010
:1058B0005D005D005D005D005D005D005D005D0000
:1058C0005D005D005D005D005D005D005D005D00F0
:1058D0005D005D005D005D005D005D005D005D00E0
:1058E0005D005D005D005D005D005D005D005D00D0
:1058F0005D005D005D005D005D005D005D005D00C0
:10590000EB005D005D005D005D005D005D005D0021
:105910005D005D005D007B0020015D005D005D00BD
:105920005D0020015D005D005D005D0095000E01E1
:10593000D1005D005D00A6005D0019015D005D0005
:10594000ED001C4614F8010B45F0010597E745F002
:1059500001051C46B44B1E68002E00F0CC8103AB41
:105960000193009153462A463946B047C3E118785F
:10597000682803D05C1C45F0040580E745F0080565
:105980009C1C58787BE725213846FFF722FDB2E1C1
:10599000039B1A1D03921E780AF1FF3A3A465146BC
:1059A0002846FFF73EFD31463846FFF712FDA9466F
:1059B00019F0100F00F09F813A4651462020FFF762
:1059C00022FD98E115F0080F06D03A68039B191DD7
:1059D00003911B681A708EE1039B1A1D03921B68CA
:1059E0003A681A6087E1039B1A1D0392D3F800807E
:1059F0008E4BB8F1000F08BF9846464625F4007953
:105A000015F4807F15D04046FFF7BFFD0546AAEB91
:105A1000050A3A4651464846FFF703FD002DC7D018
:105A2000454416F8011B3846FFF7D3FCB542F8D1C0
:105A3000BEE74046FFF738FE0546E8E7039B1A1D20
:105A400003921B6815F0800F0CBF0026232645F437
:105A5000807508211A46002B00F0298105AB4FF014
:105A6000000805F4005CA64660468C460146D1E07D
:105A700045F4005515F0800F1BD043F2780643F231
:105A80005803782818BF1E4615F4807F01D025F4EE
:105A9000007515F4804F32D0039B1A1D03921B68CA
:105AA00015F0040F1FD01BB2002B20DA5B422D260D
:105AB0002DE00026E8E715F0800F0CBF0026302609
:105AC00015F4807FE5D025F40075E2E715F4807FBA
:105AD00007D025F400750026DBE745F48045002655
