:1000000000000220750300005D0300005F03000094
:1000100061030000630300006503000000000000AE
:100020000000000000000000000000006703000066
:1000300069030000000000006B0300006D03000076
:1000400009370000B9500200B93B00006F030000FF
:100050006F0300006F0300000D3A00006F03000003
:100060006F0300006F0300006F0300006F030000C8
:100070006F030000CD3C00006F0300006F03000021
:100080006F0300006D2300006F0300006F0300008A
:100090006F0300006F0300006F0300006F03000098
:1000A0006F0300006F030000D53E00006F030000E7
:1000B0006F0300006F03000000000000000000005C
:1000C0006F0300006F0300006F0300006F03000068
:1000D0004D7902006F0300006F0300006F03000002
:1000E0006F0300000000000000000000000000009E
:1000F000000000006F030000000000006F0300001C
:1001000000000000000000000000000000000000EF
:1001100000000000000000000000000000000000DF
:1001200000000000000000000000000000000000CF
:1001300000000000000000000000000000000000BF
:1001400000000000000000000000000000000000AF
:10015000000000000000000000000000000000009F
:10016000000000000000000000000000000000008F
:10017000000000000000000000000000000000007F
:10018000000000000000000000000000000000006F
:10019000000000000000000000000000000000005F
:1001A000000000000000000000000000000000004F
:1001B000000000000000000000000000000000003F
:1001C000000000000000000000000000000000002F
:1001D000000000000000000000000000000000001F
:1001E000000000000000000000000000000000000F
:1001F00000000000000000000000000000000000FF
:10020000354936480A1A02D0072291438D463449AF
:1002100034480A1A06D00722914381F30988022242
:1002200082F3148830483149314A00F044F83148AB
:100230003149324A00F03FF831483249324A00F041
:100240003AF832483249334A00F035F832483349F7
:10025000334A00F030F833483349344A00F02BF881
:1002600033483449344A00F026F8344834490022EF
:1002700000F02CF833483449002200F027F83348C6
:100280003349091A082902DB002202604160314A21
:1002900090471F481F49884205D00268043003B4C4
:1002A000904703BCF7E700208646EC46002000217B
:1002B000294A9047FEE7884207D0521A05D00378B2
:1002C00001300B700131013AF9D17047884202D0F8
:1002D00002700130FAE770470000022000E00120C0
:1002E000000002200000022070A60200D4000020BE
:1002F0000C040020D0030000D0030000F27E0200B6
:1003000070A60200D4000020D4000020C8800200A3
:10031000C8800200C8800200C8800200C8800200B5
:10032000C8800200C8800200C88002006FA60200D8
:10033000A8A902000C0400200C0400200C040020DA
:10034000264A0020284A0020284A0020284A002067
:10035000286A00209D030000154C0000FEE7FEE720
:10036000FEE7FEE7FEE7FEE7FEE7FEE7FEE7FEE765
:1003700000F002B8FFF7FCBF0F484FF007018843B9
:1003800085460E4880470E48016841F470010160BF
:10039000BFF34F8FBFF36F8FFFF732BF09480A4992
:1003A0000A4A884207D0521A05D0037801300B70F0
:1003B0000131013AF9D170470000022021510000BB
:1003C00088ED00E0F47F020000000020D40000204F
:1003D000F0B595B01C46164608460D4602F054FD91
:1003E0001A9B0D93CDE9086400242346082205A931
:1003F00028460A948DF82C400C9402F062FD079B6D
:100400000293069B03939DF814308DF8114003F07E
:100410000302012A1DD1BDF81440059EC3F3C20397
:10042000C4F383148DF81030A20008230EA92846C7
:1004300002F047FDC6F3952608AB0093224602ABB7
:100440000EA9304600F01CFD284602F021FD15B033
:10045000F0BD022AF8D1BDF81640C3F3C203A409C7
:100460008DF810300827082C264628BF08263B4662
:1004700032460EA9284602F024FDA41B08AB02AAAE
:1004800031460EA8374400F05FFD002CEBD1DBE7CE
:10049000014B01221A7070474D0400207047000084
:1004A00070B50F4D06460FCD88B06C460FC495E869
:1004B0000F00002E84E80F004FF006030093094A56
:1004C00009484FF0805308BF00226946069303F0A5
:1004D00001F808B101F02EFC044B1E7008B070BD8D
:1004E000C880020091040000D40000200C04002009
:1004F00007B5044B0093044A4023FFF769FF03B09C
:100500005DF804FB0D0500000D04002038B50D4B0F
:100510000D4D002018700D4804782D5DD2B21C4698
:1005200065B1043004F064F908B101F003FC084B34
:100530001A7812B12378002BFBD038BD0C3003F0B1
:100540000BFFF1E74D040020980C0020D4000020A0
:100550000C04002008B50848084A0378D35C3BB176
:10056000043004F0DDF80020BDE80840FFF798BF34
:100570000C3003F09BFEF6E7D4000020980C00201E
:100580000120FFF78DBF000008B5FFF7F9FF042138
:10059000034800F0DBFB034B01225A7108BD00BF8A
:1005A000CC7F0200E8000020037813F0040216D08C
:1005B00003F00303012B03D0022B09D00120704765
:1005C0000A6800880232C0F3831002440A60F5E72B
:1005D0000B684288023303EB92130B60EEE7104680
:1005E000704700002DE9F04F044685B0851C0020BF
:1005F0000F46904601F074FD454806683E60D0E91C
:100600000132134401339B1B824600F21C4600F565
:10061000836900F21447AB421AD30022B8F1000FED
:100620006FD0052363F3070264F38912DAF8001030
:10063000DAF808300B4003330D444AF82320002039
:10064000CAF8005001F04EFD012005B0BDE8F08F62
:100650000121304601F05FFF484601F075FF384642
:1006600001F072FFDAF80400DAF808B0009000EA4E
:100670000B0003300AEB80006946FFF795FF009BF3
:1006800050BB0BEA03020AEB820203F1020CD268B0
:100690000192013303EA0B0B0AEB8B0B02F003020E
:1006A000012ACDF800C0DBF80C1022D0022A16D0A7
:1006B0008346384601F04BFF10B1009BCAF8043066
:1006C0005946304601F027FFDAE901231344DAF8EE
:1006D000002001339B1A9EE70BEA0300C9E7BDF82F
:1006E00006309B0903334FEA114B0CEB9303009345
:1006F000DFE7BDF80430C3F383134FEA114B6344C3
:10070000F5E7062363F3070264F39F528EE700BF09
:100710002005002030B50A4B0A4A0B49D21AD208EC
:1007200000239A4201D1052006E031F823500468E5
:10073000A54202D10360002030BD0133F1E700BFC4
:100740000C7F0200CC7F0200000000202DE9F84F52
:10075000224B2348FF229A600022C3F81824C3E9E1
:100760000022C3F8142483F8202402F046FB8146BB
:1007700088B91C481C4E1D4CDFF87CA002F0ADFC73
:10078000A41BE4084D46A54208D10023184A194885
:100790001946A3421BD14846BDE8F88F4FF0000828
:1007A000474606EBC50BBD420AD0142256F8371057
:1007B000DBF8000005F040FA0028C8BF08F1010886
:1007C0000137BC42EFD12AF825800135DBE720F85C
:1007D000231042F8041B0133DBE700BF2005002093
:1007E000DC7F0200088102000C7F0200CC7F020047
:1007F00060000020020000200000002007B50190EA
:1008000031B9019A064B53F8320003B05DF804FB8E
:1008100001A8FFF77FFF0028F3D00020F5E700BF15
:100820000C7F0200094B013903EBC000032909D8F2
:10083000DFE801F00A0204060420704700797047DF
:100840004079704700207047022070470C7F0200FB
:1008500030B5114C00EB400054F821508240072382
:1008600083406A401A400D4B6A40C2F3821044F83C
:10087000212003EB8101C2F3C203834238BF034648
:10088000C2F34220834202F0070238BF03469A4275
:1008900038BF1A464A8030BD6000002000000020AA
:1008A000154B93F8203437B504460BB918B900241A
:1008B000204603B030BD05F06EFA013000900123F0
:1008C0006A4601A90D4802F011FC05460028EED148
:1008D0002146009A019805F0E0F9DDE90023134470
:1008E000064803F8015C009902F03AFC00990348BD
:1008F00002F04DFC019CDBE720050020088102008E
:10090000034BD3E90030C31A58425841704700BF27
:10091000200500202DE9F04F85B0FFF7F1FF0646D6
:10092000002840F016818C4DC5F81804BFF34F8F96
:100930006868AC6800902040033005EB8000694691
:10094000FFF732FE009B18B1D5F81824002A66D0B4
:1009500004EA0302991C013305EB8202234005EBF4
:100960008303D268DB68029302F00303022B019237
:10097000009169D1BDF8063078489DF804604FEACF
:10098000931ABAF1500FD14628BF4FF0500969F3BE
:100990008F1309F10801ADF8063002F046FAC6F3EC
:1009A000C2068046002800F0BB8002F06DFA01A963
:1009B00000230822404602F07AFA009924EA01074F
:1009C0000137BF00B94538D95FFA89F997B3FFB24B
:1009D000A9EB0709214003315FFA89FBB946604F53
:1009E00005EB810108234A46404602F060FA37B120
:1009F00009F108035A463946404602F058FA009B6E
:100A00000AF1030A03EB9A030093D5F81834002B7C
:100A100050D1D5F81044DFF85C9107276FE02A68C1
:100A20009A4204D86A60304605B0BDE8F08F04EA07
:100A3000030081E74A49BB46D4E72140033108233C
:100A40004A4605EB8101D7E7012B69D1BDF8046067
:100A50004248C6F38311062928BF062161F389168F
:100A600002318900ADF8046002F0DFF9C6F3C20676
:100A70008046002854D002F007FA0023082201A97A
:100A8000404602F014FA0027BDF80420C2F3831296
:100A9000BB00974203F10803B7D200994A1C2140DA
:100AA0000331009205EB81010422404602F0FFF978
:100AB0000137E9E7404602F0EBF9FFF721FF80F04C
:100AC0000100C6B2AFE7E3685A79B2B11B79BDF84D
:100AD000081003EB430259F8211007FA02F3052E20
:100AE00003EA010323FA02F308BF0326B34204D347
:100AF000236841461B6820469847E3681C68002C21
:100B0000E1D1404602F0C4F9204601F0E9FAD5F8F7
:100B100018340BB9009B6B60002001F0E3FACCE7BE
:100B2000D5F8104474B90F4B5B88012BC5D90E4B17
:100B30000E480F49C01AC008000440F0020000F03F
:100B400073F8BAE7236820469B689847E3681C68F7
:100B5000E8E7002667E700BF20050020DC7F0200F1
:100B60002C0500201C0000200C7F0200447F0200A6
:100B700014810200600000202DE9F74F284C8046C8
:100B80000F46924601A9012218469B46D4F80890C8
:100B9000FFF728FD80B3019D0026A91C5E4506EBEA
:100BA000010233D100211F4801F07FFC80F31000C7
:100BB0006A1C02EA090204EB8202000405EA090346
:100BC000033340EA1840D06014F8232068F3C502CC
:100BD00004F8232034F8232066F3891224F8232014
:100BE00054F8232067F39F2244F8232002F0F802F0
:100BF00042F0010204F8232094F820341BB1FFF7DF
:100C000089FE0028FBD103B0BDE8F08F09EA02029B
:100C100004EB82025AF82630D3600136BEE700BFEB
:100C2000200500203C09002000231A46FFF7A4BF3E
:100C300007B50123019201AAFFF79EFF03B05DF8FB
:100C400004FB07B5CDE9002302236A46FFF794FFB2
:100C500003B05DF804FB1FB5CDE90123069B0393A8
:100C600001AA0323FFF788FF05B05DF804FB1FB559
:100C7000CDE90023069B0293079B03936A46042356
:100C8000FFF77AFF05B05DF804FB00002DE9F3479C
:100C900080462C4CD01C8A46174601A900228008A9
:100CA000A568FFF79FFCC8B3DDF80490A66809F1BA
:100CB0000200019001362840361AB6000330B742D0
:100CC00004EB800034D83A46514604F0E6FF002198
:100CD0001D4801F0EAFB80F3100009F101032B40ED
:100CE00004EB83034FEA184242EA0042DA6005EA65
:100CF0000903033304EB830214F8231068F3C501DE
:100D000004F82310518867F38F11518034F82320A1
:100D100002F0380242F0020224F8232094F8203432
:100D20001BB1FFF7F7FD0028FBD102B0BDE8F0874B
:100D30003246514604F0B1FFBA1B0AEB060104F13A
:100D40000C00C2E7200500203C0900201C4A2DE9C8
:100D5000F843D2F81034074688460024194689B96A
:100D6000F9680C71A3B9C2F810740B60154B164DDD
:100D7000ED1AED08002603F10709AE420DD1204619
:100D8000BDE8F883C9680879A04212D00968E6E78F
:100D9000DB681A680A601F60E8E719F83620FB680C
:100DA0004245314628BF42461879FFF751FD0136CA
:100DB000E3E701340A2CD1D14FF0FF34DFE700BF65
:100DC000200500200C7F0200CC7F0200037A052B57
:100DD00010B50C460FD0437A23B1084A0849204683
:100DE00001F012FC0749204601F00EFC2046BDE848
:100DF000104001F0FEBB002AF8D0F3E76F8102003B
:100E00007481020094810200C38873B504460D46C4
:100E100033B1144A00921449144A284601F0F4FBF5
:100E2000217A05291CD0637A4BB1A088FFF7FAFC20
:100E30000F4B104953F82020284601F0E5FB227A99
:100E40000D4BA08853F822600021FFF7D7FC0B4917
:100E500003463246284602B0BDE8704001F0D4BBDC
:100E600002B070BD6F8102007F81020077810200B5
:100E70003C81020074810200A4810200978102007B
:100E80002DE9F04385B01F460C9D002306460C4615
:100E9000904695F80C902B7329463846FFF7B4FF1F
:100EA000B8F1060F09D8DFE808F00412181F28333C
:100EB00040003146284601F0A7FB0022294638466B
:100EC000FFF784FF85F80C9005B0BDE8F083226839
:100ED0003146284601F098FBEFE7D4E9002331467C
:100EE000284601F091FBE8E7A36800933146D4E976
:100EF0000023284601F088FBDFE7E3680193A3683D
:100F000000933146D4E90023284601F07DFBD4E765
:100F100023690293E3680193A36800933146D4E9FF
:100F20000023284601F070FBC7E763690393236938
:100F30000293E3680193A36800933146D4E9002348
:100F4000284601F061FBB8E708292DE9F84F8046F3
:100F50000E4617461C463AD8002593F80C901D7390
:100F600019461046FFF750FFDFF884A0DFF884B081
:100F7000AE422ED918F805205946204601F044FB10
:100F80000135082DF4D11849DFF86CB0204601F086
:100F90003BFB4FF0000A564520D918F80A507E2D29
:100FA00003D8284604F0C0FD00B92E252A4659462C
:100FB000204601F029FB0AF1010ABAF1080FEAD133
:100FC000012221463846FFF701FF84F80C90BDE866
:100FD000F88F5146204601F017FBD1E70349204620
:100FE00001F012FBE7E700BF6A810200688102009E
:100FF00066810200608102006C810200074B1B5C6D
:101000001F2B8ABF064A4FF0A04203F01F03D2F8FD
:101010000405D840C04300F0010070470982020077
:1010200000030050074B1B5C1F2B86BF03F01F0300
:1010300005494FF0A041012202FA03F3C1F80C3533
:10104000704700BF0982020000030050074B1B5C81
:101050001F2B86BF03F01F0305494FF0A04101225B
:1010600002FA03F3C1F80835704700BF0982020095
:101070000003005008B50020FFF7E8FF0120FFF74C
:10108000E5FF0220FFF7E2FF0320BDE80840FFF77D
:10109000DDBF08B50020FFF7C5FF0120FFF7C2FF45
:1010A0000220FFF7BFFF0320BDE80840FFF7BABFEB
:1010B0000A4B185C1F288ABF094B4FF0A04300F071
:1010C0001F00D3F804250121814021EA02000A40D3
:1010D000C3F80805C3F80C25704700BF0982020059
:1010E000000300500B2809D00C2809D0182809D07B
:1010F00019280CBF03204FF0FF30704700207047C5
:101100000120704702207047C20710B504460CD575
:101110004FF0A0430322C3F83427C3F83827C3F89D
:101120003C27C3F84027FFF7A5FFA3070AD54FF0D8
:10113000A0430C22C3F82C27C3F83027C3F860273C
:10114000C3F8642710BD000010B50D49A1F5BC72AD
:10115000914201D800200FE08B1ADB1003EBD37310
:101160005B1002EBC30452F83330834205DC02DA31
:1011700004F10802ECE7606810BD2146E8E700BF13
:10118000A086020008B5FFF7DFFF024B002808BF6A
:10119000184608BD0D82020007B5002301938DF8A3
:1011A00003300DF1030002F049F99DF80330032BE1
:1011B000F7D904210DEB010002F04AF918B90198A2
:1011C00003B05DF804FB0020FAE708B500F0A0FAD0
:1011D00000F08AF8002002F001F920B1852802D041
:1011E00000F0D8F8FCE7FFF7D7FF04F01FFD02F08E
:1011F000ADF910B900F0CEF8FCE708BD01F06CBE07
:1012000008B500F0C7F8FCE762B6704772B67047E1
:10121000FFF7C2BF00F0C2BA38B50D4614465AB146
:1012200051B148B102F0D6F92946204602F0A8F99A
:1012300010B900F0AFF8FCE738BDEFF305800030DF
:1012400018BF0120704700004FF0805307B51A6E99
:10125000596E064B02F0FF021343CDE9001308223A
:10126000694604F01AFD03B05DF804FB0036CEF4C5
:1012700000487047DC090020704701F043BE70470A
:1012800008B502F0CBF80748074A0378D35C23B1CE
:101290000430BDE8084003F043BA0C30BDE8084014
:1012A00003F004B8D4000020980C002008B50020FA
:1012B00002F094F810B100F06DF8FCE7BDE80840CA
:1012C000FFF75EB910B5044658B1FFF7D9FF2046C5
:1012D00000F080FA01F016FE00F09AFA0446FFF7DB
:1012E000E5FF204610BD000008B50AF023FA48B912
:1012F000054B1A78054B1B78134303D0BDE8084013
:101300000AF01EBA08BD00BF9D030020A003002004
:101310002DE9F84307460E460AF00CFA58B1184C6E
:10132000184BDFF86890DFF86880E41AE4082404BA
:1013300044F003040EB9BDE8F883D9F80000C0F109
:101340000805B542A8BF35462A463946404404F050
:10135000A4FCD9F800202A44082AC9F800202F4408
:10136000A6EB0506E6D1084B5B88022B03D9414664
:101370002046FFF78BFC0023C9F80030DAE700BFF6
:10138000C47F02000C7F02005C000020280A0020BD
:10139000200A002010B50C4C226882B10B4B5B88F0
:1013A000022B0AD90A480B4B0B49C01AC00800048B
:1013B00092B240F00300FFF769FC00232360BDE810
:1013C0001040FFF7A7BA00BF280A00205C000020E9
:1013D000C47F02000C7F0200200A00200378022B49
:1013E00001D80AF0BBB970474FF0102358694FF08D
:1013F0008053411C1A695B6908BF03FB02F0A0F52A
:10140000A04070474FF010234FF080525B69116984
:101410005269581C10B50B4C08BF02FB01F3236145
:10142000FFF7E2FF084BE06000220849C3F80821FB
:10143000204601F0A3FA18B1BDE81040FFF7E0BE66
:1014400010BD00BFC00000202C0A002054890200FB
:101450004FF4005070470220704708B513460A4603
:1014600031B143B10146184604F017FC002008BD15
:101470006FF00A00FBE76FF00B00F8E70128F8B502
:1014800007460C4616461D4610D80B44B3F5005FC0
:101490000FD28AB19DB1FFF7A7FF04EB473101449A
:1014A0002A46304604F0F9FB0020F8BD6FF0380002
:1014B000FBE76FF01600F8E76FF00B00F5E76FF051
:1014C0000C00F2E70128F7B507460C4616461D4604
:1014D00024D80B44B3F5005F23D22AB3AB0826D03F
:1014E000FFF782FF04EB473404440AF03FF9074654
:1014F0000028FAD10AF02AF9214600972B463246F5
:101500000C4801F077FA04460AF030F90028FBD1C4
:10151000201C18BF0120404203B0F0BD6FF038001E
:10152000FAE76FF01600F7E76FF00B00F4E76FF0E3
:101530000C00F1E7C000002001282DE9F04106462B
:1015400024D8FFF751FFDFF8508000EB463505F552
:1015500000570AF00BF904460028FAD10AF0F6F811
:10156000234601222946404601F004FB88B90AF0CF
:10157000FDF804460028FAD105F58055AF42E8D1C0
:1015800030460AF0FBF82046BDE8F0816FF03800E5
:10159000FAE74FF0FF30F7E7C000002010B5084C25
:1015A000D4F8083153B19BB22246D4F8041194F810
:1015B0000001FFF787FF0023C4F8083110BD00BF0A
:1015C0002C0A00202DE9F8431C4C1E46D4F80831A3
:1015D00081460F4690466BB194F80021824207D1B4
:1015E000D4F804211A44914202D1B3F5807F01D18D
:1015F000FFF7D4FFD4F8080118B984F80091C4F8B3
:101600000471C0F58075B54234BFADB235464DB1F9
:101610002A464146204404F040FBD4F808312B44CC
:10162000C4F80831761BB6B216B93046BDE8F88367
:10163000FFF7B4FF2F44A844DCE700BF2C0A0020CA
:1016400007B50C4B18680090FFF7CEFE042200F59A
:1016500080410DEB020004F020FB042269460DEBF3
:10166000020004F066FAB0FA80F0400903B05DF8B9
:1016700004FB00BFA686020038B505460C46FFF7FE
:10168000B3FE00F580402A4621460430BDE83840CC
:10169000FFF7E3BE70B506460D461446FFF7A4FEFD
:1016A00004F580440434324629462044BDE87040A5
:1016B000FFF7D3BE00487047AC8602000249002203
:1016C000C0E90012704700BF040003067047B0F580
:1016D000A27F01D10AF054B87047000010B5084C41
:1016E000FFF794FD2378012B05D1FFF7E3FF02F00C
:1016F00085FB00232370BDE81040FFF785BD00BFC8
:10170000500B0020014B1878704700BF500B002091
:101710001FB502A8FFF7D2FFFFF7CCFF104A02A9BE
:1017200002F0EAFA08B1FFF76BFDFFF7C3FF0368A9
:10173000D3F81045FFF7BEFFE2B24FF47031012439
:1017400021FA02F202232146009402F0ADFBFFF7DA
:10175000B1FF02F039FB034B1C7004B010BD00BF99
:10176000CF160000500B002008B5FFF74FFD0A4BC5
:101770001B782BB9FFF7CCFFBDE80840FFF744BD4D
:10178000FFF798FF02F060FB0028F5D1FFF792FF0A
:1017900002F01AFBF0E700BF500B002038B5FFF74E
:1017A00035FD0B4B1B78012B0FD1FFF783FF022177
:1017B00002F056FB04460DF08FFD0546FFF724FDB1
:1017C0004FF4705000FB054038BD0024F3E700BF24
:1017D000500B002010B5044626F060FA094B186043
:1017E00074B1094B094A18604FF47A7060430021C4
:1017F0005860BDE8104018469A60D96026F05ABA81
:1018000010BD00BF380B00203C0B0020CD1600009F
:1018100008B526F043FA054B1B68C3F5797303330B
:1018200018444FF47A73B0FBF3F008BD380B002076
:1018300030B50F4D8BB022F067F90FCD01AC0FC45E
:101840000FCD0FC42B68236001A824F0BFFEFFF763
:1018500013FD012022F0CAF922F07CF9032801D1FE
:1018600022F084F9012022F0C3F90BB030BD00BF93
:10187000B486020022F044B907B5ADF806000DF1B8
:10188000060022F03BF903B05DF804FB07B5ADF8A4
:1018900006000DF1060022F035F903B05DF804FBF7
:1018A00010B54FF470544443204622F07CF90028D0
:1018B000FAD010BD22F00CB922F019B910B50446C7
:1018C00022F017F9207010BD003018BF012022F05F
:1018D0008DB9003018BF012022F086B908B922F076
:1018E00048B922F04EB908B522F034F9C31E584267
:1018F000584108BD08B522F02DF9023818BF012063
:1019000008BD10B50446012C104604D0042C05D0A7
:101910000024204610BD22F06DF9FAE70021BDE851
:10192000104022F034B910B50C46FFF7A1FC036A51
:10193000013303622046BDE8104005F037B822F0BD
:1019400037B910B50C46072942D8DFE801F0041773
:101950001D23292F353BFFF78BFC436A013343627C
:10196000012000FA04F414F0DA0F03D114F0240F6C
:101970002ED00420BDE8104005F052B8FFF778FCE7
:10198000836A01338362EBE7FFF772FCC36A0133BA
:10199000C362E5E7FFF76CFC036B01330363DFE72A
:1019A000FFF766FC436B01334363D9E7FFF760FC45
:1019B000836B01338363D3E7FFF75AFCC36B0133B7
:1019C000C363CDE7FFF754FC036C01330364C7E73F
:1019D00010BD2DE9F04105460E4617469846FFF723
:1019E00047FC04680134046043463A4631462846C1
:1019F000BDE8F04105F038B808B506280AD8DFE898
:101A000000F0040D13191F252B00FFF731FC43686C
:101A100001334360134B00221A6008BDFFF728FC16
:101A2000836801338360F5E7FFF722FCC368013365
:101A3000C360EFE7FFF71CFC036901330361E9E7CB
:101A4000FFF716FC436901334361E3E7FFF710FC3E
:101A5000836901338361DDE7FFF70AFCC369013362
:101A6000C361D7E7783E0020C30710B507D4F02341
:101A70004008054A145C23401943115410BD090164
:101A8000C9B20F23F4E700BF600B002030B5094B4B
:101A90001C78094B196800239C4202DC0022104686
:101AA00030BD11F83350854201EBC302F7D001334A
:101AB000F2E700BF510B0020800B002070B50446F8
:101AC0000D46FFF7E3FF30B1436823B129462046B6
:101AD000BDE87040184770BD034B044819680022E8
:101AE000490800F0F6B900BF540B0020F0000020B8
:101AF00010B5C0B2FFF7CAFF0446007801F078FFC6
:101B000063785A1E53425341834208D1044BD3E9B0
:101B10000023134303D1BDE81040FFF7DDBF10BD24
:101B2000580B002038B5344A43080446D35CC2073A
:101B30004CBF1B0903F00F030D46042B5BD8DFE8F5
:101B400003F003232B373A00002954D00121FFF77B
:101B50008BFF002000F0C4FA0122A4F12003C4F19D
:101B60002000264902FA03F322FA00F0034302FAA6
:101B700004F4D1E9002014430343C1E900430020E9
:101B8000BDE8384000F0AEBA002918BF0221204657
:101B9000BDE83840FFF768BF41B10321FFF764FF9C
:101BA00020460121BDE83840FFF788BF0121EEE75C
:101BB00009BB0421EBE709B10321E8E7FFF754FF74
:101BC00029462046FFF77AFF284600F089FA0122CD
:101BD000A4F12003C4F12000084902FA03F322FA19
:101BE00000F0034302FA04F4D1E9002022EA0404DD
:101BF00020EA0303C1E738BD600B0020580B00202A
:101C00002DE9F041124E134F00243378A34208DC33
:101C1000114BD3E90023134318D0BDE8F041FFF77F
:101C20005BBF3D6805EBC40815F8340001F0E0FE29
:101C300098F801104B1E594259410A1A514215F8A1
:101C400034005141FFF76EFF0134DEE7BDE8F0815B
:101C5000510B0020800B0020580B0020092AF7B5FB
:101C600005460C4616463DD901F0F2FDD8B11E4B93
:101C70001E481D601E4B1F4F1C701F4B0021202251
:101C80001E6004F033F81D4B00200021C3E9000161
:101C9000013CE4B20326FF2C0BD1194A194800215C
:101CA00000F00CF903E001F09BFD0028DFD003B049
:101CB000F0BD20B29DF806308DF8046005EBC0023F
:101CC00023F007038DF8063001A9937815F830004A
:101CD0008DF805303A4601F0C5FD013CE4B200281C
:101CE000D9D0E4E70720E2E7800B0020600B00205A
:101CF000510B0020F11A0000540B0020580B00205B
:101D0000011C0000D886020070B5084D084E002462
:101D10002B789C4201D3002070BD3368012113F859
:101D2000340001F01BFE0134F2E700BF510B00202C
:101D3000800B00201FB50021039001AA44F201008E
:101D4000CDE90111FFF79BFA05B05DF804FBD0E97E
:101D50000223D1E90201994208BF90422CBF012021
:101D6000002070472DE900480C4800F0EAFA0C4BBF
:101D7000D3E9002312EB000B43F1000C094BD3E92C
:101D800000239C4508BF93455846614603D21BF18A
:101D900080704CF10001BDE8008800BF2C010020DC
:101DA000880B0020F00B002037B505460C460A488A
:101DB00001A900F005FB60B10570446001A9064867
:101DC00000F028FB18B1054800F0C0FA002003B06D
:101DD00030BD0420FBE700BF180100202C010020CB
:101DE0001B4B1B782DE9304804461BB900252846BB
:101DF000BDE830880028F9D090F8203003F0FF05C6
:101E0000002BF3D0FFF7AEFFD4E90223994208BFBD
:101E1000904217D323690BB984F82030D4E90530F8
:101E2000984721690029E1D094F8203003F0FF059C
:101E3000002BDBD0D4E9022312EB010B43F1000CA1
:101E4000C4E902BC2146034801F0BCF9CFE700BF5A
:101E5000900B00201087020013B5114B1149186830
:101E6000019008235822104800F097FA044698B9C8
:101E70000E4A0F4801A900F047F9044660B9012154
:101E80000B4800F041FA01230A4A0948194600F0BC
:101E9000A7F9094B01221A70204602B010BD00BFFD
:101EA0000C870200940B002018010020211F000065
:101EB0002C010020FFFF7F00900B00203AB1036847
:101EC0005A614A1E51425141196100207047072052
:101ED000704738B590F8203004460D4683B98261CA
:101EE000FFF740FF421941F10003C4E902232369CF
:101EF00003B1256121460020BDE83840FFF754BFFB
:101F0000002038BD0023014680F820300120FFF773
:101F10004BBF0000014800F014BA00BF2C010020A4
:101F20002DE9F04F85B0074600F0F6F940B15B4A65
:101F3000D2E9003113F1807341F10001C2E90031AF
:101F40000021384600F0F7F938B1554C236823B129
:101F50002068FFF745FF002323600121384600F089
:101F6000EAF920B1FFF7FEFE4E4BC3E9000103A9D9
:101F70004D484B4D4D4C4E4E00F05CFA002846D17A
:101F8000DFF828A1464CDFF830B1504601F030F9B7
:101F90002368002878D083B12368D0E90201D3E90F
:101FA0000223994208BF90422ED2236893F8203032
:101FB0001BB12168504601F005F9504601F012F9B5
:101FC000D0E9026305460193FFF7CCFE019BB6EB17
:101FD000000863EB0109B8F1010F79F1000346DB5A
:101FE000344EB04541D9FFF795FF82194FF496035F
:101FF0000021584600F014F9002840D1236813B995
:10200000384600F0E5F8256005B0BDE8F08F0378AC
:10201000012B1FD05BB1022B13D14FF0000A2046D9
:1020200001F0E0F8002835D080F820A0F7E74168FB
:1020300091F820302BB9012381F82030204601F09F
:10204000C1F803A9184800F020FA03A9164800F0C7
:10205000F1F993E741682B68994202D100232B6084
:10206000EFE7204601F0C7F8EBE7AA68BEE70021DA
:10207000584600F056F92846FFF7B2FE01E00D2859
:10208000F9D00023236080E7002BBDD1384600F053
:10209000A3F8B9E701233370D3E700BF880B002012
:1020A000F80B0020F00B0020180100201087020020
:1020B000900B0020FFFFB4002C01002072B6024AF2
:1020C0001368013313607047FC0B0020034A136848
:1020D000013B136003B962B6704700BFFC0B0020E0
:1020E000FFF7ECBFFFF7F2BF90B200F049B94358D9
:1020F00082B03BB10023435043580193019B012020
:1021000002B070471846FBE7F8B5284B4679284CD3
:1021100043F82620274BF5005F8863191B796BB1C4
:10212000012F09D92448254B2549C01AC0080004AD
:1021300040F00200FEF778FD0820F8BD03680A8829
:10214000C3F8082590F904308978002BA8BF03F163
:10215000604CDAB2BABF02F00F0EDFF86CC00CF5BB
:10216000614C4FEA4111C9B2B4BF0CF80E108CF8A3
:1021700000135B09012102F01F02DFF850C0254463
:1021800001FA02F2022F4CF82320297144F836009C
:1021900009D90948094B0B49C01AC008000440F08E
:1021A0000300FEF741FD0020C7E700BF080C002038
:1021B000000C002024000020547F02000C7F02004D
:1021C000368702005887020014ED00E000E100E0CD
:1021D000036801221A607047036801225A60704741
:1021E00073B501F15005AD000068ADB24FF4803415
:1021F0008C400026C0F80843C0F84843465101F51A
:10220000A8714559019522F07F42019D40F8212097
:10221000C0F844430BB1C0F8044302B070BD0000E5
:102220002DE9F74F884699464FF48036036808F148
:1022300050058E404FEA880AAD00C3F84863ADB23E
:10224000C3F80863074603EB0A00D3F804154FF000
:10225000000B22F07F44D0F84025C0F8401543F829
:1022600005B05B590093009B531A23F07F43012B69
:102270000BD1244B4FF4806043F0010398473B6837
:1022800043F805B05B590193019B3868D0F80455B9
:10229000C0F84463631B23F07F43012B1AD108F578
:1022A000A878184B013440F8284043F001034FF45C
:1022B000806098473B68D3F804359D4208D13B685D
:1022C0000020C3F84463C3F8046303B0BDE8F08F93
:1022D0000D20FAE78244C9F1FF19CAF84045D0F849
:1022E0000435E21A013A22F07F4209F57F4991450F
:1022F000EED3002AE3D10134CAF84045D0F80425D2
:102300009342DBE73087020003680222C3F84423CC
:1023100009B1C3F8042370474FF482710068FFF7D6
:10232000E6BE4FF4803303FA01F10368C3F84813A3
:10233000C3F8081370475031890089B20068FFF76D
:10234000D6BE0368D3F804057047000090F9043046
:1023500001215A0903F01F0301FA03F34032024935
:1023600041F82230704700BF00E100E0024B034A11
:102370001B681068184700BF080C0020000C0020E4
:1023800007B5ADF8000001916A46002144F2020051
:10239000FEF775FF03B05DF804FB10B561B1B2FB49
:1023A000F3F403FB1424A4B244B9C0E9001484601C
:1023B0008281C381204610BD0E20FCE70920FAE788
:1023C00037B550E8013F9DB2C48925448489A542B0
:1023D00028BF2D1B0489A54202BFBFF32F8F002207
:1023E00007E0C5EA030540E80154002CE9D14FF0AD
:1023F00001028DF803200193019B9DF803200B60DF
:1024000002F0FF0322B10B880068184403B030BD0E
:102410001846FBE70A884B889A4209D150E8012FF9
:10242000C2EA024240E80123002BF7D101207047A5
:102430000020704737B550E8023F1FFAA3F5C48863
:10244000A54202BFBFF32F8F00220DE0C4892544AF
:102450008489A54228BF2D1BC3EA054540E80254E4
:10246000002CE8D14FF001028DF803200193019B6D
:102470009DF803200B6002F0FF0322B14B88006837
:10248000184403B030BD1846FBE70A884B889A42CF
:1024900009D150E8022FC2EA224240E80223002B71
:1024A000F7D1012070470020704750E8002F0B46FD
:1024B00040E8003C9CF0000FF7D11046704750E810
:1024C000002F42EA010340E8003C9CF0000FF6D1E7
:1024D0001046704750E8003F43EA010240E8002CF4
:1024E0009CF0000FF6D11046704750E8002F02EA2A
:1024F000010340E8003C9CF0000FF6D11046704705
:1025000050E8003F03EA010240E8002C9CF0000F75
:10251000F6D11046704750E8003F03EB010240E857
:10252000002C9CF0000FF6D11046704750E8003F99
:10253000A3EB010240E8002C9CF0000FF6D11046FE
:1025400070470121FFF7BBBF0121FFF7C3BF002187
:10255000FFF7CBBF0021FFF7D3BF10B590B1D0E993
:10256000012301689B1ADBB20A60013BDBB2FF2B3F
:10257000026802D10020107110BD11684C1C14605B
:102580000B70F2E70E20F7E738B504460020FFF79E
:10259000A7FD226863681168994213D9481E10602C
:1025A00011F8015CE368A18A01FB0535A368117984
:1025B0001B1ADBB2994200D213710020FFF792FD83
:1025C000284638BD0025F8E738B5054600200C46FA
:1025D000FFF786FD2A681368591C1160E968641AC0
:1025E000A98AB4FBF1F41C700020BDE83840FFF765
:1025F00079BD826810B504462AB143690168006953
:1026000098470023A36010BD0EB403B5039921B110
:1026100004AB01AA019300F075F802B05DF804EB79
:1026200003B070470A2938B504460D4602D10D2182
:10263000FFF7F8FFA3682268591CA160D554D4E9BC
:1026400001329A4204D32046BDE83840FFF7D1BF9B
:1026500038BD00002DE9F84F9946DDE90A431746D9
:10266000824688460A460126BA420FD24E4538BFF6
:102670004E4613F0010B01D164B900240125B9F1D4
:10268000010F1AD909F1FF397D43F8E7B2FBF7F2E0
:102690000136E9E79B070ED5B9F1000F0CBF3025D5
:1026A0002025A642EAD2013C29465046FFF7BAFF50
:1026B000002CF6D1E1E72025F3E7B8FBF5F39F42C4
:1026C000E2D9DFF83C90B8FBF5F3504619F8031057
:1026D00005FB1388FFF7A6FFB5FBF7F3BD4207D252
:1026E000BBF1000F02D00CB1A64203D3BDE8F88FB6
:1026F0001D46E8E720215046013CFFF793FFF2E733
:102700006A8702002DE9F74F0546174688460029DB
:1027100000F0308118F8011B49B92B7B002B00F029
:102720002981284603B0BDE8F04FFFF762BF252995
:1027300040F0C080002698F800302D2B424608F16A
:10274000010823D0302B24D02B2B25D000242A2B7A
:1027500002F1010123D13B681A1D1B683A601C4439
:102760000A4613782E2B26D101324FF0000910466D
:1027700010F8011BA1F1300CBCF1090F1DD80A2380
:1027800003FB0913A3F130090246F0E746F0010606
:10279000D1E746F00206CEE746F00406CBE711F893
:1027A000013CA3F130000928DBD80A2202FB0434E3
:1027B000303C0A46CBE74FF0000912F8011B01F04C
:1027C000FB0068289046F8D069290ED04AD85829CD
:1027D00064D006D825296DD098F80030002B99D107
:1027E0009BE7632962D06429F6D13A68D2F800A049
:1027F000111D8AEAEA723960A2EBEA724FF0010B0E
:10280000092A5BDCCB4538BFCB462CB1BAF1000FAF
:1028100001DB720700D5013CB30702D5B9F1000F07
:1028200004D0F00702D4002C4ED10024BAF1000FDE
:1028300052DACAF1000A2D212846FFF7F3FE06F00E
:102840000302022A05D1B9F1000F02D1002C47D1B1
:102850000024CDE900464B460A2251462846FFF7A0
:10286000F9FEB9E773294CD014D87029B4D13B686C
:102870001A1D3A60302128461C68FFF7D3FE7821E4
:102880002846FFF7CFFE00220823CDE9003221467B
:102890001022E3E775292BD078299DD139680A1DCC
:1028A0003A60CDE900464B46102228E03B681A1DED
:1028B00019783A602846FFF7B5FE8DE70A230BF139
:1028C000010BB2FBF3F29BE7A345AFD220212846D0
:1028D000013CFFF7A7FEA6E77107B0D52B21ABE7B8
:1028E000A345B6D230212846013CFFF79BFEADE759
:1028F0003968CDE900460A1D3A604B460A2209684C
:10290000ACE73B681A1D3A6016F00106D3F800A048
:1029100020D1BAF1000F03D0504603F03CFA06462E
:10292000B44200D9C4B90AF1FF3A1EE02846013684
:10293000FFF778FE1AF806100029F7D1A642BFF477
:102940004BAF002C3FF448AF20212846013CFFF755
:1029500069FEF3E70026EDE720212846013CFFF75A
:1029600061FEDDE72846FFF75DFE1AF8011F00292A
:10297000F8D131E703B0BDE8F08F000007B50B4692
:10298000A0B9154B5B886BB1144B1548154AC01A9A
:102990000E23C0080093144B0004144940F00100BA
:1029A000FEF759F90E2003B05DF804FB6BB90A4B32
:1029B0005B88002BF6D0094B09480D4AC01AC008A5
:1029C0000E2300930004084BE7E703601B681146E1
:1029D00003B05DF804EB1847480000200C7F0200AC
:1029E0009C7F0200278802007A8702002C88020060
:1029F000A38802002DE9F3419646B0B9504B5B889D
:102A0000002B00F095804F4B4F48504AC01AC00829
:102A10000E244F4B009400044E4940F00100FEF795
:102A20001AF9204602B0BDE8F0816AB9444B5B88D0
:102A3000002B7DD0434B4448474AC01AC0080E249F
:102A400000040094424BE7E7D0F800C0BCF1000F4F
:102A50000DD13B4B5B88002B6CD03A4B3A483F4A38
:102A6000C01AC008082400040094394BD4E76BB99D
:102A7000334B5B88002B5FD0324B3348384AC01A47
:102A8000C008092400040094314BC5E74768D7F813
:102A90000480B3FBF8F708FB17376FB1284B5B884E
:102AA000002B49D0274B28482E4AC01AC0080924B9
:102AB00000040094264BAFE78F070DD0204B5B88B6
:102AC000002B3BD01F4B2048274AC01AC0081024B7
:102AD000000400941E4B9FE712F0030F0CD0184B1C
:102AE0005B885BB3174B1848204AC01AC0081024F3
:102AF00000040094164B8FE7C768B9420BD34C1EF5
:102B000005691C44AC4206D8DCF80C40A44602B06F
:102B1000BDE8F04160470A4B5B887BB1094B0A482E
:102B2000134AC01AC008102400040094084B73E72D
:102B30000E2476E7082474E7092472E7102470E76E
:102B4000480000200C7F02009C7F020027880200C2
:102B50008C8702002C880200A98802009D88020050
:102B60005C880200AF880200D9880200F188020068
:102B700014890200F7B5A0B9374B5B88002B63D0EE
:102B8000364B3748374AC01AC0080E24364B0094DB
:102B90000004364940F00100FEF75DF8204603B01E
:102BA000F0BDD0F800C0BCF1000F0DD12A4B5B88FE
:102BB000002B4BD0294B2A482D4AC01AC0080824A4
:102BC00000040094284BE4E76AB9234B5B88002B90
:102BD0003ED0224B2248274AC01AC00809240004CC
:102BE0000094214BD5E74768D7F800E00EF1FF3796
:102BF0000F420CD0184B5B8863B3184B18481E4A21
:102C0000C01AC008102400040094174BC1E7C7681D
:102C1000B9420CD34C1E05690EFB0244AC4206D8E7
:102C2000DCF81040A44603B0BDE8F04060470A4B12
:102C30005B887BB1094B0A48104AC01AC0081024AF
:102C400000040094084BA4E70E24A7E70824A5E796
:102C50000924A3E71024A1E7480000200C7F02000C
:102C60009C7F0200278802009F8702002C880200B8
:102C70009D8802005C880200B2870200D8870200AB
:102C8000014B4360002070474889020008467047A6
:102C900000207047024B1868003018BF01207047B1
:102CA0000C0C002008B50248FFF754FC002008BDBA
:102CB0000C0C002008B510461A4602F0EEFF00206A
:102CC00008BD00002DE9F043814687B014480F4647
:102CD00016469846FFF735FC0446F0B90546AE4265
:102CE00015D10F48FFF736FCD9F808305BB1022246
:102CF0008DF800200022CDE90127CDE90326CDF88B
:102D0000148068469847204607B0BDE8F08307EB7B
:102D1000053000F06FFC0135E1E71124F3E700BF57
:102D20000C0C00202DE9F041804686B011480F467A
:102D300016461D46FFF705FC0446C8B9AA083146E9
:102D4000384600F06FFC0B48FFF704FCD8F8083059
:102D500053B101228DF800200C9A0592CDE901476C
:102D6000CDE9036568469847204606B0BDE8F08186
:102D70001124F9E70C0C00202DE9F047B0F806907B
:102D80004479D2F800A09DF8208009FB04F4043CAB
:102D900006460AEB0300A0420F4688BFA4EB030AD5
:102DA000191DC2F800A0B1FBF9F509FB15114DB9C9
:102DB000A9EB0104544528BF5446BAF1000F04D1D1
:102DC000BDE8F0873668013DF1E704317B197018E2
:102DD0002246B8F1000F0ED001461846AAEB040AAD
:102DE00002F05BFFD145254436684C464FF00001A8
:102DF00028BF5446E1E71946F0E7FFF7AEBBF8B548
:102E000046790146721E0546002393422D6803D37E
:102E10000024A64202D8F8BD0133F6E70F68284621
:102E2000FFF7D2FB01343946F3E72DE9F843868AF0
:102E3000CD1C0746FFF7A8FB043E35440446B5FB0E
:102E4000F6F5F0B14FF48073EDB28380C680013D9A
:102E5000076081464FF00008A84512D23846FFF7B8
:102E600093FB064648B163790133637108F10108A9
:102E7000C9F8000007608146EEE72046FFF7BFFF74
:102E800034462046BDE8F88301210430FFF743BBF8
:102E900010B5012104460430FFF748FB10F0FF0F86
:102EA00004D12046BDE81040FFF7A9BF10BD1FB5F3
:102EB00003920022009203AAFFF75EFF05B05DF8BF
:102EC00004FB1FB503920122009203AAFFF754FFEF
:102ED00005B05DF804FB0000064B10B500241C7023
:102EE000054B1C60BFF35F8F0449054800F060F993
:102EF000204610BD180C00201C0C00207489020014
:102F0000100C002008B50020FFF7EAF8F1EE103AA7
:102F100023F09F03E1EE103ABFF35F8F054B402291
:102F2000C3F884210020FFF7DDF820BF40BF20BF99
:102F300008BD00BF00E100E00268136852689342D8
:102F400091BFD01A80680130801888BFC01A7047BE
:102F500003682DE9F0411F681D685B689D4284BFCE
:102F600083680133164688465D1BC2684168AE42DD
:102F7000044607FB02110CD87243404602F08DFE56
:102F8000A3683E449E4288BF002623681E60BDE8B9
:102F9000F08105FB02F73A46404602F07EFEE26809
:102FA0006168751B6A4308EB070002F076FE236830
:102FB0001D60ECE7036881681A685B688B4234BF68
:102FC00001330023D31A584258417047F8B50446DC
:102FD00000200D46FFF784F82046FFF7EBFF10B105
:102FE000237C002B3CD12268A66853685168B1420B
:102FF00034BF01310021516030B11168A0688142B5
:1030000034BF013100211160E2686068511E072958
:1030100020D8DFE801F004101F141F1F1F182A78A2
:10302000C2542046FFF788FF23689A68824200D284
:103030009860002415E02A8820F81320F1E72A6818
:1030400040F82320EDE7D5E9006700EBC300C0E9B5
:103050000067E6E7294602FB030002F01EFEE0E7F8
:1030600004240020FFF73EF82046F8BD70B5054661
:103070000E46144682B10020FFF732F82846FFF7CB
:103080005BFFA0420AD3224631462846FFF760FF85
:1030900000240020FFF726F8204670BD0524F8E73D
:1030A00010B504460020FFF71BF820680C22002111
:1030B00002F01CFE0020BDE81040FFF713B810B569
:1030C00004460020FFF70CF82046FFF735FF0446C2
:1030D0000020FFF707F8204610BD836800225A60E1
:1030E0009A60C3E90422DA601A6070472DE9F04162
:1030F00006460F4690461D468BB9B0687368D0E906
:10310000031403F1010C0A1B62450FD10024C8F817
:1031100000401DB3FFF71EFA0020BDE8F081806873
:10312000FFF70FFA0028E8D01120F6E701EA0302C2
:1031300023409A4238BF6444D8F800302CBFACEB2F
:103140000204641A9C4228BF1C463368C8F8004039
:1031500013443B60C3681C44C460DDE72846DCE7D9
:1031600082684368106910B50133946803441B1BDF
:103170008B420AD30C44C2E902441046FFF7E7F938
:10318000002814BF0020082010BD0420FCE7806840
:1031900008B582680369D21A8A4207D30B44C0E992
:1031A00004330430FFF7D6F9002008BD0420FCE703
:1031B0000B684A684360934208BF0023016008BF60
:1031C0004360704770B5446806460D46206818B1E4
:1031D000B3682946984718B923682B60256070BDED
:1031E0002468F3E74368186808B102681A607047FA
:1031F0004368186870474368186800B97047884288
:1032000003D102681A600120704703460068F4E7A2
:103210000B7B23B14B6803600023037170470B687D
:1032200003600123F9E703684A68896810B5D41A76
:103230008C428BBF5B1800230360026098BF037150
:1032400010BD03680A68896810B59C1A8C428BBF50
:103250005B1A01230360026098BF037110BD0379FC
:1032600010B504461BB1FFF7DEFF206810BDFFF765
:10327000E8FFFAE738B5074C051E04F1080318BF4C
:103280001C4623682BB11A6822605B682846984761
:10329000F7E738BD280C002020B9054B01225A70F1
:1032A000FFF7E8BF012802D1014A9070F8E77047A4
:1032B000200C002038B5094C23786BB908486360AE
:1032C000A3602361E36000F0CDF9054600F0D6F974
:1032D00001232370284638BD8525FBE7200C0020FC
:1032E0009932000038B5134CA378054603F0FF006F
:1032F00073B115B16B68012098470020FEF7F0FE0E
:10330000E3680133E3600020BDE83840FEF7EABE21
:10331000FEF7E6FE25B1226913463BB92A60256116
:10332000E368002BECD100F0BBF9E9E79D42F7D050
:103330001B68F2E7200C002038B5134C6378054673
:1033400003F0FF0073B115B16B68002098470020AF
:10335000FEF7C6FE6368013363600020BDE83840B5
:10336000FEF7C0BEFEF7BCFE25B1A26813463BB90E
:103370002A60A5606368002BECD100F0A3F9E9E7AF
:103380009D42F7D01B68F2E7200C002038B5084CAE
:103390000020FEF7A5FE6368013B6360656815B910
:1033A00000F0A2F965700020BDE83840FEF79ABE33
:1033B000200C002007B58DF807000DF10701064825
:1033C000FFF704FE0448FFF7F5FD08B100F062FCCA
:1033D00003B05DF804FB00BFF47E020038B50C4D6D
:1033E0002B7893B90B4B0C49002808BF184603886B
:1033F000284620F8013F00F00DFC044618B900F003
:1034000037FC01232B70204638BD8524FBE700BF25
:10341000840C002098890200B533000008B500F044
:1034200039FC00F03FFC0348FFF73AFE024B002254
:103430001A7008BDF47E0200840C002010B504460A
:103440000248FFF73CFE207010BD00BFF47E020072
:1034500010B50A4601460448FFF708FE044600F08E
:1034600007FC204610BD00BFF47E02001FB50378A4
:103470008DF800304368019383688DF80830C36885
:103480000393054A054B684653F8213052F8211042
:10349000984705B05DF804FB880C0020900C0020D4
:1034A0001FB503788DF800304368019383688DF869
:1034B0000830C3680393054A054B684653F821302A
:1034C00052F82110984705B05DF804FB880C0020E5
:1034D000900C0020F0B5184B0778DFF86CE043F84B
:1034E0002720164B16460A6943F827204B7F0EF813
:1034F00007300C4684460FCC89B06D460FC594E862
:103500000F0085E80F001EF80730049753B1002E16
:103510000B4A694608BF32460CF1040001F01EF860
:1035200009B0F0BD002E074A694608BF32460CF1CB
:103530000C0000F0E7FDF3E7900C0020880C002061
:103540006D340000A1340000980C0020074A084B9D
:103550001360084A03F110011160074A03F12001CA
:103560001160064A0120C2F804357047D40C0020CF
:10357000A40C0020A00C00209C0C002000E00040C7
:10358000114B10B504461868884202D0102202F090
:1035900084FB0E4B0022C3F8002101221A604FF079
:1035A0008070D3F8002162B10022C3F80021084BDB
:1035B0001968A14203D01022204602F06EFB0120C0
:1035C00001E00138EDD110BDA00C002000E000406A
:1035D0009C0C0020024B01461022186802F05DBBD3
:1035E000D40C0020024AD2F80034002BFBD07047E4
:1035F00000E001400A4908B50223C1F80435BFF3D1
:103600006F8FBFF34F8FC1F80805FFF7EBFF002363
:10361000C1F80435BFF36F8FBFF34F8F08BD00BFF4
:1036200000E001400E4B10B50124C3F80445BFF380
:103630006F8FBFF34F8F01EB8204401AA14208D174
:10364000074B0022C3F80425BFF36F8FBFF34F8FE2
:1036500010BD431851F8042B1A60FFF7C3FFEDE7C4
:1036600000E00140044A137923B90121106011716F
:103670001846704785207047D80C0020074B1A6801
:10368000D2075FBFC02283F8002301221A604FF0E7
:1036900080430122C3F81825704700BF00E100E015
:1036A000074B00221A6082B01B680193019B4FF008
:1036B00080430222C3F8042301229A6002B07047BB
:1036C00004010040074B00221A6082B01B6801937E
:1036D000019B4FF080430122C3F804231A6002B01B
:1036E000704700BF00010040064B01221A604FF0F6
:1036F0008042D2F80C3403F00113B3F1011FF8D06B
:10370000704700BF04000040134B07B51A6862B150
:10371000002018601B680093009B4FF0804301223B
:10372000C3F808230D4B1B6898470D4B1A6882B1EC
:1037300000221A601B680193019B4FF08043022214
:10374000C3F80823054B1B68012003B05DF804EBA8
:10375000184703B05DF804FB00010040D80C0020BE
:103760000401004000F1804000F5C040002382B019
:10377000036003680193019B02B0704703681F2B2D
:1037800083BF03F01F03036001484FF0A040704760
:103790000003005007B5019001A8FFF7EFFF019B60
:1037A00000EB8300D0F8002722F44032C0F8002755
:1037B000D0F8003743EA0143C0F8003703B05DF8A2
:1037C00004FB0000054B4FF0FF32072843F8202090
:1037D00084BF1B1883F85220704700BFE00C002004
:1037E00010B5174C94F8643043BB04F130032A2120
:1037F000FF22013911F0FF0103F8012BF9D1C8B202
:10380000FFF7E0FF01310C29F9D1062200210D4814
:1038100002F06CFA0C4BC02283F8062340221A6097
:103820004FF4BE70FFF79EFF084B4FF00042C3F805
:103830000423012384F86430002010BD0820FCE735
:10384000E00C00203E0D002000E100E000600040A0
:10385000034B93F86400003018BF0120704700BF8D
:10386000E00C0020F7B53B4E3318054693F9303095
:10387000002B6CDA8B78C3F34003002B0BBF0824BA
:1038800000240C200820844202D1042003B0F0BDA3
:1038900056F82470013743D1701946F8242080F877
:1038A000304013B9331983F852508B785A0717D424
:1038B000D80737D501A80195FFF760FF019B00EB02
:1038C0008300D0F8003723F00203C0F80037224805
:1038D000EA0805F007070123BB40875C3B4383549C
:1038E00088780A7810F0020028D0A40004F18044FF
:1038F00004F5C0442D02D4F8103523F44F3323F4DB
:103900004073C4F810351204D4F8103505F47C5512
:1039100002F4403215431D43C4F810550020B5E7AA
:103920000134B0E701A84A780195FFF727FF019B12
:1039300003F5E073920040F82320C8E7083C3444C4
:1039400094F85A5045EA821284F85A209EE70820DB
:103950009CE700BFE00C00203E0D002073B5224C18
:103960002518064695F93020072A19DD224492F8D9
:1039700052309B09032B0FD1019001A8FFF7FEFEE7
:10398000019AD0F81035D340DB0707D40221304626
:10399000FFF700FF02B070BD012BF7D00321F6E75F
:1039A000D3B2072BF6D8930003F1804303F5C0434D
:1039B000D3F8100540F00100C3F8100502F14000F3
:1039C000800080B2FFF7CEFE0029E3D095F93030B9
:1039D00054F82330002BDDD0012303FA02F2034B0D
:1039E000C3F80423D6E700BFE00C002000600040CD
:1039F00007B5019001A8FFF7C1FE019BD0F81005A3
:103A0000D84000F0010003B05DF804FB2DE9F04F51
:103A1000002489B0CDE90244624D4FF48072012147
:103A200002F1804303F5C04390B21B68012B06D11D
:103A3000D5F804330B4202D0FFF794FE0C43043256
:103A4000B2F5907F4FEA4101EAD1574B1B68012B39
:103A50000ED14FF4BE70FFF785FE4FF0A04344F047
:103A60000044D3F810350293504BD3F8103503932C
:103A700014F0FF0F1AD04E4F00250126344210D00B
:103A8000AB0003F1804303F5C043D3F81005D3F82E
:103A9000101557F8253023B1C1F30141C0F30520BB
:103AA00098470135082D4FEA4606E7D1002C75DA14
:103AB0000DF1100800230493C8F804304FF0FF33D1
:103AC000CDE90633DFF8E8A0DFF8E89000273D46AF
:103AD00019F9014B631C48D0E4B2012324F0C0065D
:103AE00004F0070203FA02F2F00808AB191811F803
:103AF000083C134239D00AEB0603A40993F930308D
:103B00005AF823B0BBF1000F08D1032C2DD118F8BF
:103B100000C04CEA020C08F800C001E0032CF6D00B
:103B200001A80196FFF72AFE019B11F8181C03F566
:103B3000E07C114250F82C00C0F3014005D002286F
:103B400013D1032C0BD1214604E003280DD1032C03
:103B500005D102213046FFF71DFE0135EDB2BBF164
:103B6000000F02D021463046D8470137042FAFD18D
:103B7000A5B14FF0A0430299D3F8102503F5407387
:103B80009142D3F8103502D10399994206D002929E
:103B90000393049A059B0692079395E709B0BDE845
:103BA000F08F00BF006000407C61004000030050C7
:103BB000E00C00203A0D0020014B1B68184700BFA5
:103BC000480D002038B50B4B98420D4601D000201F
:103BD00038BD0020FEF784FA074B1C7914B9012286
:103BE0001D601A710020FEF77DFA002CEFD0112025
:103BF000EEE700BF00200040480D0020034B984234
:103C000001BF034B00221A601A7170470020004068
:103C1000480D002010B5124C2278FAB9114B1960EA
:103C2000037813F0010F104B1EBFD3F8042542F0A8
:103C30000102C3F80425D3F8002222F00102C3F8E0
:103C400000224378094A5B01DBB282F80D334FF45E
:103C50000053136001232370002010BD8520FCE772
:103C6000540D0020500D002000D0004000E100E085
:103C7000064B00221A6082B01B680193019B044B23
:103C80000122C3F804231A6002B0704700D100403B
:103C900000D00040024A0123C2F808335360704745
:103CA00000D00040064A0123C2F808335360054B98
:103CB0004FF40052C3F88020034B00221A70704763
:103CC00000D0004000E100E0540D0020074B00222E
:103CD0001A6082B01B680193019B054BD3F808055D
:103CE000044B1B68C0B202B0184700BF00D10040AF
:103CF00000D00040500D0020F7B506792F4D0C2361
:103D00007343EF183C7A002C55D1EA504B687B6026
:103D1000477903682246D0B2874243D81A0B54B27F
:103D2000C878002CA8BF04F16047D2B2BABF02F035
:103D30000F0C234F07F561474FEA4010C0B2B4BFE4
:103D400007F80C0087F800036409012002F01F0245
:103D50001C4F00FA02F247F824204A78D3F80445B1
:103D600002F0030224F003042243C3F80425D3F82D
:103D700008458A7824F0030402F003022243C3F8C2
:103D80000825D3F810450A7824F00F0402F00F023A
:103D90002243C3F810250C2303FB0655287200208C
:103DA00003B0F0BD900000F5A07001321C5018580F
:103DB00001900198AFE70820F2E700BF580D0020FE
:103DC00014ED00E000E100E0036801221A600379CD
:103DD000034A0C2101FB032302221A72704700BF21
:103DE000580D00200368044901221A6103790C2050
:103DF00000FB03131A727047580D00200268110B64
:103E000038B54BB201245B0901F01F0104FA01F13E
:103E100020330B4C44F823100546D2F8003200241E
:103E20004FF0FF33C2F80042C2F80833FFF7DAFF61
:103E30002B79044A0C2101FB03231C7238BD00BFFF
:103E400000E100E0580D00200379044A0C2101FB39
:103E50000323187A831E584258417047580D00209A
:103E60008B0040330268DBB20120D05001F5A8710D
:103E700052F82100704737B54FF480348C40006809
:103E80007BB18B0003F5A0730025C550C358019387
:103E9000019BC0F8044301F5A87140F8212003B04C
:103EA00030BDC0F80843F6E770B4046840F201166C
:103EB000D4F800528E4025EA0605C4F80052D4F822
:103EC00000522B43C4F800329DF80C3070BCFFF751
:103ED000D2BF00002DE9F341104C114F114E0025C7
:103EE0004FF48038236883B1D7F8043308FA05F219
:103EF0001A420AD0002323602368019304F5C040CE
:103F0000019B80B2D6E9003198470135062D04F1B6
:103F10000404E7D102B0BDE8F08100BF40A1014038
:103F200000A00140580D00200023435082B04358A8
:103F30000193019B02B070470A4610B54FF48E7191
:103F4000FFF7F2FF136A9168C95C136A01331362C9
:103F5000C0F81C1510BD8B690A4610B54FF484716A
:103F600023B9FFF7E1FFD0F8183510BDFFF7DCFFEC
:103F7000536AD168D0F81805C854536A01335362A4
:103F8000F3E700001FB501238DF80030044BCDE9A5
:103F90000110D3E900126846904705B05DF804FBB4
:103FA000640D002030B54D4AD2F8043313F4007F7D
:103FB00085B015464FD0D2F82431002B4BD04FF4AA
:103FC00092711046FFF7B0FF4FF40173C2F8083347
:103FD000434B93F8291009B9012151603F4902224E
:103FE0008DF80020D1F88024C1F8802403929A69CA
:103FF0000292DA6801920022C3E906226846D3E9F8
:10400000001290473548D0F81C315BB134494A69F9
:104010000B6A9A420A464BD991F82830002B47D1B7
:10402000FFF78AFF2D4AD2F8443193B14FF4A271C1
:104030001046FFF779FF2A4B93F8291009B10121A7
:1040400011609A692AB100229A61586AD968FFF70B
:1040500099FF05B030BDD5F804335B07D2D5D5F84C
:104060000831002BCED01E4C1C482146FFF773FFB1
:10407000636AA2699A422346C4D1E269E1684AB1FF
:104080002369E3600023606AA261E3616362FFF772
:1040900079FFB7E794F829200AB901226A600F4A2C
:1040A0004FF40170C2F8080300229A61586AEEE7E3
:1040B0004FF48E710948FFF737FF5369002BB1D0D9
:1040C00051690291002391688DF80030019153618C
:1040D0006846D2E900139847A4E700BF00200040DB
:1040E000640D00201F2886BF00F01F00044B4FF016
:1040F000A04300F5E070022243F82020704700BF83
:10410000000300502DE9F843624F047991462C22B8
:1041100002FB0472064692F82A200D46002A40F05F
:10412000B3805D490068FFF74DFD8046002840F0F0
:10413000AE8029684A1C10D01F2987BF01F01F03D9
:10414000564A0B464FF0A0420120984003F5E07319
:10415000C2F80805032042F823006868431C0DD00C
:104160001F288BBF00F01F0303464C4A4FF0A042AC
:1041700003F5E0734FF0000C42F823C03368AA69DE
:1041800095F814C0C3F824256A7DBCF1010F4CEAF0
:104190000202C3F86C25C3F81405C3F80C152BD123
:1041A000A968481C0DD01F298BBF01F01F020A46C9
:1041B0003A484FF0A04002F5E0724FF0000C40F892
:1041C00022C0E868421C13D01F2887BF00F01F0CD4
:1041D000324A84464FF0A0424FF0010E0EFA0CFE18
:1041E0000CF5E07CC2F808E54FF0030E42F82CE035
:1041F000C3F80805C3F810152C236343FA18C2F856
:1042000004902A69FA50B9F1000F2AD04FF48E7148
:1042100030682D7FFFF788FE30684FF4A271FFF7FA
:1042200083FE32681E4BC2F80433120B51B20029D0
:10423000A8BF01F160404FEA4513BABF194802F028
:104240000F0500F56140DBB2B4BF435580F8003381
:1042500002F01F02012303FA02F24909124B43F84C
:10426000212033680422C3F800252C2303FB0473A8
:104270000022C3E9062283F829205A61012283F82B
:104280002A204046BDE8F8834FF00808F9E74FF0D0
:104290001108F6E7640D0020A53F00000003005060
:1042A0008000020014ED00E000E100E02DE9F041A3
:1042B00003680479254D0022C3F800252C2202FB57
:1042C00004520646526872B1214AC3F80823190BFA
:1042D0004AB20120520901F01F0100FA01F1203217
:1042E0001C4840F82210D3F80C05D3F81485D3F8F5
:1042F0000815D3F810754FF0FF329042C3F814251B
:10430000C3F80C25C3F80825C3F8102501D0FFF722
:10431000E9FEB8F1FF3F02D04046FFF7E3FE7A1C0A
:1043200002D03846FFF7DEFE4B1C02D00846FFF7EE
:10433000D9FE3068FFF762FC2C2303FB04540023F2
:1043400084F82A306360BDE8F08100BF640D00206E
:104350008402020000E100E02DE9F84F224F0679C7
:104360004FF02C0909FB067480466569002D38D191
:104370006261A16025624FF48E71006884F8285054
:10438000FFF7D2FDD8F80000012383602146FFF734
:10439000D3FD6368A1469BB9D8F800A0D4F814B047
:1043A000236A9B4512D8D8F80020D2F81C31002B84
:1043B000FBD00123D3602C2303FB067300225A6138
:1043C0002846BDE8F88F94F8283043B9DAF81C3154
:1043D000002BF8D049465046FFF7AEFDE0E70F2529
:1043E000E9E71125ECE700BF640D002000234350EE
:1043F00082B043580193019B02B070471FB501235F
:104400008DF80030044BCDE90110D3E90012684665
:10441000904705B05DF804FB900D00201F2886BF73
:1044200000F01F00044B4FF0A04300F5E0700222A3
:1044300043F82020704700BF000300507FB5454A75
:10444000D2F82461002E63D010464FF49271FFF72A
:10445000CDFF02238DF80030D2F88034C2F88034CA
:104460000393D2F83C3502933B4BDA680192002269
:10447000C3E906226846D3E900129047354AD2F8CC
:1044800044317BB14FF4A2711046FFF7AFFF324BBE
:10449000996939B10021C3E90611D968D2F83C0500
:1044A000FFF7ACFF2B4AD2F82031B3B14FF4907133
:1044B0001046FFF79BFF0123D360274B596961B179
:1044C000D2F84C150291002299688DF800200191D4
:1044D0005A616846D3E9001290471E4AD2F8583113
:1044E000A3B14FF4AC711046FFF780FF1A4B596926
:1044F00061B1D2F84C150291002299688DF8002024
:1045000001915A616846D3E90012904704B070BD2A
:10451000D2F81031002BB1D04FF488711046FFF75C
:1045200065FF0D4BD2F83C0599698842A6D1DC693C
:10453000D96864B1D2F8005225F02005C2F80052C3
:104540001A699C61DA60DE61FFF758FF96E79C61AB
:10455000FAE700BF00200040900D00202DE9F8434D
:10456000694F06799146242202FB0672044692F8AE
:1045700020200D46002A40F0C08064490068FFF703
:1045800021FB8046002840F0BB802868421C10D0E8
:104590001F2887BF00F01F035D4A03464FF0A0426B
:1045A0000121994003F5E073C2F80815032142F890
:1045B000231069684B1C0DD01F298BBF01F01F030E
:1045C0000B46534A4FF0A04203F5E0734FF0000C46
:1045D00042F823C02368AA6995F814C0C3F82425BB
:1045E0006A7DBCF1010F4CEA0202C3F86C25C3F8E6
:1045F0000C05C3F814152BD1A968481C0DD01F2930
:104600008BBF01F01F020A4641484FF0A04002F55F
:10461000E0724FF0000C40F822C0E868421C13D052
:104620001F2887BF00F01F0C394A84464FF0A04274
:104630004FF0010E0EFA0CFE0CF5E07CC2F808E516
:104640004FF0030E42F82CE0C3F80805C3F810152C
:1046500024237343FA18C2F804902A69FA50B9F176
:10466000000F39D04FF4887120682D7FFFF7BEFE10
:104670004FF490712068FFF7B9FE4FF492712068F3
:10468000FFF7B4FE4FF4A2712068FFF7AFFE206879
:104690004FF4AC71FFF7AAFE22681E4BC2F8043338
:1046A000120B51B20029A8BF01F160404FEA451337
:1046B000BABF194802F00F0500F56140DBB2B4BF84
:1046C000435580F8003302F01F02012303FA02F27F
:1046D0004909124B43F8212023680822C3F800251A
:1046E000242303FB06730022C3E906225A61012238
:1046F00083F820204046BDE8F8834FF00808F9E72A
:104700004FF01108F6E700BF900D00203D44000077
:10471000000300501003420014ED00E000E100E04F
:104720002DE9F0412F4D0479242303FB0453064661
:104730005B68006873B12C4BC0F80833020B53B2AE
:1047400001215B0902F01F0201FA02F2203327491E
:1047500041F82320D0F80032012223F02003C0F8D2
:1047600000324FF4AC714260FFF740FE3368DA600C
:10477000D3F85821002AFBD00022C3F80025D3F833
:104780000C05D3F81485D3F80815D3F810754FF03D
:10479000FF329042C3F80C25C3F81425C3F808254E
:1047A000C3F8102501D0FFF739FEB8F1FF3F02D062
:1047B0004046FFF733FE7A1C02D03846FFF72EFE44
:1047C0004B1C02D00846FFF729FE3068FFF716FAA7
:1047D000242303FB0454002384F820306360BDE8E5
:1047E000F08100BF900D00201003420000E100E0C6
:1047F00001F06043B3F1005F2DE9F041074638D185
:104800001E4B0679242505FB063598466C69002C5D
:1048100031D16A61A96000684FF49071FFF7E6FD3D
:104820004FF4AC713868FFF7E1FD3B686A69A9682D
:10483000C3F84415C3F8482501229A606A68AAB9EA
:10484000D3F82021D3F858411AB9002CF8D00F24FE
:1048500007E0002CFBD10122DA60D3F85821002AAE
:10486000FBD0242303FB0686002373612046BDE8AA
:10487000F0811024FAE71124F8E700BF900D002022
:104880000220FCF715BC00002DE9F04781460D46DB
:10489000FCF728FC0328044604D8012D04D025B3D6
:1048A000022D2FD0BDE8F087194D47003A18A918FE
:1048B000AE5C4A7852B1DFF86880164842464FF441
:1048C0008041FDF706FB08B988F800903B192B449E
:1048D0009A78114B1A55002EE4D0104B1B68002B10
:1048E000E0D03046BDE8F04718470A48FDF70AFB1C
:1048F000074B04EB440213449E78074B1B5DB34205
:10490000D0D1E8E7024B00EB40041C446678E2E7B4
:10491000B60D002060010020D10D0020CC0D00203C
:10492000B40D002002210078FFF7AEBF08B5094B97
:104930001B7853B10020FCF789FB0120FCF786FBB4
:104940000320BDE80840FCF781BBBDE80840FCF748
:1049500091BB00BFB50D0020F8B57B4C2378054610
:104960001BB100232370FFF7E1FF172D00F28880B1
:10497000DFE805F00C17174354657680888D888D25
:10498000959A9A9A9A9AC4C9D1D9E4E4FFF7CEFFCE
:104990006E48FDF7B7FA6E4B002204461A702046A7
:1049A000F8BD0020FCF72AFBF8B10020FCF74EFB15
:1049B000022D0CBF4FF4E1614FF47A61644B1D701E
:1049C0004FF400404FF47A740025E0FB01454FF4AA
:1049D000FA6200232046294600F085FF00220146A6
:1049E0005A48BDE8F840FDF774BAFCF71BFB022DEE
:1049F0000CBFC8214FF4C871E0E70020FCF7FEFAB5
:104A000040B10020FCF722FB4FF44871504B0322C9
:104A10001A70D5E7FCF706FBC821F7E70020FCF782
:104A2000EDFA38B10020FCF711FB4FF47A61484BE6
:104A30000422EDE7FCF7F6FA4FF4C871F7E700201F
:104A4000FCF7DCFA48B10020FCF700FB404B0522E4
:104A50001A7040F6CD410022C2E7FCF7E3FAF5E711
:104A60000020FCF725FB3A4B06221A70002240F288
:104A70006661B5E70020FCF7D5FA354B07221A70BE
:104A800000248CE701202070FCF712FBEEE70120E8
:104A90002070FCF70DFB00224FF40051A0E7FCF75B
:104AA000F8FA2B4B0C22EAE72A482B4EFDF72AFA9C
:104AB000D5F1110504461CD0D8B9012D13D0C82357
:104AC0005D434FF400474FF47A7000214FF4FA62CF
:104AD0000023C7FB050100F006FF224601461D48E2
:104AE000FDF7F7F904460220FCF79CFA0123337026
:104AF00055E70220FCF7AAFA0023F8E7FFF716FFB4
:104B0000134B1222BBE7FFF711FF0020FCF78AFAD4
:104B10000F4B1322B3E7FFF709FF0120FCF782FADE
:104B20000B4B1422ABE7FFF701FF0020FCF77AFAEA
:104B30000120FCF777FA064B1522A0E7FCF7A9FA4B
:104B4000034B1D709CE700BFC80D002088010020AA
:104B5000D00D002038010020B50D0020044B1B684B
:104B6000DB0703D5034B1878FFF7F6BE704700BF8D
:104B7000C40D0020D00D002038B51C4B18601C4B14
:104B800010F00204054619601AD01A4B1A480E227A
:104B90001A700F22DA7010229A7111225A720421AF
:104BA00040F23332FDF75AF8044648B9FDF7ACF845
:104BB000044628B90146114A1148FDF77FF9044619
:104BC000EB0711D50120FCF79FFA6CB921460D4A7D
:104BD0000D48FDF773F9044630B90C4A0C48012121
:104BE000BDE83840FDF76AB9204638BDC40D002045
:104BF000CC0D0020B60D0020D88902002549000008
:104C0000FC8902005D4B0000008A02008148000020
:104C1000F889020008B500F0E1F84FF48041002067
:104C2000FBF794FD08B1FDF785F8FBF7ADFC00F04C
:104C300029F800210120FFF79FFF08B1FDF77AF85E
:104C4000FCF718FA00F0EAF9094B5B88022B0AD945
:104C50000848094B094A0A49C01AC008000440F034
:104C60000300FBF7E5FF0AF003FCFBF753FEFAE74E
:104C70001C000020447F02000C7F0200528A0200C8
:104C8000678A020010B50D490D4800244FF47A637D
:104C9000C1E9004332238B600C73FEF7B9FA09496E
:104CA00009480C7340F24C434FF42F72C1E90023C2
:104CB000BDE8104005238B60FEF7AABAF00D002076
:104CC000000E0020D80D0020E80D002008B5034993
:104CD0000348FEF7C4FA00B208BD00BFF00D002083
:104CE000000E002008B503490348FEF7B8FA00B2E9
:104CF00008BD00BFD80D0020E80D002073B52E4D73
:104D00002E4EFFF7E3FF6B8802B2022B328019D9D7
:104D10002B4B2C4C2C49E41AE408240444F00304E3
:104D20002046FBF785FF6B88022B0BD9012240F24E
:104D3000024100230A200EF08DF824490246204645
:104D4000FBF776FF00230122CDE9006340F2024128
:104D50000A200AF0EFFE024660B16B88022B09D9E7
:104D60001748184B1A491B1ADB081B0443F00300B1
:104D7000FBF75EFFFFF7B6FF164A0023108040F2F4
:104D80000341CDE900230A2001220AF0D3FE0246A6
:104D900078B16B88022B0CD909480A4B0E491B1AB3
:104DA000DB081B0443F0030002B0BDE87040FBF7D2
:104DB0003FBF02B070BD00BF1C0000203A2E002093
:104DC0000C7F0200447F0200B48A0200D38A0200F2
:104DD000E88A0200382E0020138B020008B5FDF788
:104DE0003BF818B1BDE80840FCF7A4BF08BD0000BF
:104DF000F0B58BB0002302A9054602930FF04AFFDD
:104E00000646284605F0FCFE063E044602212846DA
:104E100000F04CFD012E70D84A4E002C36D11122E4
:104E2000214605A800F062FF03A80AF0FDFA03AAD4
:104E3000112105A800F0E0FA002803DA424905A88C
:104E400000F087FF7388022B11D905A8FBF728FD16
:104E50003E4C064602F00AF83D4B3E49E41AE4088F
:104E600024044388324644F00300FBF7EAFE0022A4
:104E70004FF480413848FDF72CF808B1FCF75AFF91
:104E800015B1284605F05CFC0BB0F0BD738853B13A
:104E90002E482F4B3149C01AC0080004224640F06A
:104EA0000100FBF7C5FE022011F02AFD0128E7D022
:104EB0007388DBB1264B254C294F2A49E41AE408B4
:104EC000240444F00104CC233A462046FBF7B9FE03
:104ED00073885BB10120FCF755F9CC23CDE9007351
:104EE0000122034620492046FBF7C1FEFBF712FDD5
:104EF0000028FBD144F62160C0E7284600F086FA7E
:104F000046420746002EBBD00E4B5B8893B130461D
:104F1000FCF738F90D4C0E4B1349E41AE408D22380
:104F2000240401930E4B00933246034644F00100E3
:104F3000FBF79DFEFBF7EEFC0028FBD1C7F59C407C
:104F400020309BE71C0000203B8B0200447F0200C6
:104F50000C7F0200438B020058030020868B020066
:104F6000AA8B0200158C0200408C020010B5264C62
:104F700026494FF481732380062240F60A33601DD0
:104F8000638000F08AFE062314222149237104F174
:104F9000250000F082FE142308221E4984F82430E4
:104FA00004F1450000F079FE082384F844300B2218
:104FB0000423194984F8543004F1560000F06DFEC2
:104FC0000B2384F8553000234FF4004184F86430FB
:104FD000A4F8763049F24D5347F6FF72A4F87810E2
:104FE000A4F87A30A4F880104FF4006348F201016D
:104FF000A4F87C20A4F87E30A4F88210A4F88420C1
:10500000A4F8863010BD00BFB02D00207C8A0200BD
:10501000528A0200838A02008C8A02007FB52C4AE1
:105020002C480121FCF74AFF08B1FCF783FE2A4B0C
:1050300000241C70294B1C80294B1C7006F07CFA44
:1050400006F07CFA02A8FCF7FFF802A80AF0E4F9DF
:105050004FF400600AF000FA204600F071F90620D3
:1050600009F070F9C32009F073F920460AF0CCF971
:10507000882221461B4800F039FE1B4801F058FBEE
:10508000FFF774FF0AF0F2F945420646F5B1174BF7
:105090005B8893B12846FCF775F8154C154B1649FB
:1050A000E41AE408752324040193144B00932A4660
:1050B000034644F00100FBF7DAFDFBF72BFC002868
:1050C000FBD1C6F59C402030FCF734FE04B070BD27
:1050D000FD4C0000B08A02009D0300209E030020CA
:1050E000A0030020B02D0020BD0200201C000020E5
:1050F000447F02000C7F0200408C0200AA8B020059
:10510000054B1B680D2B01BF044B1868B0FA80F0EB
:10511000400918BF00207047300100103401001012
:1051200008B5FFF7EDFF40B14FF080430022C3F810
:105130000C21C3F81021C3F83825FFF7E1FF002840
:1051400046D04FF080524D4BD2F80414C3F82015CE
:10515000D2F80814C3F82415D2F80C14C3F8281593
:10516000D2F81014C3F82C15D2F81414C3F8301563
:10517000D2F81814C3F83415D2F81C14C3F840152B
:10518000D2F82014C3F84415D2F82414C3F84815F3
:10519000D2F82814C3F84C15D2F82C14C3F85015C3
:1051A000D2F83014C3F85415D2F83414C3F860158B
:1051B000D2F83814C3F86415D2F83C14C3F8681553
:1051C000D2F84014C3F86C15D2F84424C3F8702503
:1051D000FFF796FF48B14FF08043D3F80024D20781
:1051E00044BF6FF00102C3F80024254AD2F888308A
:1051F00043F47003C2F88830BFF34F8FBFF36F8F53
:105200004FF01023D3F80022002A03DBD3F8043236
:10521000002B2FDA1B4B0122C3F80425D3F80024FE
:10522000002AFBD04FF010221221C2F80012D3F84E
:105230000024002AFBD04FF010231222C3F80422CE
:10524000104B1A46D3F800140029FBD00021C3F8F4
:105250000415D2F80034002BFBD0BFF34F8F084960
:10526000094BCA6802F4E0621343CB60BFF34F8F6F
:1052700000BFFDE7054B064A1A6008BD00C00040AC
:1052800000ED00E000E001400400FA05800300208A
:105290000090D00370470000F8B5064610460F4650
:1052A0000AF05DFE012E05462BD034B21CB1022E51
:1052B0002DD00020F8BD10F5004F01D10120F9E7F5
:1052C00001231A4640F2034138460BF020FA4368A6
:1052D000B3F9003013F5004F01D09D4219DB0223D2
:1052E000012240F2034138460BF011FA4368B3F94A
:1052F000000010F5004FE1D08542CCBF0020012016
:10530000D8E747F6FF70281A18BF0120D2E70248F5
:10531000F9E72046CEE700BF0180FFFF07B5002375
:105320000093054A054B012140F203400CF0DEFBDF
:1053300003B05DF804FB00BF9952000095520000D5
:1053400007B500BB124B0C22C3F818270A22D3F86A
:105350001015013AC1F380110191F8D1019B73B985
:105360000C4B5B88022B09D90B480C4B0C49C01A1B
:10537000C008000440F00300FBF756FC0120044B7A
:105380000222C3F8182703B05DF804EB0AF052B804
:10539000000300501C000020447F02000C7F02002C
:1053A0006E9002002DE9F84F1C469DF8283080468B
:1053B0008946924663B1661E002BDFF838B014BFF1
:1053C0004FF0FF370127002524B92846BDE8F88FA4
:1053D0001E46F1E71AF806305A46A9EB050108EB1C
:1053E000050000F00FFC0028F0DB013C05443E44C2
:1053F000E4B2E9E76181020007B5012300930823C5
:10540000FFF7D0FF03B05DF804FB0000F0B58BB0F0
:10541000002302A9044602930FF03CFC07462046F5
:1054200005F0EEFB054604460AF01AF80646132F6F
:1054300000F21782DFE817F019003400EA014D018D
:1054400015024B008600C700100108021502190062
:10545000980115021502BE011400F8011502C101E0
:10546000AB4B5B886DB1022B01D8002415E0A94835
:10547000A94BAA49C01AC00800042A4640F00300FC
:105480005DE0022BF1D9A348A34BA549C01AC0087F
:10549000000440F00300FBF7C7FB20460BB0F0BD53
:1054A0009B4B5B88022B09D99A489B4B9D49C01A9C
:1054B000C008000440F00300FBF7B6FB002011F029
:1054C0001FFA10F1FF3418BF4FF0FF34E5E7904C9E
:1054D0006288022A09D98F488F4B9349C01AC008A5
:1054E000000440F00300FBF79FFB6388E5B96EB151
:1054F000022B09D98748884B8C49C01AC008000480
:1055000040F00300FBF790FB0220D8E7022B09D9FB
:105510008048814B8649C01AC008000440F003004F
:10552000FBF782FB0420CAE7002B9ED079487A4B18
:105530008049C01AC00800042A4640F00100FBF769
:1055400077FB92E7724F45BB1122294605A800F070
:10555000CDFB03A809F068FF03AA112105A8FFF7F6
:105560004BFF002803DA744905A800F0F2FB7B88A2
:10557000022B92D905A8FBF793F9664D064601F078
:1055800075FC654B6D49ED1AED0843882D043246D4
:1055900045F00300FBF755FB7FE77B8840B1022B0A
:1055A000B2D95C485C4B6649C01AC0080004A7E742
:1055B000002B3FF45AAF5748574B6249C01AC008F6
:1055C00000042A46B9E7524F2DBB1122294605A8EF
:1055D00000F08CFB03A809F027FF03AA112105A8FE
:1055E000FFF70AFF002803DA534905A800F0B1FBD2
:1055F0007B88022B7FF651AF05A8FBF751F9454D8B
:10560000064601F033FC444B4F49ED1AED082D04DA
:1056100043883246BCE77B8898B1022B0AD93D48C3
:105620003D4B4A49C01AC00800042A4640F0030016
:10563000FBF7FEFA41220221454809F0C9FB044666
:105640002BE7022B7FF611AF3248334B4149C01A8A
:10565000C00800042A4611E72D4C4DBB11222946F3
:1056600005A800F043FB03A809F0DEFE03AA112100
:1056700005A8FFF7C1FE002803DA2F4905A800F0AE
:1056800068FB6388022B7FF63FAF05A8FBF708F99C
:10569000204C054601F0EAFB1F4B2F49E41AE408B1
:1056A000240443882A4644F00300FBF7CAFA2BE798
:1056B0006388022B0AD91748174B2849C01AC0081B
:1056C00000042A4640F00300FBF7B2FA412204210D
:1056D000B2E70F4B5B887DB9022B7FF6C6AE0E4B4F
:1056E0000C481F49C01AC008029B00041A7940F0F8
:1056F0000300FBF79DFAD0E6002B3FF4B6AE054859
:10570000054B1849C01AC00800042A4615E700BF17
:105710001C000020447F02000C7F0200578C020016
:10572000978C0200C48C0200DD8C0200FF8C02000A
:10573000168D02002E8D02003B8B02005D8D020053
:10574000B18D0200E48D0200438B0200248E020022
:1057500001690100598E0200948E0200EF8E020052
:10576000168F0200348F0200029D1122002105A82D
:1057700000F0BCFA2A1D112105A8FFF73DFE002804
:1057800003DA404905A800F0E4FA3F4B5B88022B9E
:105790007FF66BAE05A8FBF783F83C4C3C4B3D49CC
:1057A000E41AE40824042B7B024644F00300FBF7D0
:1057B00048FA5AE609F024FD57E6029D112200211D
:1057C00005A800F093FA2A1D112105A8FFF714FE81
:1057D000002803DA2B4905A800F0BBFA2A4B5B88A6
:1057E000022B7FF642AE05A8AE89284CFBF758F88D
:1057F000274B2949E41AE408AB7B009324040346B1
:10580000324644F00300FBF726FA2EE61E4B5B8877
:10581000022B7FF62AAE1E4B1C482049C01A029B61
:10582000C00800049A8829E6174B5B88012B7FF695
:105830001CAE174B15481A49C01AC008000440F0A6
:105840000200FBF7F1F910E60F4B5B88022B7FF6A5
:105850000CAE0E480E4B1349C01AC00800042A466D
:105860000CE6094B5B88022B7FF6FFAD084B07481F
:105870000D49C01AC00800042B463A4640F0030008
:1058800095E700BF3B8B02001C000020447F020014
:105890000C7F0200598F02008C8F0200CA8F020019
:1058A000FF8F0200159002004090020073B50023A4
:1058B0000D4601A9064601930FF0ECF90446304667
:1058C00005F09EF9032C0AD007D3063CE4B2012C64
:1058D00003D820B92846FBF7A5FB02B070BD2846C7
:1058E000FBF7B4FBF9E753EA020C61D02DE9F04B6A
:1058F000B3FA83F51E0007BFB2FA82F502FA05F487
:1059000003FA05F41646C5F120051EBF22FA05F775
:105910003C43203556EA044C4FEA144418BF013486
:10592000A3464FF00009C846904271EB030C39D3EF
:10593000094207BFB0FA80F700FA07F6B1FA81F71B
:1059400001FA07F6C7F120071EBF20FA07FC46EA56
:105950000C062037B6FBFBFC7F1B103F07F01F0433
:10596000C4F120060CFA04F42CFA06F644BF3446BF
:105970000026202FA4BF2646002454EA060C08BFA8
:10598000012418EB040849EB0609A4FB027CC01BA8
:1059900006FB02CC04FB03CC71EB0C01904271EBD3
:1059A000030CC5D20B46024649464046BDE8F08B83
:1059B000B2FBF3F22DE9304081EA03040D460029E1
:1059C00006DA6FEA00006FEA0101013041F10001DF
:1059D000002B06DA6FEA02026FEA0303013243F199
:1059E0000003FFF780FF002C06DA6FEA00006FEA81
:1059F0000101013041F10001002D06DA6FEA0202D7
:105A00006FEA0303013243F1000330BD7F2805D85C
:105A1000034B185C034B5B5C1840704700207047D9
:105A20009890020018910200A0F16103192B98BF11
:105A300020387047A0F14103192B98BF20307047E0
:105A40007F2805D8034B185C034B5B5C18407047FC
:105A5000002070479890020018910200A0F16103A5
:105A6000192B98BF20387047A0F14103192B98BF1C
:105A7000203070477F299ABF017001206FF02E00FF
:105A800070475AB10A787F2A0AD800B10260002113
:105A900019605960501A18BF0120704700207047E4
:105AA0006FF02E00704738B504460846A26842B130
:105AB000236861685D1C8D4208BF00208B4208D2BC
:105AC000D054E3682BB121686268914201D221462B
:105AD000984723680133236038BD70B54C1E09D444
