:1000000000000220B5020000DD020000DF02000057
:10001000E1020000E3020000E50200000000000031
:10002000000000000000000000000000E7020000E7
:10003000E902000000000000EB020000ED020000F9
:10004000AD360000B94302006D3B0000EF02000036
:10005000EF020000EF020000C9390000EF020000CB
:10006000EF020000EF020000EF020000EF020000CC
:10007000EF0200007D3C0000EF020000EF020000F4
:10008000EF020000FD220000EF020000EF0200007E
:10009000EF020000EF020000EF020000EF0200009C
:1000A000EF020000EF0200009D3E0000EF020000A2
:1000B000EF020000EF02000000000000000000005E
:1000C000EF020000EF020000EF020000EF0200006C
:1000D0004D6C0200EF020000EF020000EF02000092
:1000E000EF0200000000000000000000000000001F
:1000F00000000000EF02000000000000EF0200001E
:1001000000000000000000000000000000000000EF
:1001100000000000000000000000000000000000DF
:1001200000000000000000000000000000000000CF
:1001300000000000000000000000000000000000BF
:1001400000000000000000000000000000000000AF
:10015000000000000000000000000000000000009F
:10016000000000000000000000000000000000008F
:10017000000000000000000000000000000000007F
:10018000000000000000000000000000000000006F
:10019000000000000000000000000000000000005F
:1001A000000000000000000000000000000000004F
:1001B000000000000000000000000000000000003F
:1001C000000000000000000000000000000000002F
:1001D000000000000000000000000000000000001F
:1001E000000000000000000000000000000000000F
:1001F00000000000000000000000000000000000FF
:1002000010B5054C237833B9044B13B10448AFF350
:1002100000800123237010BDD005002000000000E5
:10022000A4AF020008B5034B1BB103490348AFF369
:10023000008008BD00000000D4050020A4AF02002B
:10024000154B002B08BF134B9D46A3F5803A0021A8
:100250008B460F461348144A121A27F086F80F4BA4
:10026000002B00D098470E4B002B00D09847002061
:10027000002104000D000D48002802D00C48AFF307
:10028000008026F0FBFF2000290004F0FDFD26F091
:10029000CFFF00BF000008000000022000000000A7
:1002A00000000000D0050020144C002000000000D9
:1002B000000000000649074A074B9B1A03DD043B78
:1002C000C858D050FBDC04F0EDFEFFF7B9FF00008A
:1002D000B0B0020000000020D0050020FEE7FEE7DD
:1002E000FEE7FEE7FEE7FEE7FEE7FEE7FEE7FEE7E6
:1002F000F0B595B01C46164608460D4602F08AFD3C
:100300001A9B0D93CDE9086400242346082205A911
:1003100028460A948DF82C400C9402F099FD079B16
:100320000293BDF81830ADF80C30BDF81A30ADF8B6
:100330000E309DF814308DF8114003F00302012AAD
:100340001DD1BDF81440059EC3F3C203C4F383144A
:100350008DF81030A20008230EA9284602F078FD7F
:10036000C6F3952608AB0093224602AB0EA9304691
:1003700000F02EFD284602F051FD15B0F0BD022A16
:10038000F8D1BDF81640C3F3C203A4098DF81030AC
:100390000827082C264628BF08263B4632460EA9C9
:1003A000284602F055FDA41B08AB02AA31460EA850
:1003B000374400F071FD002CEBD1DBE7014B01224B
:1003C0001A7070472D0600207047000070B50F4D61
:1003D00006460FCD88B06C460FC495E80F00002E7E
:1003E00084E80F004FF006030093094A09484FF0D4
:1003F000805308BF00226946069303F03BF808B11A
:1004000001F05AFC044B1E7008B070BD2C8B02002A
:10041000BD03000000000020EC05002007B5044BE0
:100420000093044A4023FFF763FF03B05DF804FB29
:1004300039040000ED05002038B50D4B0D4D0020AE
:1004400018700D4804782D5DD2B21C4665B1043099
:1004500004F0E0F908B101F02FFC084B1A7812B152
:100460002378002BFBD038BD0C3003F06FFFF1E791
:100470002D0600206434002000000020EC05002040
:1004800008B50848084A0378D35C3BB1043004F04F
:1004900053F90020BDE80840FFF798BF0C3003F087
:1004A000FBFEF6E700000020643400200120FFF787
:1004B0008DBF000008B5FFF7F9FF0421034800F0E5
:1004C000E5FB034B01225A7108BD00BF80B002005A
:1004D00014000020037813F0040216D003F0030385
:1004E000012B03D0022B09D0012070470A68008835
:1004F0000232C0F3831002440A60F5E70B684288B9
:10050000023303EB92130B60EEE7104670470000D6
:100510002DE9F04F484C87B00F460546861C002059
:10052000019201F09DFD23683B60D4E9012313444F
:10053000226801339B1A04F21C4704F5836A04F213
:100540001448B34219D3019A0023002A6CD0012227
:1005500062F3010343F0040365F389132168A26881
:100560000A4003320E44002044F82230266001F095
:1005700079FD012007B0BDE8F08F0121384601F078
:1005800085FF504601F09BFF404601F098FF0DF1BA
:1005900018096068D4F808B049F8100D00EA0B009B
:1005A000033004EB80004946FFF794FF029BB0B98B
:1005B0000BEA030204EB8202D16803919A1C013317
:1005C00003EA0B0B04EB8B0C01F00303012B0292EB
:1005D000DCF80CB020D0022B04D083460BE00BEAF1
:1005E0000300DDE7BDF80E309B0903334FEA1B4BD8
:1005F00002EB93030293404601F064FF08B1029BB3
:1006000063605946384601F041FFD4E901231344A1
:10061000226801339B1A94E7BDF80C30C3F38313AF
:100620004FEA1B4B1344E5E7022262F3010343F058
:10063000040365F39F5391E70007002030B50A4B90
:100640000A4A0B49D21AD20800239A4201D1052046
:1006500006E031F823500468A54202D1036000206F
:1006600030BD0133F1E700BFC0AF020080B002002F
:10067000FC0400202DE9F84F224B2348FF229A600A
:100680000022C3F81824C3E90022C3F8142483F815
:10069000202402F078FB804688B91C481C4E1D4D72
:1006A000DFF874A002F0E2FCAD1BED084446AC425A
:1006B00008D10023184919481A469C421BD14046CC
:1006C000BDE8F88F4FF000094F4606EBC40BBC4263
:1006D0000AD0142256F83710DBF8000027F0B0F9E2
:1006E0000028C8BF09F101090137BD42EFD12AF83E
:1006F00024900134DBE701EB830540F823206A8076
:100700000133DAE70007002090B002006C8B020092
:10071000C0AF020080B00200FC0400205C05002095
:1007200007B5019031B9019A064B53F8320003B076
:100730005DF804FB01A8FFF781FF0028F3D000203B
:10074000F5E700BFC0AF0200094B013903EBC00061
:10075000032909D8DFE801F00A02040604207047E3
:100760000079704740797047002070470220704739
:10077000C0AF020030B5124C00EB400054F82150DD
:100780008240072303FA00F06A4002400D4B6A40A2
:10079000C2F3821044F8212003EB8101C2F3C203AB
:1007A000834238BF0346C2F34220834202F007026D
:1007B00038BF03469A4238BF1A464A8030BD00BF50
:1007C0005C050020FC04002037B5164B93F820345C
:1007D00004460BB918B90024204603B030BD27F0F9
:1007E00027F902AA013042F8080D012301A90E4899
:1007F00002F04AFC05460028EDD12146009A0198F6
:1008000026F08FFDDDE900231344074803F8015C5F
:10081000009902F070FC0099034802F085FC019CED
:10082000DAE700BF000700206C8B0200034BD3E91E
:100830000030C31A58425841704700BF00070020DB
:100840002DE9F04F85B0FFF7F1FF0646002840F094
:1008500018818D4DC5F81804BFF34F8F6868AC68D8
:1008600004AF47F8100D2040033005EB80003946F7
:10087000FFF730FE009B18B1D5F81824002A66D087
:1008800004EA0302991C013305EB8202234005EBC5
:100890008303D268DB68029302F00303022B019208
:1008A000009169D1BDF8063078489DF804604FEAA0
:1008B000931ABAF1500FD14628BF4FF0500969F38F
:1008C0008F1309F10801ADF8063002F074FAC6F38F
:1008D000C2068046002800F0BB8002F09BFA01A906
:1008E00000230822404602F0A8FA009924EA0107F2
:1008F0000137BF00B94538D95FFA89F997B3FFB21C
:10090000A9EB0709214003315FFA89FBB946604F23
:1009100005EB810108234A46404602F08EFA37B1C2
:1009200009F108035A463946404602F086FA009B10
:100930000AF1030A03EB9A030093D5F81834002B4D
:1009400050D1D5F81044DFF85C9107276FE02A6892
:100950009A4204D86A60304605B0BDE8F08F04EAD8
:10096000030081E74A49BB46D4E72140033108230D
:100970004A4605EB8101D7E7012B69D1BDF8046038
:100980004248C6F38311062928BF062161F3891660
:1009900002318900ADF8046002F00DFAC6F3C20618
:1009A0008046002854D002F035FA0023082201A91D
:1009B000404602F042FA0027BDF80420C2F3831239
:1009C000BB1C97424FEA8303B7D200994A1C2140CF
:1009D0000331009205EB81010422404602F02DFA1A
:1009E0000137E9E7404602F019FAFFF71FFF80F0F0
:1009F0000100C6B2AFE7E3685A79B2B11B79BDF81E
:100A0000081003EB430259F8211007FA02F3052EF0
:100A100003EA010323FA02F308BF0326B34204D317
:100A2000236841461B6820469847E3681C68002CF1
:100A3000E1D1404602F0F2F9204601F011FBD5F871
:100A400018340BB9009B6B60002001F00BFBCCE766
:100A5000D5F8104474B90F4B5B88012BC5D90E4BE8
:100A60000E480F49C01AC008000440F0020000F010
:100A700073F8BAE7236820469B689847E3681C68C8
:100A8000E8E7002667E700BF0007002090B00200FB
:100A90000C07002018050020C0AF0200F8AF0200CC
:100AA000788B02005C0500202DE9F74F284C80462A
:100AB0000F46924601A9012218469B46D4F8089099
:100AC000FFF726FD88B3019D0026A91C5E4506EBB5
:100AD000010234D100211F4801F0A2FC80F3100074
:100AE0006A1C02EA090204EB8202000405EA090317
:100AF000033340EA1840D06014F8232068F3C5029D
:100B000004F8232034F8232066F3891224F82320E4
:100B100054F82320012167F39F2244F8232061F336
:100B200001026FF3820204F8232094F820341BB1F1
:100B3000FFF786FE0028FBD103B0BDE8F08F09EA7D
:100B4000020204EB82025AF82630D3600136BDE778
:100B5000000700201C0B002000231A46FFF7A4BF4B
:100B600013B502AC012344F8042D2246FFF79CFF85
:100B700002B010BD07B5CDE9002302236A46FFF796
:100B800093FF03B05DF804FB1FB5CDE90123069B7D
:100B9000039301AA0323FFF787FF05B05DF804FB69
:100BA0001FB5CDE90023069B0293079B03936A467A
:100BB0000423FFF779FF05B05DF804FB2DE9F34747
:100BC0008046304CD01C8A46174601A90022800876
:100BD000A568FFF79DFC002840D0DDF80490A668CA
:100BE00009F10200019001362840361AB6000330A0
:100BF000B74204EB80003BD83A46514626F091FBC1
:100C00000021214801F00CFC80F3100009F10103E0
:100C10002B4004EB83034FEA184242EA0040D860BD
:100C200005EA0903033304EB830214F8231068F385
:100C3000C50104F8231034F823106FF38F1124F842
:100C40002310518867F38F11518014F8232002215B
:100C500061F301026FF3820204F8232094F8203438
:100C60001BB1FFF7EDFD0028FBD102B0BDE8F08716
:100C70003246514626F055FBBA1B0AEB060104F139
:100C80000C00BBE7000700201C0B00202DE9F843F7
:100C90001F4B8846D3F81014054600240A469AB91B
:100CA000E9680C71D3F81014A1B9C3F81054EB68BB
:100CB0001A60184F184EF61BF6084FF00009B145A0
:100CC00011D12046BDE8F883D2681079A04218D02F
:100CD0001268E4E7C968EA6809681160D3F810345B
:100CE000DB681D60E5E707EBC9034946DA79EB6885
:100CF000424528BF42461879FFF73CFD09F101093A
:100D0000DDE701340A2CC9D14FF0FF34D9E700BF29
:100D100000070020C0AF020080B0020010B5037AC7
:100D2000052B0C460FD0437A23B1084A08492046C8
:100D300001F027FC0749204601F023FC2046BDE8CE
:100D4000104001F013BC002AF8D0F3E7D38B020067
:100D5000D88B0200F88B020073B5C38804460D4699
:100D600033B1144A00921449144A284601F009FC90
:100D7000217A05291CD0637A4BB1A088FFF7E4FCE7
:100D80000F4B104953F82020284601F0FAFB227A35
:100D90000D4BA08853F822600021FFF7C1FC0B49DE
:100DA00003463246284602B0BDE8704001F0E9BB78
:100DB00002B070BDD38B0200E38B0200DB8B02001C
:100DC000A08B0200D88B0200088C0200FB8B020073
:100DD0002DE9F04385B01F460C9D002306460C46C6
:100DE000904695F80C902B7329463846FFF7B4FFD0
:100DF000B8F1060F09D8DFE808F00412181F2833ED
:100E000040003146284601F0BCFB00222946384606
:100E1000FFF784FF85F80C9005B0BDE8F0832268E9
:100E20003146284601F0ADFBEFE7D4E90023314617
:100E3000284601F0A6FBE8E7A36800933146D4E911
:100E40000023284601F09DFBDFE7E3680193A368D8
:100E500000933146D4E90023284601F092FBD4E701
:100E600023690293E3680193A36800933146D4E9B0
:100E70000023284601F085FBC7E7636903932369D4
:100E80000293E3680193A36800933146D4E90023F9
:100E9000284601F076FBB8E708292DE9F84F80468F
:100EA0000E4617461C4635D8002593F80C901D7346
:100EB00019461046FFF750FFDFF88CA0DFF88CB022
:100EC000AE4229D918F805205946204601F059FBB1
:100ED0000135082DF4D11A49DFF874B0204601F02D
:100EE00050FB4FF0000A564524D918F80A507E2DC1
:100EF00017D92E225946204601F043FB0AF1010A78
:100F0000BAF1080FEFD1012221463846FFF706FF5C
:100F100084F80C90BDE8F88F5146204601F031FB73
:100F2000D6E726F0CFF92844427812F0970FE0D0A8
:100F30002A46DFE70349204601F023FBDEE700BF36
:100F4000CE8B0200CC8B0200CA8B0200C48B020045
:100F5000D08B0200074B1B5C1F2B8ABF064A4FF049
:100F6000A04203F01F03D2F80405D840C04300F0AC
:100F7000010070476D8C020000030050074B1B5CA2
:100F80001F2B86BF03F01F0305494FF0A04101222C
:100F900002FA03F3C1F80C35704700BF6D8C0200F4
:100FA00000030050074B1B5C1F2B86BF03F01F0381
:100FB00005494FF0A041012202FA03F3C1F80835B8
:100FC000704700BF6D8C02000003005008B5002080
:100FD000FFF7E8FF0120FFF7E5FF0220FFF7E2FF40
:100FE0000320BDE80840FFF7DDBF08B50020FFF78C
:100FF000C5FF0120FFF7C2FF0220FFF7BFFF03205C
:10100000BDE80840FFF7BABF0A4B185C1F288ABF2B
:10101000094B4FF0A04300F01F00D3F80425012135
:10102000814021EA02000A40C3F80805C3F80C25F4
:10103000704700BF6D8C0200000300500B2809D0E0
:101040000C2809D0182809D019280CBF03204FF00C
:10105000FF30704700207047012070470220704722
:10106000C20710B504460CD54FF0A0430322C3F8C5
:101070003427C3F83827C3F83C27C3F84027FFF7C5
:10108000A5FFA3070AD54FF0A0430C22C3F82C27D5
:10109000C3F83027C3F86027C3F8642710BD0000E9
:1010A0000D4930B5A1F5BC720225914201D800204E
:1010B0000EE08B1ADB1093FBF5F302EBC30452F83E
:1010C0003330834205DC02DA04F10802EDE76068A0
:1010D00030BD2146E9E700BF0491020008B5FFF7E3
:1010E000DFFF024B002808BF184608BD718C0200C4
:1010F00013B502AC002304F8053D01939DF80330BD
:10110000032B08D904210DEB010002F071F930B96D
:10111000019802B010BD204602F060F9EEE7002011
:10112000F7E708B500F0AAFA00F092F8002002F004
:1011300025F920B1852802D000F0E0F8FCE7FFF7A0
:10114000D7FF26F0E1FB02F0D3F910B900F0D6F892
:10115000FCE708BD01F088BE08B500F0CFF8FCE759
:1011600062B6704772B67047FFF7C2BF00F0CCBAE4
:1011700038B50D4614465AB151B148B102F0FCF9E8
:101180002946204602F0CEF910B900F0B7F8FCE786
:1011900038BDEFF30580003018BF01207047000014
:1011A000F7B54FF0805300251C6E596E04F0FF0711
:1011B00045EA010206A5D5E9004502A9224347EA0E
:1011C000050361E90223082226F0ABF803B0F0BD65
:1011D000000000000036CEF400487047BC0B002031
:1011E000704701F057BE704708B502F0E7F80748AE
:1011F000074A0378D35C23B10430BDE8084003F00C
:101200009BBA0C30BDE8084003F046B8000000204F
:101210006434002008B5002002F0B0F810B100F0EE
:101220006DF8FCE7BDE80840FFF740B910B504468B
:1012300058B1FFF7D9FF204600F082FA01F02AFEEC
:1012400000F09CFA0446FFF7E5FF204610BD0000C1
:1012500008B509F0F7FB48B9054B1B7813B9054BE6
:101260001B781BB1BDE8084009F0F2BB08BD00BF08
:10127000B5020020B80200202DE9F84307460E46CB
:1012800009F0E0FB58B1184C184BDFF86890DFF814
:101290006880E41AE408240444F003040EB9BDE8AD
:1012A000F883D9F80000C0F10805B542A8BF35465B
:1012B0002A463946404426F034F8D9F800202A441A
:1012C000082AC9F800202F44A6EB0506E6D1084BF2
:1012D0005B88022B03D941462046FFF76FFC0023B1
:1012E000C9F80030DAE700BF78B00200C0AF0200F2
:1012F00058050020080C0020000C002010B50C4CF4
:10130000226882B10B4B5B88022B0AD90A480B4B2F
:101310000B49C01AC008000492B240F00300FFF766
:101320004DFC00232360BDE81040FFF789BA00BFE1
:10133000080C00205805002078B00200C0AF020061
:10134000000C00200378022B01D809F08FBB7047F6
:101350004FF0102358694FF08053411C1A695B69A4
:1013600008BF03FB02F0A0F5A040704710B54FF096
:1013700010234FF080525B69116952690B4C581C65
:1013800008BF02FB01F32361FFF7E2FF084BE060B7
:1013900000220849C3F80821204601F0B5FA18B127
:1013A000BDE81040FFF7D8BE10BD00BFBC0500204F
:1013B0000C0C0020C49302004FF400507047022030
:1013C000704708B513460A4631B143B10146184685
:1013D00025F0A7FF002008BD6FF00A00FBE76FF0C3
:1013E0000B00F8E70128F8B507460C4616461D46DF
:1013F00010D80B44B3F5005F0FD28AB19DB1FFF74F
:10140000A7FF04EB473101442A46304625F089FF07
:101410000020F8BD6FF03800FBE76FF01600F8E72A
:101420006FF00B00F5E76FF00C00F2E70128F7B55D
:1014300007460C4616461D4624D80B44B3F5005FFC
:1014400023D22AB3AB0826D0FFF782FF04EB473440
:10145000044409F013FB07460028FAD109F0FEFA0C
:10146000214600972B4632460C4801F089FA044683
:1014700009F004FB0028FBD1201C18BF01204042CA
:1014800003B0F0BD6FF03800FAE76FF01600F7E731
:101490006FF00B00F4E76FF00C00F1E7BC050020E3
:1014A00001282DE9F041064624D8FFF751FFDFF867
:1014B000508000EB463505F5005709F0DFFA044689
:1014C0000028FAD109F0CAFA2346012229464046EB
:1014D00001F016FB88B909F0D1FA04460028FAD1C8
:1014E00005F58055BD42E8D1304609F0CFFA2046D7
:1014F000BDE8F0816FF03800FAE74FF0FF30F7E712
:10150000BC05002010B5084CD4F8083153B19BB28B
:101510002246D4F8041194F80001FFF787FF002356
:10152000C4F8083110BD00BF0C0C00202DE9F843B1
:101530001C4C1E46D4F8083181460F4690466BB1CC
:1015400094F80021824207D1D4F804211A44914230
:1015500002D1B3F5807F01D1FFF7D4FFD4F80801A1
:1015600018B984F80091C4F80471C0F58075B542CB
:1015700034BFADB235464DB12A464146204425F030
:10158000D0FED4F808312B44C4F80831761BB6B22B
:1015900016B93046BDE8F883FFF7B4FF2F44A844DE
:1015A000DCE700BF0C0C002007B50C4B186800905E
:1015B000FFF7CEFE042200F580410DEB020025F07E
:1015C000B0FE042269460DEB020025F09BFEB0FA46
:1015D00080F0400903B05DF804FB00BF0A910200EF
:1015E00038B505460C46FFF7B3FE00F580402A46A5
:1015F00021460430BDE83840FFF7E3BE70B506462B
:101600000D461446FFF7A4FE04F580440434324628
:1016100029462044BDE87040FFF7D3BE004870471C
:101620001091020004220321027081700022062121
:101630004270C170426070477047B0F5A27F01D11F
:1016400009F026BA7047000010B5084CFFF78AFD74
:101650002378012B05D1FFF7E1FF02F0ABFB00235C
:101660002370BDE81040FFF77BBD00BF300D0020A8
:10167000014B1878704700BF300D00201FB502A83D
:10168000FFF7D0FFFFF7CAFF104A02A902F00CFBD8
:1016900008B1FFF761FDFFF7C1FF0368D3F81045FC
:1016A000FFF7BCFFE2B24FF47031012421FA02F2DD
:1016B00002232146009402F0D9FBFFF7AFFF02F0AE
:1016C0005FFB034B1C7004B010BD00BF3B16000055
:1016D000300D002008B5FFF745FD0A4B1B782BB9EC
:1016E000FFF7CCFFBDE80840FFF73ABDFFF796FFD4
:1016F00002F088FB0028F5D1FFF790FF02F040FBD5
:10170000F0E700BF300D002038B5FFF72BFD0B4B85
:101710001B78012B0FD1FFF781FF022102F07EFB26
:1017200004460CF061FF0546FFF71AFD4FF47050B8
:1017300000FB054038BD0024F3E700BF300D00205A
:1017400010B5044625F02AFC094B186074B1094B0A
:10175000094A18604FF47A706043002158609A601B
:10176000D9601846BDE8104025F024BC10BD00BF6C
:10177000180D00201C0D00203916000008B525F0BA
:101780000DFC054B1B68C3F57973033318444FF404
:101790007A73B0FBF3F008BD180D002030B50F4D83
:1017A0008BB021F031FB0FCD01AC0FC40FCD0FC4B6
:1017B0002B68236001A824F089F8FFF711FD0120B0
:1017C00021F094FB21F046FB032801D121F04EFBD0
:1017D000012021F08DFB0BB030BD00BF189102003D
:1017E00021F00EBB07B502AB23F8020D184621F01D
:1017F00005FB03B05DF804FB07B502AB23F8020D4F
:10180000184621F0FFFA03B05DF804FB10B54FF461
:1018100070544443204621F046FB0028FAD010BD06
:1018200021F0D6BA21F0E3BA10B5044621F0E1FA6E
:10183000207010BD003018BF012021F057BB0030D0
:1018400018BF012021F050BB08B921F012BB21F0D4
:1018500018BB08B521F0FEFAC31E5842584108BD16
:1018600008B521F0F7FA023818BF012008BD10B5FD
:101870000446012C104603D0042C05D0002002E0C1
:1018800021F038FB204610BD0021BDE8104021F0BA
:10189000FEBA10B50C46FFF79FFC036A01330362E2
:1018A0002046BDE8104004F009BA21F001BB10B594
:1018B0000C46072942D8DFE801F004171D23292F21
:1018C000353BFFF789FC436A01334362012000FA8C
:1018D00004F414F0DA0F03D114F0240F2ED00420F6
:1018E000BDE8104004F024BAFFF776FC836A0133A8
:1018F0008362EBE7FFF770FCC36A0133C362E5E77D
:10190000FFF76AFC036B01330363DFE7FFF764FC57
:10191000436B01334363D9E7FFF75EFC836B01330D
:101920008363D3E7FFF758FCC36B0133C363CDE791
:10193000FFF752FC036C01330364C7E710BD2DE9C8
:10194000F04105460E4617469846FFF745FC0468E9
:101950000134046043463A4631462846BDE8F0412A
:1019600004F00ABA08B506280AD8DFE800F0040D2A
:1019700013191F252B00FFF72FFC43680133436029
:10198000134B00221A6008BDFFF726FC8368013361
:101990008360F5E7FFF720FCC3680133C360EFE71E
:1019A000FFF71AFC036901330361E9E7FFF714FC51
:1019B000436901334361E3E7FFF70EFC83690133B9
:1019C0008361DDE7FFF708FCC3690133C361D7E733
:1019D00060400020C30710B507D4F0234008054A33
:1019E000145C23401943115410BD0901C9B20F23DF
:1019F000F4E700BF400D002030B5094B1C78094BBF
:101A0000196800239C4202DC0022104630BD11F808
:101A10003350854201EBC302F7D00133F2E700BF38
:101A2000310D0020600D002070B504460D46FFF713
:101A3000E3FF30B1436823B129462046BDE870403A
:101A4000184770BD034B044819680022490800F08C
:101A500002BA00BF340D00202000002010B5C0B233
:101A6000FFF7CAFF0446007801F09EFF63785A1E14
:101A700053425341834208D1044BD3E9002313431B
:101A800003D1BDE81040FFF7DDBF10BD380D0020C9
:101A90002DE9F048384A43080446D35CC2074CBFDE
:101AA0001B0903F00F030D46042B63D8DFE803F096
:101AB00003262F3B3E0000295CD00121FFF78AFF5F
:101AC000002000F0CDFA2D4E0121A4F12007C4F131
:101AD000200521FA05F501FA07FC4CEA050C01FA8C
:101AE00004FBD6E900454BEA04024CEA0503C6E9CB
:101AF00000230020BDE8F04800F0B4BA002914BF6C
:101B0000022100212046BDE8F048FFF763BF41B144
:101B10000321FFF75FFF20460121BDE8F048FFF7F2
:101B200083BF0121EEE729BB0421EBE709B10321C3
:101B3000E8E7FFF74FFF29462046FFF775FF2846E5
:101B400000F08EFA0D4E0121A4F12007C4F120000F
:101B500001FA07FC21FA00F04CEA000C01FA04FB40
:101B6000D6E9000120EA0B0221EA0C03C6E90023B2
:101B70002846BFE7BDE8F088400D0020380D002062
:101B80002DE9F041124E134F00243378A34208DCB4
:101B9000114BD3E90023134318D0BDE8F041FFF700
:101BA00051BF3D6805EBC40815F8340001F0FCFE98
:101BB00098F801104B1E594259410A1A514215F822
:101BC00034005141FFF764FF0134DEE7BDE8F081E6
:101BD000310D0020600D0020380D0020092AF7B5D6
:101BE00005460C4616463FD901F004FED8B11F4BFE
:101BF0001F481D601F4B204F1C70204B00212022CE
:101C00001E6025F0B2FB1E4B00200021C3E900013D
:101C1000013CE4B20326FF2C0BD11A4A1A480021DA
:101C200000F00EF903E001F0AFFD0028DFD003B0B3
:101C3000F0BD9DF806308DF8046020B203F0FC037F
:101C400005EBC0026FF382038DF80630937815F828
:101C500030008DF805303A4601A901F0D5FD013C70
:101C6000E4B20028D7D0E2E70720E0E7600D0020CB
:101C7000400D0020310D00205D1A0000340D0020C1
:101C8000380D0020811B00003C91020070B5084D0A
:101C9000084E00242B789C4201D3002070BD33688D
:101CA000012113F8340001F035FE0134F2E700BFE2
:101CB000310D0020600D00201FB50021039001AA06
:101CC00044F20100CDE90111FFF78DFA05B05DF88E
:101CD00004FBD0E90223D1E90201994208BF9042F6
:101CE0002CBF0120002070472DE900480C4800F06F
:101CF000F1FA0C4BD3E9002312EB000B43F1000C7B
:101D0000094BD3E900239C4508BF934558466146DB
:101D100003D21BF180704CF10001BDE8008800BFC8
:101D20005C000020680D0020D00D002037B505466E
:101D30000C460A4801A900F0FEFA60B10570446043
:101D400001A9064800F021FB18B1054800F0C6FAC9
:101D5000002003B030BD0420FBE700BF4800002096
:101D60005C0000202DE930481A4B1B7804461BB953
:101D700000252846BDE830880028F9D090F82030AA
:101D800003F0FF05002BF3D0FFF7AEFFD4E90223E9
:101D9000994208BF904217D323690BB984F82030C9
:101DA000D4E90530984721690029E1D094F8203022
:101DB00003F0FF05002BDBD0D4E9022312EB010B6B
:101DC00043F1000CC4E902BC2146034801F0C9F903
:101DD000CFE700BF700D00207491020013B5114BC6
:101DE00011491868019008235822104800F090FA11
:101DF000044698B90E4A0F4801A900F043F9044679
:101E000060B901210B4800F045FA01230A4A09484C
:101E1000194600F0A3F9094B01221A70204602B0BE
:101E200010BD00BF70910200740D0020480000201A
:101E3000A51E00005C000020FFFF7F00700D002049
:101E40003AB103685A614A1E51425141196100205A
:101E500070470720704738B590F8203004460D468B
:101E600083B98261FFF740FF421941F10003C4E9E1
:101E70000223236903B1256121460020BDE83840D3
:101E8000FFF754BF002038BD0023014680F8203002
:101E90000120FFF74BBF0000014800F01BBA00BF54
:101EA0005C0000202DE9F74F064600F0FCF940B138
:101EB0005A49D1E9002312F1807443F10005C1E9C8
:101EC00000450021304600F0FEF938B1544C23683B
:101ED00023B12068FFF746FF00232360012130462D
:101EE00000F0F1F920B1FFF7FFFE4E4BC3E900010E
:101EF00001A94D484A4D4D4C4D4F00F056FA00286F
:101F000045D1DFF828A1464CDFF82CB1504601F04E
:101F10003EF92368002878D083B12368D0E9020114
:101F2000D3E90223994208BF90422DD2236893F847
:101F300020301BB12168504601F013F9504601F0E2
:101F400020F9D0E902890746FFF7CEFEB8EB00087A
:101F500069EB010940464B46012873F1000347DB5A
:101F6000344DA84542D9FFF797FF42194FF4960325
:101F70000021584600F016F9002841D1236813B912
:101F8000304600F0E3F8276003B0BDE8F08F037837
:101F9000012B20D00BD3022B14D14FF00008204688
:101FA00001F0EFF8002836D080F82080F7E743688A
:101FB00093F8202032B9012283F82020416820467E
:101FC00001F0CFF801A9184800F01AFA01A9164843
:101FD00000F0EBF993E741682B68994202D10023A6
:101FE0002B60EFE7204601F0D5F8EBE7BA68BDE7D4
:101FF0000021584600F05CF93846FFF7B3FE01E0D7
:102000000D28F9D00023236080E7002BBCD1304697
:1020100000F0A0F8B8E701233B70D3E7680D00207B
:10202000D80D0020D00D002048000020749102003F
:10203000700D0020FFFFB4005C00002072B6024A61
:102040001368013313607047DC0D0020034A1368E6
:10205000013B136003B962B6704700BFDC0D00207E
:10206000FFF7ECBFFFF7F2BF435882B03BB100234C
:10207000435043580193019B012002B0704718461A
:10208000FBE7000070B5284C4379284D44F8232025
:10209000274C04EBC3031B7973B16B88012B09D95F
:1020A0002448254B2549C01AC008000440F002000E
:1020B000FEF752FD082070BD03680A88C3F80825A2
:1020C00090F904308A78002B4FEA4212AFBF03F137
:1020D000604303F00F031A49D2B2A9BF03F561436D
:1020E000CA54D2B283F8002390F9043015495E092E
:1020F000012203F01F0302FA03F341F8263043796B
:1021000004EBC30144F833006B880A71022B09D930
:102110000848094B0C49C01AC008000440F00300ED
:10212000FEF71AFD0020C6E7E80D0020200500207C
:10213000E00D002008B00200C0AF0200A69102002E
:1021400014ED00E000E100E0C89102000368012204
:102150001A607047036801225A607047F7B5056836
:102160004FF480348C40C5F808430568C5F84843EF
:102170008D0005F5A0750668ADB200277751755939
:102180000195019D056801F5A87122F07F4245F88F
:1021900021200268C2F8444313B10368C3F8044322
:1021A00003B0F0BD2DE9F34799464FF4803803683A
:1021B00008FA01F8C3F848830368C3F8088322F0DB
:1021C0007F4502688E000F46D2F80415324406F5AA
:1021D000A076D2F84035C2F84015B6B202684FF08A
:1021E000000A42F806A05B1A9259009223F07F433E
:1021F000012B0446009A0BD1254B4FF4806043F02D
:1022000001039847236843F806A09B590193019B5B
:102210002368D3F80465C3F84483AB1B23F07F43E2
:10222000012B07F5A877236819D1013543F827500A
:10223000174B4FF4806043F0010398472368D3F8AD
:1022400004359E4209D12368C3F8448323680020E3
:10225000C3F8048302B0BDE8F0870D20FAE743F825
:1022600027502068D0F804156A1A013AC9F1FF1303
:1022700022F07F4203F57F439342EED3002AE2D15E
:10228000013540F827502368D3F804359942D9E73F
:10229000A091020002680223C2F8443311B102681F
:1022A000C2F8043370474FF482710068FFF7DCBE58
:1022B0004FF4803303FA01F10368C3F8481303684D
:1022C000C3F808137047890001F5A07189B200684E
:1022D000FFF7CABE0368D3F80405704790F90430CD
:1022E00001215A0903F01F0301FA03F340320249A6
:1022F00041F82230704700BF00E100E0024B034A82
:102300001B681068184700BFE80D0020E00D002092
:1023100010B561B1B2FBF3F403FB1424A4B244B9C9
:10232000C0E9001484608281C381204610BD0E2064
:10233000FCE70920FAE737B550E8013F9DB2C489B0
:1023400025448489A54228BF2D1B0489A54202BFCC
:10235000BFF32F8F002207E0C5EA030540E80154D0
:10236000002CE9D14FF001028DF803200193019B6D
:102370009DF803200B6002F0FF0322B10B88006878
:10238000184403B030BD1846FBE70A884B889A42D0
:1023900009D150E8012FC2EA024240E80123002B94
:1023A000F7D1012070470020704737B550E8023F51
:1023B0001FFAA3F5C488A54202BFBFF32F8F0022E6
:1023C0000DE0C48925448489A54228BF2D1BC3EA9A
:1023D000054540E80254002CE8D14FF001028DF889
:1023E00003200193019B9DF803200B6002F0FF0383
:1023F00022B14B880068184403B030BD1846FBE793
:102400000A884B889A4209D150E8022FC2EA224238
:1024100040E80223002BF7D10120704700207047CD
:1024200050E8002F0B4640E8003C9CF0000FF7D12D
:102430001046704750E8002F42EA010340E8003C94
:102440009CF0000FF6D11046704750E8003F43EA79
:10245000010240E8002C9CF0000FF6D110467047B6
:1024600050E8002F02EA010340E8003C9CF0000F16
:10247000F6D11046704750E8003F03EA010240E8F9
:10248000002C9CF0000FF6D11046704750E8003F3A
:1024900003EB010240E8002C9CF0000FF6D110463F
:1024A000704750E8003FA3EB010240E8002C9CF08D
:1024B000000FF6D1104670470121FFF7BBBF012185
:1024C000FFF7C3BF0021FFF7CBBF0021FFF7D3BF4A
:1024D00010B590B1D0E9012301689B1ADBB20A6004
:1024E000013BDBB2FF2B026802D10020107110BD4E
:1024F00011684C1C14600B70F2E70E20F7E738B53A
:1025000004460020FFF7ACFD2268616813688B4227
:1025100015D9591E116013F8015CA28AE36802FB09
:1025200005352268A36811685B1A1179DBB29942FC
:1025300000D213710020FFF795FD284638BD002515
:10254000F8E738B5054600200C46FFF789FD2A68F4
:102550001368591C1160E968641AA98AB4FBF1F484
:102560001C700020BDE83840FFF77CBD10B58268C4
:1025700004462AB143690168006998470023A360B3
:1025800010BD0EB403B5039929B102AA04AB42F8F9
:10259000043D00F073F802B05DF804EB03B070473F
:1025A0000A2938B504460D4602D10D21FFF7F8FF80
:1025B000A3682268591CA160D554D4E901329A421B
:1025C00004D32046BDE83840FFF7D0BF38BD000037
:1025D0002DE9F84F9946DDE90A43174682468846B9
:1025E0000A460126BA420FD24E4538BF4E4613F076
:1025F000010B01D164B900240125B9F1010F1AD9E9
:1026000009F1FF397D43F8E7B2FBF7F20136E9E75C
:102610009B070ED5B9F1000F0CBF30252025A6422F
:10262000EAD2013C29465046FFF7BAFF002CF6D10A
:10263000E1E72025F3E7B8FBF5F39F42E2D9DFF8A5
:102640003890B8FBF5F3504619F8031005FB1388D2
:10265000FFF7A6FFB5FBF7F5002DF2D1BBF1000F98
:1026600002D00CB1A64201D3BDE8F88F202150461C
:10267000013CFFF795FFF4E7DA9102002DE9F74FEF
:10268000054690460E46002900F03A8116F8011BD7
:10269000002958D0252940F0D180002702E047F0DA
:1026A00001071646324612F8013B2D2BF7D0302B8E
:1026B00004D02B2B05D147F00407F2E747F00207BF
:1026C000EFE700242A2B06F101021BD1D8F80030D5
:1026D000191DC8F800101B6816461C4433782E2BB1
:1026E0001CD101364FF0000A314611F8012BA2F13E
:1026F0003000092814D80A2303FB0A23A3F1300A67
:102700000E46F1E712F8013CA3F130010929E5D8A2
:102710000A2101FB0434303C1646D3E74FF0000A8F
:10272000324612F8011B01F0FB0068281646F8D06B
:10273000692916D054D8582970D00ED825297DD0B3
:102740003378002BA2D12B7B002B00F0D9802846B8
:1027500003B0BDE8F04FFFF709BF632968D06429D3
:10276000EED1D8F80020111DC8F80010D2F8009062
:1027700089EAE972A2EBE9724FF0010B092A61DCE8
:10278000D34538BFD3462CB1B9F1000F01DB79072F
:1027900000D5013CBA0702D5BAF1000F04D0FB07FF
:1027A00002D4002C54D10024B9F1000F58DAC9F139
:1027B00000092D212846FFF7F3FE07F00302022A45
:1027C00005D1BAF1000F02D1002C4DD10024CDE982
:1027D000004753460A2249462846FFF7F9FEAFE76D
:1027E000732954D016D87029AAD1D8F800301A1DF0
:1027F000C8F80020302128461C68FFF7D1FE782158
:102800002846FFF7CDFE00220823CDE900322146FD
:102810001022E1E775292FD0782991D1D8F800103E
:102820000A1DC8F80020CDE90047534610222CE0CD
:10283000D8F800301A1DC8F8002019782846FFF78C
:10284000AFFE7DE70A230BF1010B92FBF3F295E754
:10285000A345A9D220212846013CFFF7A1FEA0E70D
:102860007807AAD52B21A5E7A345B0D23021284669
:10287000013CFFF795FEA7E7D8F80010CDE9004727
:102880000A1DC8F8002053460A220968A4E7D8F8B0
:1028900000301A1DC8F80020F907D3F8009012D5AF
:1028A0004F46A7EB090B17F8011B41B9A345BFF42D
:1028B00047AF20212846013CFFF772FEF6E7284685
:1028C000FFF76EFEEDE7B9F1000F17D0484625F08F
:1028D000AFF80746BC4200D954B909F1FF3919F8DD
:1028E000011F00293FF42CAF2846FFF759FEF6E7F9
:1028F00020212846013CFFF753FEEBE74F46E9E76E
:1029000003B0BDE8F08F000007B50B46A0B9154B2A
:102910005B886BB1144B1548154AC01A0E23C008CA
:102920000093144B0004144940F00100FEF72CF909
:102930000E2003B05DF804FB6BB90A4B5B88002BDB
:10294000F6D0094B09480D4AC01AC0080E2300935F
:102950000004084BE7E703601B68114603B05DF80D
:1029600004EB184744050020C0AF020050B002003D
:1029700097920200EA9102009C92020013930200D7
:102980002DE9F3419646B0B9504B5B88002B00F01F
:1029900095804F4B4F48504AC01AC0080E244F4BE9
:1029A000009400044E4940F00100FEF7EDF8204687
:1029B00002B0BDE8F0816AB9444B5B88002B7DD042
:1029C000434B4448474AC01AC0080E2400040094F0
:1029D000424BE7E7D0F800C0BCF1000F0DD13B4BF4
:1029E0005B88002B6CD03A4B3A483F4AC01AC0086B
:1029F000082400040094394BD4E76BB9334B5B884F
:102A0000002B5FD0324B3348384AC01AC008092423
:102A100000040094314BC5E74768D7F80480B3FB46
:102A2000F8F708FB17376FB1284B5B88002B49D0AC
:102A3000274B28482E4AC01AC008092400040094D5
:102A4000264BAFE78F070DD0204B5B88002B3BD088
:102A50001F4B2048274AC01AC008102400040094C5
:102A60001E4B9FE712F0030F0CD0184B5B885BB333
:102A7000174B1848204AC01AC008102400040094BC
:102A8000164B8FE7C768B9420BD34C1E05691C442F
:102A9000AC4206D8DCF80C40A44602B0BDE8F041D8
:102AA00060470A4B5B887BB1094B0A48134AC01A3E
:102AB000C008102400040094084B73E70E2476E746
:102AC000082474E7092472E7102470E74405002005
:102AD000C0AF020050B0020097920200FC910200C9
:102AE0009C920200199302000D930200CC92020006
:102AF0001F93020049930200619302008493020035
:102B0000F7B5A0B9374B5B88002B63D0364B3748FD
:102B1000374AC01AC0080E24364B009400043649C8
:102B200040F00100FEF730F8204603B0F0BDD0F8C9
:102B300000C0BCF1000F0DD12A4B5B88002B4BD09D
:102B4000294B2A482D4AC01AC008082400040094C2
:102B5000284BE4E76AB9234B5B88002B3ED0224B1D
:102B60002248274AC01AC008092400040094214BB7
:102B7000D5E74768D7F800E00EF1FF370F420CD0D9
:102B8000184B5B8863B3184B18481E4AC01AC0081C
:102B9000102400040094174BC1E7C768B9420CD356
:102BA0004C1E05690EFB0244AC4206D8DCF810400E
:102BB000A44603B0BDE8F04060470A4B5B887BB198
:102BC000094B0A48104AC01AC00810240004009497
:102BD000084BA4E70E24A7E70824A5E70924A3E7E8
:102BE0001024A1E744050020C0AF020050B002004D
:102BF000979202000F9202009C9202000D93020035
:102C0000CC9202002292020048920200014B4360E3
:102C100000207047B89302000846704700207047B4
:102C2000024B1868003018BF01207047EC0D0020DF
:102C300008B50248FFF749FC002008BDEC0D002054
:102C400008B510461A4624F06CFB002008BD0000B1
:102C50002DE9F041804686B013480E4615461F46C2
:102C6000FFF72AFC044630B1112018E006EB0430CF
:102C700000F092FC0134A542F8D10B48FFF725FC87
:102C8000D8F8083000246BB1022268468DF8002085
:102C9000CDE90146CDE9034505979847204606B0A2
:102CA000BDE8F0811846FAE7EC0D00202DE9F0416F
:102CB000804686B012480F4616461D46FFF7FCFBBD
:102CC0000446D8B9AA083146384600F07DFC0C48C5
:102CD000FFF7FBFBD8F8083073B101228DF8002014
:102CE0000C9A05926846CDE90147CDE903659847FE
:102CF000204606B0BDE8F0811846FAE71120F8E753
:102D0000EC0D00202DE9F047B0F806904479D2F898
:102D100000A09DF8208009FB04F4043C06460AEB61
:102D20000300A0420F4688BFA4EB030A191DC2F896
:102D300000A0B1FBF9F509FB15114DB9A9EB010490
:102D4000544528BF5446BAF1000F04D1BDE8F087BE
:102D50003668013DF1E704317B1970182246B8F15D
:102D6000000F0ED001461846AAEB040A24F0D9FA47
:102D7000D145254436684C464FF0000128BF5446E3
:102D8000E1E71946F0E7FFF7A3BBF8B5467901463E
:102D9000721E0546002393422D6803D30024A642E9
:102DA00002D8F8BD0133F6E70F682846FFF7C9FBE4
:102DB00001343946F3E72DE9F843CD1C868A0746EE
:102DC000FFF79DFB043E35440446B5FBF6F5F0B134
:102DD0004FF48073EDB28380C680013D0760814669
:102DE0004FF00008A84512D23846FFF788FB064688
:102DF00048B163790133637108F10108C9F8000033
:102E000007608146EEE72046FFF7BFFF34462046C5
:102E1000BDE8F88301210430FFF738BB10B501216C
:102E200004460430FFF73DFB10F0FF0F04D12046AD
:102E3000BDE81040FFF7A9BF10BD1FB504AC44F8B2
:102E4000042D002200922246FFF75CFF04B010BD63
:102E50001FB504AC44F8042D012200922246FFF76E
:102E600051FF04B010BD0000064B10B500241C70CB
:102E7000054B1C60BFF35F8F0449054800F068F9FB
:102E8000204610BDF80D0020FC0D0020E493020048
:102E9000F00D002008B50020FFF7E2F8F1EE103A3F
:102EA00023F09F03E1EE103ABFF35F8F054B402202
:102EB000C3F884210020FFF7D5F820BF40BF20BF12
:102EC00008BD00BF00E100E0026813685268934249
:102ED00091BFD01A80680130801888BFC01A70472F
:102EE0002DE9F04103681F681D685B689D4284BF3F
:102EF00083680133164688465D1BC2684168AE424E
:102F0000044607FB02110CD87243404624F009FA2C
:102F1000A3683E449E4288BF002623681E60BDE829
:102F2000F08105FB02F73A46404624F0FAF9E268E0
:102F30006168751B6A4308EB070024F0F2F9236807
:102F40001D60ECE7036881681A685B688B4234BFD8
:102F500001330023D31A584258417047F8B504464C
:102F600000200D46FFF77CF82046FFF7EBFF10B17D
:102F7000237C002B3DD12168A6684B684A68B24289
:102F800034BF013200224A6038B12168A0680A6863
:102F9000824234BF013200220A60E2686068511E3A
:102FA000072920D8DFE801F004101F141F1F1F1885
:102FB0002A78C2542046FFF787FF23689A68824226
:102FC00000D29860002415E02A8820F81320F1E749
:102FD0002A6840F82320EDE7D5E9006700EBC3003D
:102FE000C0E90067E6E7294602FB030024F099F9EF
:102FF000E0E704240020FFF735F82046F8BD70B55F
:1030000005460E46144682B10020FFF729F82846EF
:10301000FFF75AFFA0420AD3224631462846FFF75F
:103020005FFF00240020FFF71DF8204670BD052437
:10303000F8E710B504460020FFF712F820680C22CC
:10304000002124F092F90020BDE81040FFF70AB8F3
:1030500010B504460020FFF703F82046FFF734FFC1
:1030600004460020FEF7FEFF204610BD82680023C4
:10307000936082681361826853618268D36082685A
:103080005360826813607047F8B505460F461646D0
:103090001C4683B9AB686868D3E9031300F1010CDF
:1030A000CA1A62450ED10027376014B3A868FFF72B
:1030B0000CFA0020F8BD8068FFF7FEF90028E9D07F
:1030C0001120F7E701EA00021840824236BF63444C
:1030D000ACEB02035B1A3168994294BF31603360F4
:1030E0002B6813443B60AA683168D3680B44D360F3
:1030F000DFE72046DEE738B5846843682569A268C3
:1031000001332B449B1A8B420CD30A44A260836880
:103110009A68DA608068FFF7D5F900280CBF0820AC
:10312000002038BD0420FCE710B58268136994685C
:10313000E41A8C420AD30B44136183681A695A61FA
:1031400080680430FFF7C1F9002010BD0420FCE7BF
:1031500001600B6843604A68934204BF00234360E8
:10316000704770B5446806460D46206818B1B368CC
:103170002946984718B923682B60256070BD2468DC
:10318000F3E74368186808B102681A60704743683B
:10319000186870474368186800B970478842026829
:1031A00002D11A600120704703461046F4E70B7BFA
:1031B00023B14B6803600023037170470B68036001
:1031C0000123F9E710B503684A688968D41A8C426C
:1031D0008BBF5B1800230360026098BF037110BDB2
:1031E00010B503680A6889689C1A8C428BBF5B1A09
:1031F00001230360026098BF037110BD10B503790D
:1032000004461BB1FFF7DEFF206810BDFFF7E8FFA3
:10321000FAE7000038B5084C04F108030546002819
:1032200018BF1C4623682BB11A6822605B682846C9
:103230009847F7E738BD00BF080E002020B9054BBE
:1032400001225A70FFF7E6BF012802D1014A9070AF
:10325000F8E77047000E002038B5094C23786BB9A9
:1032600008486360A3602361E36000F0CDF9054680
:1032700000F0D6F901232370284638BD8525FBE7E9
:10328000000E00203D32000038B5134CA3780546EF
:1032900003F0FF0073B115B16B680120984700205F
:1032A000FEF7DEFEE3680133E3600020BDE838404E
:1032B000FEF7D8BEFEF7D4FE25B1226913463BB90E
:1032C0002A602561E368002BECD100F0BBF9E9E747
:1032D0009D42F7D01B68F2E7000E002038B5134C72
:1032E0006378054603F0FF0073B115B16B680020E9
:1032F00098470020FEF7B4FE636801336360002046
:10330000BDE83840FEF7AEBEFEF7AAFE25B1A268C2
:1033100013463BB92A60A5606368002BECD100F02E
:10332000A3F9E9E79D42F7D01B68F2E7000E002001
:1033300038B5084C0020FEF793FE6368013B6360DC
:10334000656815B900F0A2F965700020BDE8384045
:10335000FEF788BE000E002007B502A901F8010D96
:103360000548FFF7FBFD0448FFF7ECFD08B100F04E
:1033700069FC03B05DF804FBA8AF020038B50C4D42
:103380002B7893B90B4B0C49002808BF18460388CB
:10339000284620F8013F00F015FC044618B900F05B
:1033A0003FFC01232B70204638BD8524FBE700BF7E
:1033B000640E0020089402005933000008B500F0A4
:1033C00041FC00F047FC0348FFF733FE024B0022AC
:1033D0001A7008BDA8AF0200640E002010B50446A4
:1033E0000248FFF735FE207010BD00BFA8AF0200F5
:1033F00010B50A4601460448FFF701FE044600F0F6
:103400000FFC204610BD00BFA8AF02001FB5037817
:103410008DF800304368019383688DF80830C368E5
:103420000393054A054B684653F8213052F82110A2
:10343000984705B05DF804FB680E0020700E002070
:103440001FB503788DF800304368019383688DF8C9
:103450000830C3680393054A054B684653F821308A
:1034600052F82110984705B05DF804FB680E002063
:10347000700E0020F0B5194B0778DFF870E043F8C4
:103480002720174B94460A6943F827204B7F0EF8F4
:1034900007300C4606460FCC89B06D460FC594E840
:1034A0000F0085E80F00337804971EF8033053B1FE
:1034B000BCF1000F0B4A694608BF0022301D01F025
:1034C00047F809B0F0BDBCF1000F074A694608BFD4
:1034D000002206F10C0000F0F7FDF2E7700E00206C
:1034E000680E00200D3400004134000064340020D8
:1034F000074A084B1360084A03F110011160074A9C
:1035000003F120011160064A0120C2F8043570471A
:10351000B00E0020800E00207C0E0020780E0020CF
:1035200000E0004010B5114B04461868884202D0F4
:10353000102223F0F6FE0E4B0022C3F800210122D8
:103540001A604FF08070D3F8002162B10022C3F8F6
:103550000021084B1968A14203D01022204623F015
:10356000E0FE012001E00138EDD110BD7C0E00200D
:1035700000E00040780E0020024B0146102218683F
:1035800023F0CFBEB00E0020024AD2F80034002B48
:10359000FBD0704700E001400A4908B50223C1F89A
:1035A0000435BFF36F8FBFF34F8FC1F80805FFF7E6
:1035B000EBFF0023C1F80435BFF36F8FBFF34F8FCC
:1035C00008BD00BF00E001400E4B10B50124C3F858
:1035D0000445BFF36F8FBFF34F8F01EB8204401A96
:1035E000A14208D1074B0022C3F80425BFF36F8F17
:1035F000BFF34F8F10BD431851F8042B1A60FFF72B
:10360000C3FFEDE700E00140044A137923B901212B
:10361000106011711846704785207047B40E002065
:10362000074B1A68D2075FBFC02283F8002301222C
:103630001A604FF080430122C3F81825704700BF7D
:1036400000E100E0074B00221A6082B01B68019382
:10365000019B4FF080430222C3F8042301229A60A9
:1036600002B0704704010040074B00221A6082B08C
:103670001B680193019B4FF080430122C3F8042390
:103680001A6002B0704700BF00010040064B0122E3
:103690001A604FF08042D2F80C3403F00113B3F1FA
:1036A000011FF8D0704700BF0400004007B5134B5E
:1036B0001A6862B1002018601B680093009B4FF0ED
:1036C00080430122C3F808230D4B1B6898470D4B1C
:1036D0001A6882B100221A601B680193019B4FF0A7
:1036E00080430222C3F80823054B1B68012003B066
:1036F0005DF804EB184703B05DF804FB00010040DF
:10370000B40E00200401004000F1804000F5C040EC
:10371000002382B0036003680193019B02B07047ED
:1037200003681F2B83BF03F01F03036001484FF0A2
:10373000A04070470003005007B502AB43F8040DEA
:103740001846FFF7EDFF019B00EB8300D0F8003730
:1037500023F44033C0F80037D0F8003743EA014182
:10376000C0F8001703B05DF804FB0000054B4FF0F4
:10377000FF32072843F8202084BF1B1883F852200B
:10378000704700BFBC0E002010B5164C94F8643092
:1037900033BBFF21E21801332A2B82F83010F9D114
:1037A0000021C8B2FFF7E2FF01310C29F9D106224E
:1037B00000210D4823F0D9FD0C4BC02283F80623CD
:1037C00040221A604FF4BE70FFF79EFF084B4FF087
:1037D0000042C3F80423012384F86430002010BDA4
:1037E0000820FCE7BC0E00201A0F002000E100E0DA
:1037F00000600040034B93F86400003018BF0120C4
:10380000704700BFBC0E0020F7B5404F3B18044680
:1038100093F93030002B944675DA8B78C3F340036C
:10382000002B15BF0025082508200C20854202D159
:10383000042003B0F0BD57F8252001324FEA850679
:1038400049D1381947F825C080F8305013B97B1991
:1038500083F852408B785A071BD4D8073DD502A86D
:1038600040F8084DFFF75CFF009B00EB8300D0F8A9
:10387000003723F00203C0F800372548E20804F0BF
:10388000070C012303FA0CF310F802C043EA0C03FF
:103890008354887891F800C010F002002AD006F115
:1038A000804303F5C0432402D3F8102522F44F329D
:1038B00022F44072C3F810254FEA0C4CD3F81025BF
:1038C00004F47C540CF4403C44EA0C041443C3F864
:1038D00010450020ADE70135A8E702A84A7840F876
:1038E000044DFFF71DFF019B03F5E073920040F8C4
:1038F0002320C2E7083D3D4495F85A4044EA8C1C19
:1039000085F85AC095E7082093E700BFBC0E002059
:103910001A0F002073B5224C2518064695F9302061
:10392000072A1ADD224492F852309B09032B10D14A
:1039300002A840F8046DFFF7F3FE019AD0F81035A5
:10394000D340DB0707D402213046FFF7F5FE02B073
:1039500070BD012BF7D00321F6E7D3B2072BF6D8C1
:10396000930003F1804303F5C043D3F8100540F002
:103970000100C3F8100502F14000800080B2FFF79B
:10398000C3FE0029E3D095F9303054F82330002BE2
:10399000DDD0012303FA02F2024BC3F80423D6E779
:1039A000BC0E00200060004007B502AB43F8040DD8
:1039B0001846FFF7B5FE019BD0F81005D84000F07F
:1039C000010003B05DF804FB2DE9F04F002489B03D
:1039D000CDE902445F4A604E604D01211368A2F5B3
:1039E000C040012B80B206D1D6F804330B4202D07E
:1039F000FFF78AFE0C430432AA424FEA4101EDD19F
:103A0000574B1B68012B0ED14FF4BE70FFF77CFEA5
:103A10004FF0A04344F00044D3F810350293514BCB
:103A2000D3F81035039314F0FF0F1AD04E4F002532
:103A30000126344210D0AB0003F1804303F5C043AC
:103A4000D3F81005D3F8101557F82530C0F305202A
:103A5000C1F3014103B198470135082D4FEA4606ED
:103A6000E7D1002C72DA04AE0023049373604FF0A8
:103A7000FF33CDE906333C4F4FF0010800252C46BB
:103A80007B1993F95A20531C47D0D2B222F0C009B7
:103A900008A84FEAD90300EB030B02F007011BF85B
:103AA000080C08FA01F1084237D007EB0900920927
:103AB00090F9300057F820A0BAF1000F05D1032A81
:103AC0002BD1F05C0843F05401E0032AF9D001A89F
:103AD000CDF80490FFF724FE019B03F5E07350F846
:103AE00023301BF8180C0842C3F3014305D0022B06
:103AF00013D1032A0BD1114604E0032B0DD1032A65
:103B000005D102214846FFF717FE0134E4B2BAF1AD
:103B1000000F02D011464846D0470135042DAFD1E1
:103B2000A4B14FF0A0430299D3F8102503F54073D8
:103B30009142D3F8103502D10399994206D00292EE
:103B40000393049A059B0692079397E709B0BDE893
:103B5000F08F00BF00610040006000402061004025
:103B60007C61004000030050BC0E0020014B1B682C
:103B7000184700BF240F002038B50A4B98420D4665
:103B80000CD10020FEF76CFA074B1C7914B9012206
:103B90001D601A710020FEF765FA0CB9002038BDCF
:103BA0001120FCE700200040240F0020034B984226
:103BB00001BF034B00221A601A71704700200040B9
:103BC000240F002010B5124C2278FAB9114B19605D
:103BD000037813F0010F104B1EBFD3F8042542F0F9
:103BE0000102C3F80425D3F8002222F00102C3F831
:103BF00000224378094A5B01DBB282F80D334FF4AF
:103C00000053136001232370002010BD8520FCE7C2
:103C1000300F00202C0F002000D0004000E100E019
:103C2000064B00221A6082B01B680193019B044B73
:103C30000122C3F804231A6002B0704700D100408B
:103C400000D00040024A0123C2F808335360704795
:103C500000D00040064A0123C2F808335360054BE8
:103C60004FF40052C3F88020034B00221A707047B3
:103C700000D0004000E100E0300F0020074B0022A0
:103C80001A6082B01B680193019B054BD3F80805AD
:103C9000044B1B68C0B202B0184700BF00D10040FF
:103CA00000D000402C0F0020F7B50579314C0C26D0
:103CB0006E43A7193B7A002B5AD1A2514A687A6009
:103CC0009C46467902685F1CDBB29E4246D8120BC6
:103CD00053B2CE78284F002BAEBF03F1604302F001
:103CE0000F02264B4FEA4616F6B2AABF03F5614310
:103CF0009E5483F8006303681B0B5EB276090122B1
:103D000003F01F0302FA03F347F8263007684B78E5
:103D1000D7F8046503F0030326F003063343C7F81E
:103D2000043507688B78D7F8086503F0030326F09D
:103D300003063343C7F8083506680B78D6F8100534
:103D400003F00F0320F00F010B43C6F810350C23CE
:103D500003FB05440020227203B0F0BD9B0003F575
:103D6000A07342F803C0D3580193019B3B46A8E7D8
:103D70000820F1E7340F002000E100E014ED00E03E
:103D8000036801221A600379034A0C2101FB032313
:103D900002221A72704700BF340F002003680449E2
:103DA00001221A6103790C2000FB03131A72704779
:103DB000340F002038B503681B0B5AB20121520999
:103DC00003F01F0301FA03F320320C4941F82230BB
:103DD00003680025D3F80022C3F8005203684FF0AF
:103DE000FF320446C3F80823FFF7D8FF2379044ABB
:103DF0000C2101FB03231D7238BD00BF00E100E070
:103E0000340F00200379044A0C2101FB0323187AA4
:103E1000831E584258417047340F002010B58B0064
:103E200040330268DBB20124D45001F5A871036865
:103E300053F8210010BD73B54FF480348C400568F1
:103E40008BB18B0003F5A0730026EE50EB58019365
:103E5000019B0368C3F80443036801F5A87143F8A4
:103E6000212002B070BDC5F80843F5E7F0B407683B
:103E70009DF810C0D7F8004240F201158D4024EAA9
:103E80000504C7F800420568D5F800422343C5F889
:103E90000032F0BC6346FFF7CEBF0000F7B5104E0E
:103EA000104F114D0024A3199B001A6892B1D7F846
:103EB00004134FF48032A2400A420BD000221A6051
:103EC0001B68019304F150008000019B80B2D5E98A
:103ED000003198470134062CE5D103B0F0BD00BF96
:103EE0005068001000A00140340F00200023435010
:103EF00082B043580193019B02B070470A4610B547
:103F00004FF48E71FFF7F2FF136A9168C95C136A70
:103F100001331362C0F81C1510BD10B58B690A4639
:103F20004FF4847123B9FFF7E1FFD0F8183510BDC5
:103F3000FFF7DCFF536AD168D0F81805C854536AFC
:103F400001335362F3E700001FB501238DF8003001
:103F5000044BCDE90110D3E900126846904705B043
:103F60005DF804FB400F002030B54D4AD2F8043311
:103F700013F4007F85B015464FD0D2F82431002BC2
:103F80004BD04FF492711046FFF7B0FF4FF401731E
:103F9000C2F80833434B93F8291009B90121516045
:103FA0003F4902228DF80020D1F88024C1F88024F6
:103FB00003929A690292DA6801920022C3E906220A
:103FC0006846D3E9001290473548D0F81C315BB100
:103FD00034494A690B6A9A420A464CD991F828300A
:103FE000002B48D1FFF78AFF2D4AD2F8443193B114
:103FF0004FF4A2711046FFF779FF2A4B93F829106E
:1040000009B1012111609A692AB100229A61586AA6
:10401000D968FFF799FF05B030BDD5F804335B07C9
:10402000D2D5D5F80831002BCED01E4C1C482146E5
:10403000FFF773FF636AA2699A422346C4D1E2691B
:1040400052B12369E168E3600023606AA261E36121
:104050006362FFF779FFB7E794F829200AB90122D4
:104060006A600F4A4FF40171C2F8081300229A6186
:10407000586AD968EDE74FF48E710948FFF736FFAB
:104080005369002BB0D051690291002391688DF8DB
:104090000030019153616846D2E900139847A3E7C5
:1040A00000200040400F00201F2886BF00F01F00A6
:1040B000044B4FF0A04300F5E070022243F82020AB
:1040C000704700BF000300502DE9F8436C4F06799C
:1040D00091462C2202FB0672054692F82A200C46D5
:1040E000002A40F0C68067490068FFF745FD80461A
:1040F000002840F0C18023685A1C19D01F2B4FF0B4
:1041000001028ABF60494FF0A04103F01F0302FA89
:1041100003F3C1F8083523681F2B86BF03F01F0384
:10412000594A4FF0A04203F5E073032142F82310EF
:1041300061684B1C0BD01F2986BF01F01F01524B39
:104140004FF0A04301F5E071002243F821202B68D5
:10415000A269C3F82425217D637D2A680B43C2F838
:104160006C35D4E900122B68C3F81425C3F80C157C
:10417000237D012B32D1A168481C0BD01F2986BF9B
:1041800001F01F01404B4FF0A04301F5E071002208
:1041900043F82120E3685A1C19D01F2B4FF001026D
:1041A0008ABF39494FF0A04103F01F0302FA03F31D
:1041B000C1F80835E3681F2B86BF03F01F03324A9E
:1041C0004FF0A04203F5E073032142F82310D4E935
:1041D00002122B68C3F80825C3F810152C2373436B
:1041E000FA18C2F804902269FA50B9F1000F2DD0E4
:1041F0004FF48E712868227FFFF778FE4FF4A2718A
:104200002868FFF773FE2B682049C3F80413296858
:10421000090B4BB2002BAEBF03F1604301F00F015D
:104220001B4B4FEA4212D2B2AABF03F561435A5464
:1042300083F800232B681B0B5AB2012103F01F03E4
:1042400001FA03F35209134941F822302B68042282
:10425000C3F800252C2303FB06730022C3E90622C2
:1042600083F829205A61012283F82A204046BDE8BC
:10427000F8834FF00808F9E74FF01108F6E700BFA0
:10428000400F0020693F0000000300508000020042
:1042900014ED00E000E100E02DE9F041036804794D
:1042A000274D0022C3F800252C2303FB04530146AD
:1042B0005B6883B10368234AC3F8082303681B0BB8
:1042C0005AB20120520903F01F0300FA03F320320F
:1042D0001D4840F822300B684FF0FF32D3F80C0530
:1042E000D3F81485D3F80865D3F81075C3F81425EE
:1042F000C3F80C250B689042C3F80825C3F81025B5
:1043000001D0FFF7D1FEB8F1FF3F02D04046FFF7E2
:10431000CBFE7A1C02D03846FFF7C6FE731C02D0D3
:104320003046FFF7C1FE0868FFF740FC2C2303FB73
:104330000454002384F82A306360BDE8F08100BF94
:10434000400F00208402020000E100E02DE9F04768
:10435000224B07794FF02C0909FB073406466569A3
:104360009846002D36D16261A160256284F82850FC
:104370004FF48E710068FFF7B9FD336801229A602F
:1043800021463068FFF7BAFD6368A14623BB356854
:10439000D4F814A0236A9A4511D83368D3F81C21A5
:1043A000002AFBD00122DA6000202C2303FB0787C0
:1043B00000237B61BDE8F08794F8283043B9D5F835
:1043C0001C31002BF8D049462846FFF797FDE1E75E
:1043D0000F20EAE71120EDE72846EBE7400F002029
:1043E0000023435082B043580193019B02B07047B1
:1043F0001FB501238DF80030044BCDE90110D3E93E
:1044000000126846904705B05DF804FB6C0F002071
:104410001F2886BF00F01F00044B4FF0A04300F59B
:10442000E070022243F82020704700BF00030050D4
:104430007FB5454AD2F82461002E63D010464FF470
:104440009271FFF7CDFF02238DF80030D2F880344F
:10445000C2F880340393D2F83C3502933B4BDA68C0
:1044600001920022C3E906226846D3E90012904770
:10447000354AD2F844317BB14FF4A2711046FFF7B0
:10448000AFFF324B996939B10021C3E90611D968F0
:10449000D2F83C05FFF7ACFF2B4AD2F82031B3B17C
:1044A0004FF490711046FFF79BFF0123D360274B19
:1044B000596961B1D2F84C150291002299688DF8C2
:1044C000002001915A616846D3E9001290471E4AC4
:1044D000D2F85831A3B14FF4AC711046FFF780FF0A
:1044E0001A4B596961B1D2F84C15029100229968B2
:1044F0008DF8002001915A616846D3E90012904777
:1045000004B070BDD2F81031002BB1D04FF48871D7
:104510001046FFF765FF0D4BD2F83C0599698842BC
:10452000A6D1DC69D96864B1D2F8005225F0200523
:10453000C2F800521A699C61DA60DE61FFF758FF29
:1045400096E79C61FAE700BF002000406C0F002056
:104550002DE9F843724F06799146242202FB067238
:10456000054692F820200C46002A40F0D3806D4981
:104570000068FFF701FB8046002840F0CE802368EA
:104580005A1C19D01F2B4FF001028ABF66494FF009
:10459000A04103F01F0302FA03F3C1F808352368B2
:1045A0001F2B86BF03F01F035F4A4FF0A04203F5A5
:1045B000E073032142F8231061684B1C0BD01F29C4
:1045C00086BF01F01F01584B4FF0A04301F5E07189
:1045D000002243F821202B68A269C3F82425217DFD
:1045E000637D2A680B43C2F86C35D4E900212B683F
:1045F000C3F80C25C3F81415237D012B32D1A16813
:10460000481C0BD01F2986BF01F01F01464B4FF0FD
:10461000A04301F5E071002243F82120E3685A1C11
:1046200019D01F2B4FF001028ABF3F494FF0A04124
:1046300003F01F0302FA03F3C1F80835E3681F2BE8
:1046400086BF03F01F03384A4FF0A04203F5E07322
:10465000032142F82310D4E902122B68C3F808257D
:10466000C3F8101524237343FA18C2F80490226982
:10467000FA50B9F1000F3CD04FF488712868227FBE
:10468000FFF7AEFE4FF490712868FFF7A9FE4FF4D4
:1046900092712868FFF7A4FE4FF4A2712868FFF713
:1046A0009FFE4FF4AC712868FFF79AFE2B681F49F4
:1046B000C3F804132968090B4BB2002BAEBF03F1FA
:1046C000604301F00F011A4B4FEA4212D2B2AABF67
:1046D00003F561435A5483F800232B681B0B5AB22D
:1046E000012103F01F0301FA03F35209114941F8B4
:1046F00022302B680822C3F80025242303FB06730D
:104700000022C3E906225A61012283F82020404694
:10471000BDE8F8834FF00808F9E74FF01108F6E715
:104720006C0F0020314400000003005010034200D1
:1047300014ED00E000E100E02DE9F041324E057992
:10474000242303FB056304465B6883B103682F4A97
:10475000C3F8082303681B0B5AB20121520903F066
:104760001F0301FA03F32032294941F8223022685D
:10477000D2F8003223F02003C2F80032236801226D
:104780005A604FF4AC712068FFF72AFE2368DA60A4
:104790002368D3F85821002AFBD00022C3F8002553
:1047A00023684FF0FF32D3F80C05D3F81485D3F803
:1047B0000815D3F81075C3F80C25C3F81425236821
:1047C0009042C3F80825C3F8102501D0FFF720FE5A
:1047D000B8F1FF3F02D04046FFF71AFE7A1C02D024
:1047E0003846FFF715FE4B1C02D00846FFF710FEB7
:1047F0002068FFF7DBF9242303FB0565002385F818
:1048000020306B60BDE8F0816C0F00201003420087
:1048100000E100E001F06043B3F1005F2DE9F041F9
:1048200006463BD1204B0779242505FB07359846E2
:104830006C69002C34D16A61A96000684FF49071F2
:10484000FFF7CEFD4FF4AC713068FFF7C9FD336858
:104850006A69A968C3F84415C3F84825336801227A
:104860009A606B68F3B93368D3F82011D3F85821F4
:1048700019B9002AF8D00F2009E0002AFBD1012243
:10488000DA603268D2F85831002BFBD000202423A4
:1048900003FB078700237B61BDE8F0811020FBE765
:1048A0001120F9E72046F7E76C0F00200220FCF703
:1048B000ABBB00002DE9F04781460D46FCF7BEFB7F
:1048C0000328044604D8012D04D024D3022D2FD070
:1048D000BDE8F087194D47003A18A918AE5C4A7830
:1048E00052B1DFF86880164842464FF48041FDF728
:1048F000B2FA08B988F800903B192B449A78114B0A
:104900001A55002EE4D0104B1B68002BE0D0304627
:10491000BDE8F04718470A48FDF7B6FA074B04EB25
:10492000440213449E78074B1B5DB342D0D1E8E7A5
:10493000024B00EB40041C446678E2E7920F002033
:1049400090000020AD0F0020A80F0020900F002045
:1049500002210078FFF7AEBF08B5094B1B7853B1B1
:104960000020FCF71FFB0120FCF71CFB0320BDE827
:104970000840FCF717BBBDE80840FCF727BB00BFA9
:10498000910F0020F8B57B4C237805461BB100231E
:104990002370FFF7E1FF172D00F28880DFE805F0B4
:1049A0000C17174354657680888D888D959A9A9A4E
:1049B0009A9AC4C9D1D9E4E4FFF7CEFF6E48FDF757
:1049C00063FA6E4B002204461A702046F8BD0020A0
:1049D000FCF7C0FAF8B10020FCF7E4FA022D0CBF96
:1049E0004FF4E1614FF47A61644B1D704FF4004065
:1049F0004FF47A740025E0FB01454FF4FA6200237E
:104A00002046294623F006FF002201465A48BDE809
:104A1000F840FDF720BAFCF7B1FA022D0CBFC8210F
:104A20004FF4C871E0E70020FCF794FA40B1002091
:104A3000FCF7B8FA4FF44871504B03221A70D5E7CF
:104A4000FCF79CFAC821F7E70020FCF783FA38B19D
:104A50000020FCF7A7FA4FF47A61484B0422EDE7F7
:104A6000FCF78CFA4FF4C871F7E70020FCF772FAF4
:104A700048B10020FCF796FA404B05221A7040F628
:104A8000CD410022C2E7FCF779FAF5E70020FCF7F8
:104A9000BBFA3A4B06221A70002240F26661B5E773
:104AA0000020FCF76BFA354B07221A7000248CE7C4
:104AB00001202070FCF7A8FAEEE701202070FCF737
:104AC000A3FA00224FF40051A0E7FCF78EFA2B4B1B
:104AD0000C22EAE72A482B4EFDF7D6F9D5F111054D
:104AE00004461CD0D8B9012D13D0C8235D434FF420
:104AF00000474FF47A7000214FF4FA620023C7FB9D
:104B0000050123F087FE224601461D48FDF7A3F963
:104B100004460220FCF732FA0123337055E70220E5
:104B2000FCF740FA0023F8E7FFF716FF134B1222B9
:104B3000BBE7FFF711FF0020FCF720FA0F4B132211
:104B4000B3E7FFF709FF0120FCF718FA0B4B14221B
:104B5000ABE7FFF701FF0020FCF710FA0120FCF79C
:104B60000DFA064B1522A0E7FCF73FFA034B1D7028
:104B70009CE700BFA40F0020B8000020AC0F00206D
:104B800068000020910F0020044B1B68DB0703D551
:104B9000034B1878FFF7F6BE704700BFA00F002048
:104BA000AC0F002038B51C4B18601C4B10F00204F1
:104BB000054619601AD01A4B1A480E221A700F2295
:104BC000DA7010229A7111225A72042140F23332A3
:104BD000FDF704F8044648B9FDF758F8044628B92B
:104BE0000146114A1148FDF72BF90446EB0711D590
:104BF0000120FCF735FA6CB921460D4A0D48FDF746
:104C00001FF9044630B90C4A0C480121BDE8384070
:104C1000FDF716B9204638BDA00F0020A80F0020D0
:104C2000920F002048940200514900006C94020049
:104C3000894B000070940200AD48000068940200A7
:104C400007B522492248FEF7D9FA224A00231080EC
:104C500040F20241CDE900230A2001220AF0F2F8D5
:104C6000024668B11C4B5B88022B09D91B481C4BC0
:104C70001C491B1ADB081B0443F00300FBF770FF01
:104C800019491A48FEF7BAFA194A0023108040F26F
:104C90000341CDE900230A2001220AF0D3F802469D
:104CA00080B10D4B5B88022B0CD90C480C4B114981
:104CB0001B1ADB081B0443F0030003B05DF804EB90
:104CC000FBF74EBF03B05DF804FB00BFFC2F0020D4
:104CD0000C3000201630002018050020C0AF020064
:104CE000F8AF020008950200E42F0020F42F002006
:104CF0001430002033950200F0B58BB00AA90023D0
:104D000041F8203D05460FF045F90446284605F0D8
:104D1000FFF8063C06460221284600F079FD012CEA
:104D200077D84F4C002E36D11122314605A822F0FB
:104D30001CFB03A809F000FD03AA112105A800F03F
:104D400019FB002803DA474905A822F069FE6388A9
:104D5000022B11D905A8FBF737FD434C064601F09D
:104D60000DFA424B4249E41AE408240443883246CF
:104D700044F00300FBF7FEFE00224FF480413D4863
:104D8000FDF769F808B1FCF797FF15B1284604F064
:104D90005FFE0BB0F0BD638853B13348334B3649E7
:104DA000C01AC0080004324640F00100FBF7D8FEEC
:104DB000022010F025FF0128E7D0638863B12B4B58
:104DC00029482E4A2E49C01AC008000440F2171381
:104DD00040F00100FBF7CEFE63889BB10120FCF799
:104DE0007DF9214C214B2749E41AE40840F21713BE
:104DF000240401930122214B0093034644EA02005C
:104E0000FBF7CEFEFBF71CFD0028FBD144F621602A
:104E1000B9E7284600F0B8FA46420746002EB4D05B
:104E20000F4B5B889BB13046FCF758F90E4C0F4B8B
:104E30001449E41AE40840F21D13240401930F4BB3
:104E400000933246034644F00100FBF7A9FEFBF74E
:104E5000F7FC0028FBD1C7F59C40203093E700BF4A
:104E6000180500205B950200F8AF0200C0AF0200F9
:104E70006395020088020020A6950200CA950200F0
:104E8000DA950200059602007FB5FCF7A7FF08B18E
:104E9000FCF712FF4FF480410020FBF7EBFB08B159
:104EA000FCF70AFFFBF706FB6249634800244FF456
:104EB0007A63C1E9004332238B600C73FEF777F904
:104EC0005E495F480C734FF42F7240F24C43C1E9C6
:104ED000002305238B60FEF76AF921460120FFF7C6
:104EE00061FE08B1FCF7E8FEFCF770F8554A564839
:104EF0000121FCF7A5FF08B1FCF7DEFE534B544C33
:104F000000251D70534B1D80534B1D7005F09CFCFC
:104F100005F09CFC02A8FCF743F902A809F004FC88
:104F20004FF4803009F020FC284600F0C7F9062035
:104F300008F090FBC32008F093FB284609F0ECFB37
:104F400029468822204622F010FA444800F078FDD5
:104F50004FF48173238040F60A3363800622404970
:104F6000601D22F0DEF906230B2623710B223D493A
:104F700004F1250022F0D5F984F8246008223A498A
:104F800004F1450022F0CDF90823324684F844307C
:104F90003649042304F1560084F8543022F0C1F954
:104FA0004FF4004149F24D5347F6FF7284F85560C3
:104FB000A4F87810A4F87A30A4F880104FF40063B5
:104FC00048F2010184F86450A4F87650A4F87C20DB
:104FD000A4F87E30A4F88210A4F88420A4F88630C7
:104FE00009F0CCFB45420646FDB1214B5B889BB1E5
:104FF0002846FCF773F81F4C1F4B2049E41AE408BD
:105000004FF4AC73240401931D4B00932A460346CE
:1050100044F00100FBF7C4FDFBF712FC0028FBD1B4
:10502000C6F59C402030FCF747FE09F0A9FBFBF7D2
:1050300007FCFAE7FC2F00200C300020E42F0020B2
:10504000F42F0020414C000004950200B50200201E
:105050005C2F0020B6020020B8020020ED010020E5
:10506000C2940200C9940200D5940200DE940200AA
:1050700018050020F8AF0200C0AF0200059602003C
:10508000CA950200054B1B680D2B01BF044B186825
:10509000B0FA80F0400918BF0020704730010010BE
:1050A0003401001008B5FFF7EDFF40B14FF0804329
:1050B0000022C3F80C21C3F81021C3F83825FFF7EC
:1050C000E1FF002846D04FF080524D4BD2F8041437
:1050D000C3F82015D2F80814C3F82415D2F80C141C
:1050E000C3F82815D2F81014C3F82C15D2F81414EC
:1050F000C3F83015D2F81814C3F83415D2F81C14BC
:10510000C3F84015D2F82014C3F84415D2F824147B
:10511000C3F84815D2F82814C3F84C15D2F82C144B
:10512000C3F85015D2F83014C3F85415D2F834141B
:10513000C3F86015D2F83814C3F86415D2F83C14DB
:10514000C3F86815D2F84014C3F86C15D2F844249B
:10515000C3F87025FFF796FF48B14FF08043D3F8AE
:105160000024D20744BF6FF00102C3F80024254A8F
:10517000D2F8883043F47003C2F88830BFF34F8F01
:10518000BFF36F8F4FF01023D3F80022002A03DB08
:10519000D3F80432002B2FDA1B4B0122C3F804256D
:1051A000D3F80024002AFBD04FF010221221C2F8BD
:1051B0000012D3F80024002AFBD04FF01023122253
:1051C000C3F80422104B1A46D3F800140029FBD070
:1051D0000021C3F80415D2F80034002BFBD0BFF334
:1051E0004F8F0849094BCA6802F4E0621343CB6051
:1051F000BFF34F8F00BFFDE7054B064A1A6008BD9D
:1052000000C0004000ED00E000E001400400FA05AD
:10521000B00200200090D0037047000070B5064631
:1052200010460D460AF023F8012E04462AD003D377
:10523000022E2DD0002003E010F5004F01D10120F7
:1052400070BD01231A4640F2034128460AF0E7FBED
:105250004368B3F9003013F5004F01D09C42E9DBFD
:105260000223012240F2034128460AF0D8FB43689A
:10527000B3F9000010F5004FE1D08442CCBF00200C
:105280000120DDE747F6FF70201A18BF0120D7E79D
:105290000048F9E70180FFFF07B500230093054AA6
:1052A000054B012140F203400BF0A8FD03B05DF86F
:1052B00004FB00BF1D5200001952000007B500BBDF
:1052C000124B0C22C3F818270A22D3F81015013A02
:1052D000C1F380110191F8D1019B73B90C4B5B882C
:1052E000022B09D90B480C4B0C49C01AC00800040A
:1052F00040F00300FBF730FC0120044B0222C3F80E
:10530000182703B05DF804EB09F01CBA0003005045
:1053100018050020F8AF0200C0AF0200339A020067
:105320002DE9F84F1C469DF8283080468946924664
:1053300063B1661E002BDFF838B014BF4FF0FF37A3
:105340000127002524B92846BDE8F88F1E46F1E75D
:105350001AF806305A46A9EB050108EB050022F0C1
:105360002BFB0028F0DB013C05443E44E4B2E9E7B6
:10537000C58B020007B5012300930823FFF7D0FF78
:1053800003B05DF804FB000070B58AB00AA90023E1
:1053900041F8203D04460EF0FDFD0646204604F08F
:1053A000B7FD044609F0E4F90546132E00F20B821E
:1053B000DFE816F019003200E0014C0109024A0052
:1053C0008500C7000F01FC010902190092010902C2
:1053D0000902B4011400EE010902B701A84B5B8871
:1053E0006CB1022B01D800202CE0A648A64BA7499F
:1053F000C01AC0080004224640F003005CE0022B03
:10540000F1D9A048A04BA249C01AC008000440F03E
:105410000300FBF7A1FBE6E7994B5B88022B09D958
:105420009848994B9B49C01AC008000440F00300FB
:10543000FBF792FB002010F0E3FB10F1FF3018BFE8
:105440004FF0FF300AB070BD8D4E7288022A09D924
:105450008C488D4B9049C01AC008000440F00300EE
:10546000FBF77AFB7388E4B96DB1022B09D9854843
:10547000854B8A49C01AC008000440F00300FBF7BE
:105480006BFB0220D7E7022B09D97E487E4B84496B
:10549000C01AC008000440F00300FBF75DFB0420C5
:1054A000C9E7002B9FD07748774B7E49C01AC008C8
:1054B0000004224640F00100FBF752FB93E7704ED8
:1054C0004CBB1122214605A821F04FFF03A809F08B
:1054D00033F903AA112105A8FFF74CFF002803DACE
:1054E000714905A822F09CFA7388022B7FF67BAFE6
:1054F00005A8FBF769F9634C054600F03FFE624BD7
:105500006A49E41AE408438824042A4644F0030064
:10551000FBF730FB67E7738840B1022BB1D95948DC
:10552000594B6349C01AC0080004A6E7002B3FF49A
:105530005AAF5448544B5F49C01AC0080004224671
:10554000B8E74F4E2CBB1122214605A821F00DFFD4
:1055500003A809F0F1F803AA112105A8FFF70AFF33
:10556000002803DA504905A822F05AFA7388022B62
:105570007FF639AF05A8FBF727F9424C054600F046
:10558000FDFD414B4C49E41AE408240443882A46B3
:10559000BCE7738890B1022B0AD93A483A4B474985
:1055A000C01AC0080004224640F00300FBF7D8FAF6
:1055B00041220221424808F093FD43E7022B7FF687
:1055C00012AF3048304B3F49C01AC0080004224691
:1055D00012E72B4D4CBB1122214605A821F0C5FE38
:1055E00003A809F0A9F803AA112105A8FFF7C2FE34
:1055F000002803DA2C4905A822F012FA6B88022B46
:105600007FF63FAF05A8FBF7DFF81E4C054600F01C
:10561000B5FD1D4B2C49E41AE408240443882A46AE
:1056200044F00300FBF7A6FA2BE76B88022B0AD99C
:105630001448154B2549C01AC0080004224640F002
:105640000300FBF78DFA41220421B3E70C4B5B8882
:105650005CB9022B7FF6C7AE0B4B0A481C49C01A37
:10566000029BC00800041A79C6E6002B3FF4BBAECB
:105670000448054B1749C01AC0080004224619E720
:1056800018050020F8AF0200C0AF02001C9602000F
:105690005C96020089960200A2960200C49602005F
:1056A000DB960200F39602005B950200229702004F
:1056B00076970200A997020063950200E99702001D
:1056C000015C01001E98020059980200B498020083
:1056D000DB980200F9980200029D1122002105A822
:1056E00021F043FE2A1D112105A8FFF743FE0028E3
:1056F00003DA3D4905A822F093F93C4B5B88022B65
:105700007FF671AE05A8FBF75FF8394C394B3A4983
:10571000E41AE40824042B7B0246F7E608F0F8FEBE
:1057200061E6029D1122002105A821F01EFE2A1D1E
:10573000112105A8FFF71EFE002803DA2A4905A853
:1057400022F06EF9294B5B88022B7FF64CAE05A840
:10575000AE89274CFBF738F8264B2849E41AE408B1
:10576000AB7B009324040346324644F00300FBF76E
:105770000BFA38E61D4B5B88022B7FF634AE1D4BCF
:105780001B481F49C01A029BC00800049A8833E6D0
:10579000164B5B88012B7FF626AE1548154B194931
:1057A000C01AC008000440F0020032E60F4B5B88CC
:1057B000022B7FF618AE0E480E4B1349C01AC008D4
:1057C0000004224618E6094B5B88022B7FF60BAEDD
:1057D000084B07480D49C01AC0080004234632464A
:1057E00040F0030094E600BF5B950200180500201E
:1057F000F8AF0200C0AF02001E99020051990200EA
:105800008F990200C4990200DA990200059A0200F9
:1058100073B50D4602A9002341F8043D06460EF07B
:10582000B9FB0446304604F073FB032C09D006D3C1
:10583000063C012C03D820B92846FBF79FFB02B099
:1058400070BD2846FBF7AEFBF9E700002DE9F843F1
:105850001E4C074691461E46884601F0C9FCB4F826
:105860001A573423F201022F25F0070542EA880275
:1058700084F81D374FF0120334BF4FF0020E4FF083
:10588000000E3D4342EAC90284F81E37002F4FF054
:105890006C034EEA020205F0E70584F81F3742F672
:1058A000414318BF4FF4305345EAC02084F81C2709
:1058B000A4F822377F220023A4F81A07A4F820278F
:1058C000A4F8242784F82637BDE8F883C8340020DC
:1058D00030B40B4DB5F8274724F00F04204320F0D7
:1058E000F00040EA011020F4706040EA0220C0F3AA
:1058F0000B0040EA0330A5F8270730BC0CF05ABF74
:10590000C834002070B583798B4205460C46164694
:1059100004D8BA214FF4496004F032FE043425F86B
:10592000146070BD70B5C3798B4205460C461646AF
:1059300004D8C8214FF4496004F022FEAB791C441E
:10594000043425F8146070BD70B51C4D1C4E95F8DC
:105950002E270023082102F0F00285F82F1763F3A9
:105960000712092185F82937A5F82A37A5F82C3719
:1059700085F8301785F82E2785F86C371C4605F218
:10598000297536F81420E1B228460134FFF7BAFF32
:10599000082CF6D10B4E0C4D0024325DE1B22846A6
:1059A0000134FFF7BFFF092CF7D10C230322072195
:1059B0000020BDE87040FFF78BBF00BFC834002057
:1059C0005A9A02006A9A0200F13B002008B50A4B7D
:1059D00093F87921003218BF0122114601230220D9
:1059E000FFF734FF01220C2311460020FFF770FF60
:1059F000BDE80840FFF7A8BFC834002007B50F4B2B
:105A000093F86C27052A0AD8511C83F86C1703EB0E
:105A10008203C3F85407002003B05DF804FB04239D
:105A2000019200934FF0FF3040F239134FF4496276
:105A3000012108F0D1FC6FF01C00EDE7C834002014
:105A40002DE9F74308F010FF09F004FE43681B78C6
:105A50000193042300934FF4496240F2471301215C
:105A60004FF0FF3008F0B8FC002609F0F3FD436862
:105A70001B78F4B2A3420CD808F01AFF00286CD1AE
:105A800040F261114FF4496003B0BDE8F04304F007
:105A900077BD09F0DFFD4368D3F8013053F82430B7
:105AA000D3F81500FFF7AAFF09F0D4FDD0F8AC3009
:105AB000A50063B109F0CEFDD0F8AC7009F0CAFDC5
:105AC0004368D3F8013053F824301878B8470027DA
:105AD00009F0C0FD4368D3F801305B591B7CFCB270
